:020000040800F2
:10000000080600200101000809100008C50E0008BC
:1000100005100008B1080008771E00080000000065
:100020000000000000000000000000006D15000846
:100030002509000800000000C1120008711700081F
:100040001B0100081B0100081B0100081B01000820
:100050001B0100081B0100081B0100081B01000810
:100060001B0100081B0100081B0100081B01000800
:100070001B0100081B0100081B0100081B010008F0
:100080001B0100081B0100081B0100081B010008E0
:100090001B0100081B0100081B0100081B010008D0
:1000A0001B0100081B0100081B0100081B010008C0
:1000B0001B0100081B0100081B0100081B010008B0
:1000C0001B0100081B0100081B0100081B010008A0
:1000D0001B010008891B00082D1C00081B010008DB
:1000E000710900081B0100081B010008DFF80CD093
:1000F00000F01CFA00480047991E0008080600207E
:100100000648804706480047FEE7FEE7FEE7FEE7B1
:10011000FEE7FEE7FEE7FEE7FEE7FEE775170008ED
:10012000ED000008D2B201E000F8012B491EFBD21D
:1001300070470022F6E710B513460A4604461946F2
:10014000FFF7F0FF204610BDF0B480EA0102D40FA3
:100150004200B2EB410F02D20246084611464A0065
:1001600042D0C30DDDB2C1F3C752AD1A202D35DA2E
:10017000C1F3160141F4000204B15242C5F1200658
:1001800002FA06F12A411044B3EBD05F23D0C4B188
:10019000012DA0EBC35009DCF0BC4FF0004202EA95
:1001A000C352DBB200F5000000F035B9400000F1A9
:1001B000807000EBC350A0F1807040EAD17049001C
:1001C00009E0490841EAC071A0EBC35000F5000006
:1001D000400800EBC350F0BC00F014B961420122AA
:1001E00002EB4101001BF6E7F0BC704781F00041D3
:1001F000AAE780F00040A7E780EA010210B502F00C
:100200000043400022D04A001FD0010E01EB1261D2
:10021000C0F35600C2F3560240F4000042F400025C
:10022000A0FB022000047F39140400D0401C50EAD7
:10023000124001D44000491EC2B20C0604EBD0109B
:10024000401C4008802A02D003E0002010BD20F0AE
:100250000100002900DA0020184310BD2DE9FE4FEF
:1002600081EA030404F0004421F0004100944FF0BF
:10027000000B23F0004350EA01045ED052EA03046D
:100280005BD0C3F30A54C1F30A552C44A4F2F334EF
:100290000194A0FB0254C1F3130141F48011C3F394
:1002A000130343F4801301FB024400FB034E840A52
:1002B000970A44EA815447EA8357A4FB07680295EA
:1002C0008D0A05FB07854FEA932C04FB0C54270588
:1002D000029D4FEA065847EA1637B5EB08056EEB64
:1002E000070C870E920E47EA811742EA8312A7FB9A
:1002F0000201B6EB0B0164EB00042B0D43EA0C3357
:100300005E1844EB1C50DA465146E7FB0201C5F388
:1003100013044FEA0B3343EA14534FEA0432019CAF
:1003200043EA0603A4F10C040294009CCDE900B456
:1003300000F0AEF803B0BDE8F08F00200146F9E709
:10034000C10F80EAE0700844CA079623002100F03C
:1003500062B80EB5C10F80EAE0700844CA070021F8
:1003600040F233438DE80E000A460B4600F090F849
:1003700003B000BD00F0004220F00040C10DC0F30A
:10038000160040F400007F2901DA0020704796290A
:1003900003DCC1F19601C84001E096398840002A8B
:1003A000F4D04042704770B5C1F30A5201F00045E5
:1003B0000024C1F3130140F2FF3341F480119A424B
:1003C00001DA002070BD40F233439A42A2F2334278
:1003D00003DC524200F006F800E090402C43F1D0DC
:1003E000404270BD202A04DB203A21FA02F00021AD
:1003F000704721FA02F3D040C2F120029140084335
:10040000194670470029A8BF7047401C490008BF23
:1004100020F00100704710B4B0FA80FC00FA0CF034
:1004200050EA010404BF10BC704749B1CCF120046C
:1004300021FA04F411FA0CF118BF012121430843F9
:10044000A3EB0C01CB1D4FEA00614FEA102042BF25
:10045000002010BC704700EBC35010440029A4BF1B
:1004600010BC7047401C490008BF20F0010010BCC0
:10047000704710B5141E73F1000408DA401C41F1F6
:10048000000192185B411A4301D120F0010010BD18
:100490002DE9F04D92469B4611B1B1FA81F202E08E
:1004A000B0FA80F22032904600F052F804460F462F
:1004B00040EA0A0041EA0B0153465A46084313D06A
:1004C000114653EA010019D0C8F140025046FFF727
:1004D00089FF05460E4650465946424600F038F818
:1004E000084305D0012004E020463946BDE8F08DE0
:1004F0000020054346EAE0762C4337430A9863051B
:10050000E40AA0EB08000022FD0A44EA47540A303E
:1005100002D500200146E9E7010510196941DDE92E
:10052000084500196941BDE8F04DA2E7064C074DAA
:1005300006E0E06840F0010394E8070098471034B3
:10054000AC42F6D3FFF7D6FDCC1F0008EC1F000825
:10055000202A04DB203A00FA02F100207047914083
:10056000C2F1200320FA03F319439040704721B1F0
:10057000826842F00102826003E0826822F0010298
:100580008260704721B1826842F48072826003E029
:10059000826822F4807282607047014600208A6877
:1005A00002F004020AB1012000E000207047014679
:1005B00000208A6802F008020AB1012000E0002051
:1005C0007047000030B502460020002350680F4CF1
:1005D00020400D790C6844EA05242043506090685F
:1005E0000B4C2040D1E902542C434D7944EA450498
:1005F00020439060D06A20F470000C7C641EE4B24A
:10060000234340EA0350D06230BD0000FFFEF0FFFC
:10061000FDF7F1FFF0B504460D4600200021092D3D
:1006200011DDE068A5F10A0606EB4607072606FA83
:1006300007F18843A5F10A0606EB460603FA06F120
:100640000843E0600CE0206905EB4507072606FA41
:1006500007F1884305EB450603FA06F108432061DC
:10066000072A0FDA606B561E06EB86071F2606FA6E
:1006700007F18843561E06EB860605FA06F1084385
:10068000606322E00D2A0FDA206BD61F06EB860787
:100690001F2606FA07F18843D61F06EB860605FAE1
:1006A00006F10843206310E0E06AA2F10D0606EBB4
:1006B00086071F2606FA07F18843A2F10D0606EB0E
:1006C000860605FA06F10843E062F0BD816841F054
:1006D00008018160704721B1826842F4A002826003
:1006E00003E0826822F4A00282607047816841F0D2
:1006F000040181607047000000B591B001214802FB
:1007000000F0A0FE0121042000F09CFE012108461B
:1007100000F078FE4FF4004000F068FE00208DF8F5
:1007200043003020ADF8400003208DF8420010A9AE
:10073000304800F0EFF90523012204212E48FFF78D
:1007400069FF0523022219462B48FFF763FF0020AB
:100750000B900E904FF460200D9001208DF8310029
:100760008DF8300002208DF83C000BA92248FFF7DD
:1007700029FF21484C3000908015069000200490FD
:100780001E4801904FF48060079080200590002063
:100790000290022003902020089000200A904FF43D
:1007A000805009906946164800F09EF801211448CF
:1007B00000F08EF801211048FFF7E4FE01210E48F9
:1007C000FFF7D5FE0C48FFF781FF00BF0A48FFF78F
:1007D000EEFE0128FAD00848FFF788FF00BF064860
:1007E000FFF7DBFE0128FAD001210348FFF773FF72
:1007F00011B000BD0008014000240140B8000020F5
:100800000800024008B50121082000F01BFE4FF44B
:100810008040ADF8000010208DF8030003208DF813
:1008200002006946014800F075F908BD000C01405E
:100830002DE9F04107460C461546CDB9002600BF0C
:1008400013E04FF48041194800F0FAF9384601F0FE
:1008500077F94FF48041154800F0F0F9701CA04280
:1008600002D0384601F06CF9761CA642E9DB1BE0A9
:10087000012D19D1002600BF13E04FF480410B4831
:1008800000F0DEF9384600F04EF84FF4804107489A
:1008900000F0D4F9701CA04202D0384600F043F8B2
:1008A000761CA642E9DB00BFBDE8F081000C0140E8
:1008B00000BFFEE710B54FF480710348FFF739FC25
:1008C00000200249088010BD08010020AC00002073
:1008D00021B1026842F00102026004E002684FF6B2
:1008E000FE731A400260704710B50022026847F696
:1008F000F0739A430C6A8B6823430C6923434C6959
:1009000023438C692343CC6923434C6A23438C6A79
:1009100023431A430260CB6843600B6883604B68D3
:10092000C36010BD704770B50446002500BF04E0E9
:100930004FF47A7000F004F86D1CA542F8DB70BD2E
:1009400010B504460121094800F0AAFF00BF07487E
:1009500024300088A042FADB0020044924310880BA
:100960000021024800F09CFF10BD00000004004080
:1009700010B54FF4006000F04FF801283ED10A2076
:10098000FFF7D1FF4FF400611D4800F04EF9A8BBFE
:10099000012202213220FFF74BFF1A4801681A4852
:1009A000006800F0C9FD00BF4FF40061144800F07A
:1009B0003CF90028F8D00A20FFF7B5FF00BF4FF43C
:1009C00000610F4800F031F90128F8D00A20FFF744
:1009D000AAFF4FF400610A4800F027F900BF002188
:1009E000074800F022F90028F9D101220221322023
:1009F000FFF71EFF4FF4006000F008F810BD000084
:100A0000000C014024000020200000200149086063
:100A10007047000014040140014600200022074BEB
:100A20001B6803EA0102054B14331B680B4013B12A
:100A30000AB1012000E000207047000000040140DE
:100A4000002123498279002A3AD00A4612680368B5
:100A50009A430B461A600A1D126803689A430B1DDD
:100A60001A60027911440A6803681A430A60184A36
:100A70000832126803689A43154B08331A601A1D2E
:100A8000126803689A43124B0C331A604279102A99
:100A90000ED11A1F126803681A430D4B08331A60EF
:100AA0001A1D126803681A43094B0C331A600DE0D3
:100AB0000749427911440A6803681A430A6005E04D
:100AC000027911440A6803689A430A60704700007B
:100AD0000004014030B500228B071C0F0F2303FADE
:100AE00004F20B4B8C1053F824309343084C8D10B8
:100AF00044F8253023468C1053F824308C07240FFB
:100B000000FA04F42343024C8D1044F8253030BD24
:100B1000080001402DE9F041024600250026002092
:100B200000230024002791F803C00CF00F0591F872
:100B300003C00CF0100CBCF1000F03D091F802C000
:100B40004CEA050591F800C0BCF1000F31D01468E3
:100B500000202BE04FF0010C0CFA00F3B1F800C0BC
:100B60000CEA03069E4220D183004FF00F0C0CFAD2
:100B700003F7BC4305FA03FC4CEA040491F803C0F4
:100B8000BCF1280F06D14FF0010C0CFA00FCC2F8A2
:100B900014C00AE091F803C0BCF1480F05D14FF032
:100BA000010C0CFA00FCC2F810C0401C0828D1D37C
:100BB0001460B1F800C0BCF1FF0F34DD54680020B0
:100BC0002EE000F1080C4FF0010808FA0CF3B1F820
:100BD00000C00CEA03069E4221D183004FF00F0CA7
:100BE0000CFA03F7BC4305FA03FC4CEA040491F841
:100BF00003C0BCF1280F05D100F1080C08FA0CF86D
:100C0000C2F8148091F803C0BCF1480F07D100F17D
:100C1000080C4FF0010808FA0CF8C2F81080401CCC
:100C20000828CED35460BDE8F081024600209368C6
:100C30000B400BB1012000E000207047416170477C
:100C4000016170470AB1016100E041617047000035
:100C50002DE9FC5F8146AEE05A48006838B95A4831
:100C6000006820B940F2EE21084600F065FC00F073
:100C7000C5F8564801685648006801F041F9044635
:100C8000142C0CDC002201214FF49670FFF7D0FDEC
:100C9000002201214FF4967000F074F98BE0B9F155
:100CA000000F24D13C2C22DD00F0A8F8002045499B
:100CB0000968CDE90010464803684648026846487E
:100CC00001684648006800F0FDFA834600203E496E
:100CD0000968CDE900103D48036841480268414871
:100CE00001684148006800F0EDFA824658E0B9F129
:100CF000010F28D100F082F832490968344A12689D
:100D0000881A00F0A9FC0190FFF723FB0746002298
:100D1000364BFFF7A3FA0546FFF745FB83462A4902
:100D200009682A4A1268881A00F096FC0190FFF7B9
:100D300010FB054600222D4BFFF790FA0746FFF700
:100D400032FB82462CE0B9F1000F29D13C2C27DC84
:100D500000F054F81B4909681D4A1268881A00F00F
:100D60007BFC0190FFF7F5FA0546214A214BFFF77E
:100D700075FA0746FFF717FB834613490968134ABC
:100D80001268881A00F068FC0190FFF7E2FA054645
:100D9000174A184BFFF762FA0746FFF704FB824633
:100DA000CBF1000000F064FC504600F0A1FC1420E0
:100DB00000F0C6FE00BF1048006800287FF44CAF6A
:100DC000BDE8FC9F6400002068000020A80000200F
:100DD000A400002078000020740000207000002093
:100DE00084000020800000207C0000200000E0BF84
:100DF0009A9999999999D9BF6C0000202C4800784C
:100E0000672853D12A48007A72284FD128480079A0
:100E100079284BD12648007B792847D1244840784F
:100E200030386421484322498978303901EB810107
:100E300000EB41001E49C978084430381D4908605C
:100E40001B48407930386421484319498979303941
:100E500001EB810100EB41001549C97908443038A4
:100E6000154908601248407A3038642148431049D7
:100E7000897A303901EB810100EB41000C49C97AD4
:100E8000084430380D4908600948407B30386421F7
:100E900048430749897B303901EB810100EB410070
:100EA0000349C97B08443038054908607047000091
:100EB000080100206400002068000020A400002039
:100EC000A800002000BFFEE71FB5FFF715FC0121B9
:100ED000082000F0B7FA0121084600F0B3FA4820D4
:100EE0008DF80F004FF46050ADF80C0003208DF822
:100EF0000E0003A91748FFF70DFE0B210120FFF795
:100F0000E9FD0C210120FFF7E5FD0D210120FFF790
:100F1000E1FD4FF46050019001208DF80A0000209F
:100F20008DF808000C208DF8090001A8FFF788FD56
:100F30004FF4A06000F0A2F828208DF800000120F6
:100F40008DF803008DF801008DF80200684600F06E
:100F50005DF81FBD000C014008B50121082000F01C
:100F600071FA4FF40040ADF8000010208DF8030036
:100F700003208DF8020069460148FFF7CBFD08BD4C
:100F8000000C01402DE9F04107460C461546CDB94D
:100F9000002600BF13E04FF400411948FFF750FE50
:100FA000384600F0CDFD4FF400411548FFF746FEEE
:100FB000701CA04202D0384600F0C2FD761CA6424A
:100FC000E9DB1BE0012D19D1002600BF13E04FF42F
:100FD00000410B48FFF734FE3846FFF7A4FC4FF4FE
:100FE00000410748FFF72AFE701CA04202D0384695
:100FF000FFF799FC761CA642E9DB00BFBDE8F08153
:10100000000C014000BFFEE77047000070B50021F2
:1010100000230F22C47804B3154C246804F4E06460
:10102000C4F5E064210AC1F10403CA40447804FA1B
:1010300003F184781440214309010E4C0678A15530
:10104000047804F01F050124AC4005786D11AD0053
:1010500005F1E025C5F8004109E0047804F01F051A
:101060000124AC40044D0678761145F8264070BD49
:101070000CED00E000E400E080E100E00249014303
:10108000024A1160704700000000FA050CED00E014
:1010900070B500240EE00021204600F0E0F80025A5
:1010A00004E0002000F0FCF8681CC5B2802DF8DBDD
:1010B000601CC4B2082CEEDB70BD000008B5012135
:1010C000042000F0BFF914208DF8030003208DF8F0
:1010D00002000120ADF8000069460A48FFF71AFD3A
:1010E0000220ADF8000069460648FFF713FD012213
:1010F00011460448FFF7A6FD012202210148FFF72F
:10110000A1FD08BD0008014070B50546002413E0AC
:101110008020204100EA050202210E48FFF792FDDF
:10112000012211460B48FFF78DFD002201210948DD
:10113000FFF788FD601CC4B2082CE9DB01221146D0
:101140000448FFF77FFD002201210248FFF77AFDE6
:1011500070BD00000008014010B5012202210948BD
:10116000FFF770FD012211460648FFF76BFD0022D4
:1011700002210448FFF766FD002201210148FFF724
:1011800061FD10BD0008014010B500220221074892
:10119000FFF758FD012211460448FFF753FD0122D5
:1011A00002210248FFF74EFD10BD0000000801407B
:1011B00070B5002406E0002500E06D1CB5F57A7FCF
:1011C000FBD3641CB4F57A7FF5D3FFF777FFAE202D
:1011D00000F056F8D52000F053F8802000F050F8C9
:1011E000A82000F04DF83F2000F04AF8D32000F08E
:1011F00047F8002000F044F8402000F041F8A1201A
:1012000000F03EF8C82000F03BF8DA2000F038F893
:10121000122000F035F8812000F032F8CF2000F0E5
:101220002FF8D92000F02CF8F12000F029F8DB206D
:1012300000F026F8302000F023F8A42000F020F879
:10124000A62000F01DF88D2000F01AF8142000F000
:1012500017F8AF2000F014F8FFF71AFF70BD70B553
:1012600005460C4645F0B00000F00AF8102141EAAE
:10127000141000F005F804F00F0000F001F870BD44
:1012800010B50446FFF768FF7820FFF73DFF002008
:10129000FFF73AFF2046FFF737FFFFF775FF10BD56
:1012A00010B50446FFF758FF7820FFF72DFF4020C8
:1012B000FFF72AFF2046FFF727FFFFF765FF10BD66
:1012C000704700002DE9FE4F80460C4615461E462D
:1012D000DDE90C974FF0000AA6EB0900FFF730F8A4
:1012E0002B4908602B48016829480068FEF77EFFFB
:1012F00028490860012F2DD108460168B807FEF77C
:101300007BFF0290224801680298FEF772FF834635
:10131000214801685846FEF717FF1F4908601D481D
:1013200001682846FEF768FF02901B4801682046C6
:10133000FEF762FF0190164801684046FEF75CFF29
:1013400000900199FEF700FF83460299FEF7FCFE2C
:10135000824610E07FB90F4801682846FEF74CFF2F
:1013600083460B4801684046FEF746FF5946029007
:10137000FEF7EAFE8246074800680749086004480D
:101380000068044908605046FEF7F4FFBDE8FE8F90
:10139000FC000020000100200401002010B5002204
:1013A00001214FF47A70FFF743FA002201214FF434
:1013B0007A70FFF7E7FD0020064908600120064922
:1013C0000860064908600649086006490860064941
:1013D000086010BDE8000020F0000020CC000020D4
:1013E00048000020F8000020F40000200146002002
:1013F000034A506820F440400843506070470000A2
:101400000010024029B1064A52690243044B5A6156
:1014100004E0034A52698243014B5A61704700005D
:101420000010024029B1064AD2690243044BDA6136
:1014300004E0034AD2698243014BDA61704700003D
:101440000010024029B1064A92690243044B9A6196
:1014500004E0034A92698243014B9A61704700009D
:101460000010024030B500210022002400232D4D41
:101470006D6805F00C0121B1042905D0082923D19C
:1014800005E0294D056022E0274D05601FE0254D50
:101490006D6805F47012234D6D6805F480340225E3
:1014A00005EB92421CB9214D554305600BE01D4DE3
:1014B0006D6805F400351DB11C4D5543056002E013
:1014C000194D5543056002E0174D056000BF00BF90
:1014D000144D6D6805F0F0010909154D6B5C056848
:1014E000DD4045600F4D6D6805F4E061090A104D5F
:1014F0006B5C4568DD4085600A4D6D6805F46051A0
:10150000C90A0B4D6B5C4568DD40C560054D6D68D3
:1015100005F44041890B074D6B5CC568B5FBF3F5DD
:10152000056130BD0010024000127A0000093D0044
:10153000000000201000002070B504460D46084849
:101540000460084805600648008881B2064800F03B
:101550006AFA0448008881B2034800F066FA70BD58
:101560002000002024000020002C0140704710B50E
:1015700000F002F810BD00000CB5002001900090B2
:101580003348006840F480303149086000BF30487B
:10159000006800F4003000900198401C0190009811
:1015A00018B90198B0F5A06FF1D12948006800F48E
:1015B000003010B10120009001E000200090009860
:1015C000012843D12348006840F0100021490860F9
:1015D0000846006820F0030008600846006840F0F4
:1015E000020008601A484068194948600846406887
:1015F00048600846406840F480604860084640689B
:1016000020F47C1048600846406840F4E8104860C8
:101610000846006840F08070086000BF0C48006811
:1016200000F000700028F9D00948406820F003005D
:10163000074948600846406840F00200486000BF23
:101640000348406800F00C000828F9D10CBD0000E8
:1016500000100240002002400146052901DD012062
:101660007047052902DA4FF0FF30F9E70020F7E76D
:1016700070B50446002C10DA1A4800682044B0F512
:10168000FA7F02DA4FF4FA7002E01648006820444C
:10169000144908601449086011E0002C0FDD11485E
:1016A00000682044B0F57A7F02DD4FF47A7002E0E2
:1016B0000C48006820440B4908600B490860094841
:1016C000008881B2094800F0AEF9032506E0681EE3
:1016D000054951F8200041F825006D1E002DF6DC6B
:1016E00070BD00002000002028000020002C0140D8
:1016F00070B50446002C10DA1A4800682044B0F592
:10170000FA7F02DA4FF4FA7002E0164800682044CB
:10171000144908601449086011E0002C0FDD1148DD
:1017200000682044B0F57A7F02DD4FF47A7002E061
:101730000C48006820440B4908600B4908600948C0
:10174000008881B2094800F070F9032506E0681EA0
:10175000054951F8200041F825006D1E002DF6DCEA
:1017600070BD00002400002038000020002C014043
:101770007047000010B51348006840F0010011499F
:10178000086008464068104908400E49486008460D
:1017900000680E4908400B4908600846006820F4BC
:1017A000802008600846406820F4FE0048604FF43E
:1017B0001F008860FFF7DBFE4FF0006004490860FF
:1017C00010BD0000001002400000FFF8FFFFF6FE11
:1017D00008ED00E030B589B005460C460121C8028D
:1017E000FFF730FE01210420FFF72CFE4FF41060BC
:1017F000ADF8200018208DF8230003208DF822007A
:1018000008A91F48FFF786F905A800F063F9ADF8AD
:101810001850ADF814400020ADF81A00ADF81600CD
:1018200005A9184800F004F97020ADF80400012063
:10183000ADF8060040F2EE20ADF80A000220ADF847
:101840000C0001A90F4800F04DF801A90D4800F067
:101850009FF801210B4800F02FF80821094800F0FB
:101860008DF80821074800F0D1F80121054800F063
:101870000BF80121034800F013F809B030BD000057
:1018800000080140002C014021B1028842F0800292
:10189000028004E002884FF67F731A40028070478E
:1018A00021B1028842F00102028004E002884FF672
:1018B000FE731A400280704731B1B0F8442042F400
:1018C0000042A0F8442005E0B0F84420C2F30E0224
:1018D000A0F84420704701894FF6F8721140018149
:1018E0007047000070B5002400220023058C4FF6DD
:1018F000FE7635400584028C8388048B4FF68F7505
:101900002C40B51E2C400D882C43751E2A400D8995
:101910002A434D882A43144DA8420BD0134DA842A8
:1019200008D0134DA84205D0124DA84202D0124D46
:10193000A84213D14FF6F7752A404D892A434FF636
:10194000FB752A408D882A434FF6FF652B404FF6E2
:10195000FF552B408D892B43CD892B4383800483F6
:10196000CD888586028470BD002C01400034014082
:101970000040014000440140004801400A46002167
:10198000018B4FF6F7731940114301837047000034
:1019900070B5002200230024058C4EF6FF763540FA
:1019A0000584038C8488828B48F6FF752A404FF6A5
:1019B000FF452A400D884FF6FF7606EA05252A43A3
:1019C0004DF6FF752B400D8906EA05352B434D88F2
:1019D00006EA05352B430B4DA84202D00A4DA8421A
:1019E00008D14BF6FF752C408D894FF6FF7606EA3D
:1019F00085152C4384808283CD88A0F840500384D1
:101A000070BD0000002C0140003401400A46002156
:101A1000818B4FF2FF7319404FF6FF7303EA0223E5
:101A200019438183704781867047A0F84010704742
:101A3000002202881D4B98420ED01D4B98420BD0BD
:101A4000B0F1804F08D01B4B984205D01A4B9842FA
:101A500002D01A4B984204D14FF68F731A404B882C
:101A60001A43174B984207D0164B984204D04FF6B2
:101A7000FF431A40CB881A4302808B8883850B88EA
:101A800003850A4B98420BD0094B984208D00E4B65
:101A9000984205D00D4B984202D00D4B984201D18F
:101AA0000B7A03860123838270470000002C0140DB
:101AB000003401400004004000080040000C0040D9
:101AC000001000400014004000400140004401406C
:101AD000004801404FF6FF71818000210180C180E4
:101AE00041800172704700000EB501210846FFF7E2
:101AF00099FC01210220FFF795FC4FF08040FFF791
:101B0000EAFE0E48FFF7E7FE0020ADF80600ADF84C
:101B100002004EF65F20ADF804004720ADF800004B
:101B200000208DF8080069464FF08040FFF780FFE5
:101B300069460248FFF77CFF0EBD0000000400402C
:101B400070B50446002500BF04E04FF47A7000F041
:101B500004F86D1CA542F8DB70BD10B504460121E8
:101B60008807FFF79DFE00BF4FF08040808CA042A9
:101B7000FADB00204FF08041888400214FF0804044
:101B8000FFF78EFE10BD000010B540F22551204831
:101B900000F0B1F8012839D11D4800F067F91D495E
:101BA00008701D48008898B90846007823280BD192
:101BB0001A48008840B90120184908801649088051
:101BC00000201749088021E00020144908801DE00A
:101BD00011480088012819D10E48007824280BD11B
:101BE00000200D49088001200E49088000200E4980
:101BF0000B4A1288885409E0064801780848028890
:101C00000088401C064B18800748815410BD000016
:101C100000380140AE000020B2000020B6000020D5
:101C2000B4000020B00000200801002010B52021E1
:101C30001E4800F053F8012836D11C4800F016F970
:101C40001B4908701B48008850B908460078FF28D7
:101C50002AD101201749088000201749088023E075
:101C600014480088012811D11148017812480288CF
:101C70000088401C104B188010488154184600887A
:101C8000012811DB02200B4908800DE0094800887B
:101C9000022809D106480078FE2805D10020054910
:101CA000088001200649088010BD00000044004063
:101CB000150000201A0000201C0000201700002042
:101CC0001800002021B1828942F40052828104E090
:101CD00082894DF6FF731A408281704702460020C8
:101CE000B1F5007F00D100BF13880B400BB101207C
:101CF00000E00020704770B5024600240023002554
:101D0000002040F66A16B14200D100BFC1F342156F
:101D100001F01F03012606FA03F3012D02D1968973
:101D2000334006E0022D02D1168A334001E0968A44
:101D300033400C12012606FA04F41688344013B11D
:101D40000CB1012000E0002070BDF0B50346002476
:101D500000260025002040F66A17B94200D100BFD6
:101D60001846C1F3421401F01F06012707FA06F5D1
:101D7000012C01D10C3004E0022C01D1103000E024
:101D800014301AB107682F43076002E00768AF43B9
:101D90000760F0BD2DE9F04786B005460E460024E9
:101DA000A24600BFA1460027B08900B100BF2F4660
:101DB0002C8A4CF6FF700440F08804432C82AC89D6
:101DC0004EF6F3100440B088318908437189084306
:101DD0000443AC81AC8A4FF6FF400440B089044311
:101DE000AC8201A8FFF73EFB1F48874202D1DDF815
:101DF00010A001E0DDF80CA0A88900F4004040B17B
:101E00000AEBCA0000EB0A1031684900B0FBF1F898
:101E100007E00AEBCA0000EB0A1031688900B0FB4A
:101E2000F1F86420B8FBF0F004012009642101FB03
:101E30001089A88900F4004040B1322000EBC900AD
:101E4000B0FBF1F000F00700044308E0322000EBA3
:101E500009106421B0FBF1F000F00F0004432C8165
:101E600006B0BDE8F08700000038014001468888D0
:101E7000C0F30800704700BFFEE702E008C8121F69
:101E800008C1002AFAD170477047002001E001C163
:101E9000121F002AFBD17047FFF726FEFFF788F9D3
:101EA000FEF7B0FCFFF758F88F2142F20F70FFF7F2
:101EB00091FC40F2EE210D48FFF7B5FD40F2EE2116
:101EC0000A48FFF7B2FD4FF4E13000F02DF8FEF7BD
:101ED000FBFF0AE0FFF762FA40F6B830FFF730FE8A
:101EE00002E00020FEF7B4FEFBE7F3E7002C014020
:101EF0000246501A002801DD501A7047881AFCE784
:101F000030B504460B46064801682046FFF7F0FF4F
:101F10000546044801681846FFF7EAFF284430BD2B
:101F2000640000206800002010B586B0044601213E
:101F300044F20400FFF786FA4FF40070ADF8140085
:101F400003208DF8160018208DF8170005A91D48EC
:101F5000FEF7E0FD4FF48060ADF8140004208DF82A
:101F6000170005A91748FEF7D5FD25208DF80000BC
:101F700003208DF801008DF8020001208DF8030088
:101F80006846FFF743F801940020ADF80800ADF86B
:101F90000A00ADF80C00ADF810000C20ADF80E00F2
:101FA00001A90948FFF7F6FE012240F22551064833
:101FB000FFF7CBFE01210448FFF784FEFEF77AFC11
:101FC00006B010BD0008014000380140EC1F0008B9
:101FD00000000020080100007A1E0008F42000081C
:101FE00008010020000500008A1E00080000000013
:101FF000010203040102030406070809020406089B
:10200000000000000000000000000000EE020000E0
:10201000EE020000EE020000EE020000EE02000000
:10202000EE020000FB020000FB020000FB020000C9
:10203000FB020000010000006801000068010000D0
:102040000A0000000A000000C6020000C6020000EC
:102050006801000068010000010000008FC2F53C2B
:102060000AD7233C0AD7A33B8FC2F53C0AD7233CAF
:102070000AD7A33B000000000000000001000000A0
:102080000000000000000000000000000000000050
:102090000000000000000000000000000000000040
:1020A0000000000000000000000000000000000030
:1020B000AA000000AB000000010000008FC2F53C48
:1020C000000000006F12833A8FC2F53C0000000050
:1020D0006F12833A000000000000000001000000C1
:1020E00001000000010000000000000000000000EE
:0420F00000000000EC
:04000005080000ED02
:00000001FF
