:020000040800F2
:10000000B80600200101000895150008C510000879
:10001000911500082B0C0008BF1F0008000000000D
:10002000000000000000000000000000911900081E
:10003000650E0008000000001D160008ED1A0008FB
:100040001B0100081B0100081B0100081B01000820
:100050001B0100081B0100081B0100081B01000810
:100060001B0100081B010008690E00081B010008A5
:100070001B0100081B0100081B0100081B010008F0
:100080001B0100081B0100081B0100081B010008E0
:100090001B0100081B0100081B0100081B010008D0
:1000A0001B0100081B0100081B0100081B010008C0
:1000B000AD1B00081B0100081B0100081B01000804
:1000C0001B0100081B0100081B0100081B010008A0
:1000D0001B010008D51C00086D1D00081B0100084D
:1000E0001B0100081B0100081B010008DFF80CD0F1
:1000F00000F09EFC0048004751450008B80600206B
:100100000648804706480047FEE7FEE7FEE7FEE7B1
:10011000FEE7FEE7FEE7FEE7FEE7FEE7F11A00086E
:10012000ED0000082DE9F0410024061B254671F181
:10013000000605DA01240027D0EB070067EB010178
:10014000161E73F1000605DA0027D2EB070201251F
:1001500067EB030300F0D0FA86460E4617469C462E
:10016000AC4204D00025D0EB050E65EB010624B1AE
:100170000020D2EB000760EB030C704631463A4694
:100180006346BDE8F08140EA01039B0703D009E024
:1001900008C9121F08C0042AFAD203E011F8013B73
:1001A00000F8013B521EF9D27047D2B201E000F8CC
:1001B000012B491EFBD270470022F6E710B513460B
:1001C0000A4604461946FFF7F0FF204610BD30B539
:1001D00005462A460B4612F8010B13F8014B08B1ED
:1001E000A042F8D01CB1002802D06D1CF1E72846CF
:1001F00030BD30B504460020034600E05B1C93424E
:1002000003D2E05CCD5C401BF8D030BDF0B480EA96
:100210000102D40F4200B2EB410F02D2024608465F
:1002200011464A0042D0C30DDDB2C1F3C752AD1A28
:10023000202D35DAC1F3160141F4000204B1524217
:10024000C5F1200602FA06F12A411044B3EBD05F53
:1002500023D0C4B1012DA0EBC35009DCF0BC4FF09A
:10026000004202EAC352DBB200F5000000F09FBA80
:10027000400000F1807000EBC350A0F1807040EAB4
:10028000D170490009E0490841EAC071A0EBC350B0
:1002900000F50000400800EBC350F0BC00F07EBA4F
:1002A0006142012202EB4101001BF6E7F0BC7047FE
:1002B00081F00041AAE780F00040A7E780EA010250
:1002C00010B502F00043400022D04A001FD0010EBA
:1002D00001EB1261C0F35600C2F3560240F4000075
:1002E00042F40002A0FB022000047F39140400D075
:1002F000401C50EA124001D44000491EC2B20C0614
:1003000004EBD010401C4008802A02D003E00020FB
:1003100010BD20F00100002900DA0020184310BDB4
:1003200030B480EA010202F0004530F0004221F0D2
:10033000004013D090B1C30DD40DC2F31601C0F329
:100340001600E41A41F4000140F400027D349142A9
:1003500001D3641C00E04900002C02DA30BC00200C
:1003600070474FF400000023914201D3891A0343E0
:1003700040084FEA4101F7D151B1914202D14FF00B
:10038000004105E002D24FF0010101E06FF00101F0
:1003900003EBC450284430BC00F000BA2DE9FE4FF6
:1003A000804681EA0300C00F0C46009021F0004116
:1003B00023F00045B8EB0200A94105D24046214692
:1003C00090461C460B46024623F00040104347D09F
:1003D000270DC7F30A00C3F30A510290401A019097
:1003E00040286BDAC3F3130040F4801B0098924658
:1003F00020B10023D2EB030A63EB0B0B01985946A3
:10040000C0F14002504600F0A8F906460D4650469D
:100410005946019A00F0B0F910EB08006141002440
:1004200087EA115284EAE7731A4340D0009A62B314
:10043000019A012A4FEA075215DC001B61EB020109
:100440004FF0004202EA0752CDE90042001C41F59C
:10045000801132462B4600F0E7F903B0BDE8F08F7B
:1004600040462146F9E7001B61EB0201001C41F503
:10047000801300185B412018A2F5001747EB030119
:1004800040EAD570B6196D4111E06D084FEA3606A5
:1004900045EAC0754FEA0752001B61EB0201001CE0
:1004A00041F5801149084FEA3000001951413246A8
:1004B0002B4603B0BDE8F04F00F0A7B90098012229
:1004C00040000023D0EB020263EBE073009821466A
:1004D0004FEAE074B8EB000061EB0401E9E783F058
:1004E00000435BE781F0004158E72DE9FE4F81EAC8
:1004F000030404F0004421F0004100944FF0000B8D
:1005000023F0004350EA01045ED052EA03045BD0BA
:10051000C3F30A54C1F30A552C44A4F2F3340194F2
:10052000A0FB0254C1F3130141F48011C3F3130380
:1005300043F4801301FB024400FB034E840A970A34
:1005400044EA815447EA8357A4FB076802958D0A61
:1005500005FB07854FEA932C04FB0C542705029DED
:100560004FEA065847EA1637B5EB08056EEB070C5D
:10057000870E920E47EA811742EA8312A7FB020117
:10058000B6EB0B0164EB00042B0D43EA0C335E1851
:1005900044EB1C50DA465146E7FB0201C5F3130455
:1005A0004FEA0B3343EA14534FEA0432019C43EA07
:1005B0000603A4F10C040294009CCDE900B400F001
:1005C00033F903B0BDE8F08F00200146F9E7C10F11
:1005D00080EAE0700844CA079623002100F0E7B8DB
:1005E00096230022114600F0E2B800F0004220F00D
:1005F0000040C10DC0F3160040F400007F2901DA6D
:1006000000207047962903DCC1F19601C84001E043
:1006100096398840002AF4D04042704720F00040CC
:10062000C10DC0F3160040F400007F2901DA00205C
:100630007047962903DCC1F19601C840704796398E
:100640008840704700F0004230F000400AD0C10DF1
:1006500001F56071C0F3160042EA0151C20840077B
:100660001143704700200146704701F0004330B449
:1006700021F0004150EA010206D00A0DA2F5607295
:10068000C1F31301002A02DC30BC00207047440F84
:1006900044EAC104C100E01830BC00EBC25000F0D5
:1006A0007DB80000002801DBC0F10040002901DB1B
:1006B000C1F1004181427047002801DBC0F10040D8
:1006C000002901DBC1F100418842704730B50B467B
:1006D000014600202022012409E021FA02F59D4272
:1006E00005D303FA02F5491B04FA02F52844151E46
:1006F000A2F10102F1DC30BD2DE9F05F05460020DA
:1007000092469B4688460646814640241BE0284682
:1007100041464746224600F09DF953465A46C01AC4
:10072000914110D311461846224600F016F82D1AB2
:1007300067EB01084F4622460120002100F00DF82A
:1007400017EB00094E41201EA4F10104DFDC4846EE
:1007500031462A464346BDE8F09F202A04DB203A72
:1007600000FA02F1002070479140C2F1200320FA04
:1007700003F3194390407047202A06DBCB17203A39
:1007800041FA02F043EAE07306E041FA02F3D04096
:10079000C2F1200291400843194670470029A8BFC2
:1007A0007047401C490008BF20F00100704710B49A
:1007B000B0FA80FC00FA0CF050EA010404BF10BC4F
:1007C000704749B1CCF1200421FA04F411FA0CF17C
:1007D00018BF012121430843A3EB0C01CB1D4FEAB5
:1007E00000614FEA102042BF002010BC704700EBB0
:1007F000C35010440029A4BF10BC7047401C4900DE
:1008000008BF20F0010010BC704710B5141E73F132
:10081000000408DA401C41F1000192185B411A43C0
:1008200001D120F0010010BD2DE9F04D92469B460C
:1008300011B1B1FA81F202E0B0FA80F220329046B2
:10084000FFF78BFF04460F4640EA0A0041EA0B011E
:1008500053465A46084313D0114653EA010019D0B3
:10086000C8F14002504600F0F5F805460E465046E5
:1008700059464246FFF771FF084305D0012004E0C6
:1008800020463946BDE8F08D0020054346EAE07673
:100890002C4337430A986305E40AA0EB08000022C2
:1008A000FD0A44EA47540A3002D500200146E9E730
:1008B000010510196941DDE9084500196941BDE8E4
:1008C000F04DA2E72DE9F04D81EA030404F0004B5E
:1008D00021F0004514464FF0000A23F0004150EA91
:1008E000050220D054EA01021DD0C5F30A57024682
:1008F000C5F31303C1F31300C1F30A5640F4801586
:1009000043F48013A7EB0608101BD64608F2FD3807
:1009100073EB050002D308F1010801E092185B4176
:10092000B8F1000F03DA00200146BDE8F08D002089
:100930004FF48011064684460EE0171B73EB050743
:1009400005D3121B63EB050306434CEA010C49086F
:100950004FEA300092185B4150EA0107EDD152EAAC
:10096000030012D082EA040083EA0501084305D09F
:10097000101BAB4106D20122002306E000224FF0FB
:10098000004302E06FF0010253101AEB06004CEB3B
:10099000085110EB0A0041EB0B01BDE8F04DFFF7E9
:1009A00034BF70B521F0004303430CD0C1F30A55A6
:1009B0000024D5EB040564EB0403D617AD1AB3414C
:1009C00002DB0020014670BD201841EB025170BDD2
:1009D000C1F30A52C1F3130140F2FF3341F4801115
:1009E0009A4202DA00200146704740F233439A42AD
:1009F000A2F2334202DC524200F02CB8FFF7ADBE47
:100A000030B5041E71F1000404DB4FF00044404295
:100A100064EB0101141E73F1000405DB1C464FF06A
:100A20000043524263EB0403994208BF904230BD39
:100A3000064C074D06E0E06840F0010394E807002B
:100A400098471034AC42F6D3FFF754FB006A000815
:100A5000206A0008202A04DB203A21FA02F0002153
:100A6000704721FA02F3D040C2F1200291400843BE
:100A7000194670472DE9F04D00231A461B1A8A418A
:100A800003DB00200146BDE8F08DC1F30A52C1F33B
:100A9000130141F480154FF0000BD10702D100186B
:100AA0006D41521E0027044640F2FF11384601EB0B
:100AB000620A3E468046024600204FF48011FFF74E
:100AC000C9FFC2197141BB1846EB0100B4EB030C1E
:100AD00075EB000C04D3E41A65EB000517460E46CF
:100AE000241908F101006D4180463428E3DDF9192D
:100AF00046EB0600091BA84103D24FF0FF32134614
:100B000001E0002213461BEB070046EB0A51BDE84B
:100B1000F04DFFF77ABE0000F0B587B007460C46EF
:100B200015461E460121480400F07AFD01210420EB
:100B300000F086FD18208DF81B000420ADF8180089
:100B400003208DF81A0006A91E4800F01FFA48205D
:100B50008DF817000820ADF8140003208DF816005A
:100B600005A9184800F012FA01970020ADF810000E
:100B70000C20ADF80E00ADF80C40ADF80A50ADF801
:100B8000086001A9104801F0A5F9012240F22551A1
:100B90000D4801F07AF94FF4A06000F035FD2620F1
:100BA0008DF8000001208DF802008DF801008DF80D
:100BB0000300684600F0F0FC0121034801F022F92F
:100BC00007B0F0BD000801400044004010B50446E5
:100BD0002146054801F0EFF900BF8021024801F0ED
:100BE0001DF90028F9D010BD004400400FB400B535
:100BF0009BB01DA8019002A8019A1C9901F0F2F97E
:100C00000020019002A800F003F81BB05DF814FB6F
:100C100070B50446002504E0605DFFF7D7FF681C4F
:100C200085B2605D0028F7D170BD00BFFEE700000F
:100C300010B5C8210348FFF7BFFA00200249088019
:100C400010BD0000EA0100208600002038B5002019
:100C500000906B4601227521682003F0D3FB2EA083
:100C6000FFF7C4FF9DF8000068280ED000BF33488E
:100C7000006800F4E06032490843001D2F49086015
:100C8000BFF34F8F00BF00BFFEE703F003FE03F08A
:100C900001FE00283FD1782004F006FC10B91EA008
:100CA000FFF7A4FF782003F0E3FC10B925A0FFF7BD
:100CB0009DFFC82004F0AAFB10B92CA0FFF796FFF7
:100CC00002F00CFC10B933A0FFF790FF3E4803F090
:100CD00004FC044602F05CFE10B93CA0FFF786FF5E
:100CE00040F2731002F0A2FA10B942A0FFF77EFFA3
:100CF000C82002F07DFD10B948A0FFF777FF04F08F
:100D0000EDFE012004F07EFA012004F07BFA10B918
:100D10004BA0FFF76BFF38BD6D70755F7365745F37
:100D200073656E736F7220636F6D706C6574652090
:100D30002E2E2E2E2E2E0D0A000000000CED00E0AF
:100D40000000FA056D70755F636F6E666967757296
:100D5000655F6669666F20636F6D706C6574652092
:100D60002E2E2E2E2E2E0D0A000000006D70755FA7
:100D70007365745F73616D706C655F72617465201B
:100D8000636F6D706C657465202E2E2E2E2E2E0DC9
:100D90000A000000646D705F6C6F61645F6D6F745A
:100DA000696F6E5F6472697665725F6669726D778E
:100DB00061726520636F6D706C657465202E2E2ED8
:100DC0002E2E2E0D0A0000003C000020646D705F86
:100DD0007365745F6F7269656E746174696F6E209C
:100DE000636F6D706C657465202E2E2E2E2E2E0D69
:100DF0000A000000646D705F656E61626C655F661D
:100E000065617475726520636F6D706C65746520C3
:100E10002E2E2E2E2E2E0D0A00000000646D705F07
:100E20007365745F6669666F5F7261746520636F76
:100E30006D706C657465202E2E2E2E2E2E0D0A00E0
:100E40006D70755F7365745F646D705F73746174EA
:100E50006520636F6D706C657465202E2E2E2E2EAE
:100E60002E0D0A007047000010B5102000F018F891
:100E7000012805D103A0FFF7B9FE102000F00AF801
:100E800010BD0000415454454E54494F4E210D0AA7
:100E90000000000001490860704700001404014090
:100EA00001460020034A12680A400AB1012000E00E
:100EB0000020704714040140002123498279002A50
:100EC0003AD00A46126803689A430B461A600A1D14
:100ED000126803689A430B1D1A60027911440A686C
:100EE00003681A430A60184A0832126803689A4372
:100EF000154B08331A601A1D126803689A43124B87
:100F00000C331A604279102A0ED11A1F1268036836
:100F10001A430D4B08331A601A1D126803681A43EE
:100F2000094B0C331A600DE00749427911440A68F5
:100F300003681A430A6005E0027911440A680368ED
:100F40009A430A60704700000004014030B5002257
:100F50008B071C0F0F2303FA04F20B4B8C1053F872
:100F600024309343084C8D1044F8253023468C10D0
:100F700053F824308C07240F00FA04F42343024C66
:100F80008D1044F8253030BD080001402DE9F041B6
:100F9000024600250026002000230024002791F8A7
:100FA00003C00CF00F0591F803C00CF0100CBCF15D
:100FB000000F03D091F802C04CEA050591F800C07B
:100FC000BCF1000F31D0146800202BE04FF0010C71
:100FD0000CFA00F3B1F800C00CEA03069E4220D1DF
:100FE00083004FF00F0C0CFA03F7BC4305FA03FC27
:100FF0004CEA040491F803C0BCF1280F06D14FF06D
:10100000010C0CFA00FCC2F814C00AE091F803C00D
:10101000BCF1480F05D14FF0010C0CFA00FCC2F8EE
:1010200010C0401C0828D1D31460B1F800C0BCF136
:10103000FF0F34DD546800202EE000F1080C4FF063
:10104000010808FA0CF3B1F800C00CEA03069E424E
:1010500021D183004FF00F0C0CFA03F7BC4305FAC3
:1010600003FC4CEA040491F803C0BCF1280F05D13D
:1010700000F1080C08FA0CF8C2F8148091F803C0CB
:10108000BCF1480F07D100F1080C4FF0010808FA35
:101090000CF8C2F81080401C0828CED35460BDE87C
:1010A000F08101617047000005480088012804D1E3
:1010B000002003490880012070470020FCE7000061
:1010C0001600002000BFFEE770B505460E4600245E
:1010D00000F0F8F8284600F0BDF8641C00F04AF96A
:1010E000304600F0B7F8641C00F044F900F0EAF86C
:1010F000691CC8B200F0AEF8641C00F03BF9002097
:1011000000F072F8044600F011F9204670BD0000AE
:1011100010B500200E4908600E48006820F07040AD
:101120000C4908600846006840F040500860002004
:101130000949C1F89C0100F011F801200449086038
:1011400000F00CF800200449C1F8980110BD00001F
:1011500098812142000C01400080214210B50220FC
:1011600002F02EF810BD000008B50121082000F0A3
:1011700067FAC020ADF8000010208DF803000320AE
:101180008DF8020069460448FFF700FFC0210248BD
:10119000FFF787FF08BD0000000C014010B50020DC
:1011A0000E4908600E48006820F070400C49086045
:1011B0000846006840F04050086001200949C1F825
:1011C0009C01FFF7CBFF012004490860FFF7C6FF31
:1011D00000200449C1F8980110BD00009881214207
:1011E000000C01400080214270B5054600241648DD
:1011F000006820F07040144908600846006840F01C
:1012000000400860002614E0002010490860FFF745
:10121000A5FF01200E49C1F898016006040E0B4895
:101220007C38006808B1601CC4B2FFF797FF701CDF
:10123000C6B2082EE8DB15B9FFF7B0FF01E0FFF7F3
:1012400067FF204670BD0000000C014098812142DC
:101250000080214270B504461748006820F07040B5
:10126000154908600846006840F0405008600020BA
:101270001249086000251BE0E00920B101200F4958
:10128000091D086003E000200C49091D0860600684
:10129000040EFFF763FF012008490860FFF75EFFB7
:1012A00000200749C1F89801FFF758FF681CC5B234
:1012B000082DE1DB70BD0000000C01409881214247
:1012C0000080214210B51648006820F07040144993
:1012D00008600846006840F040500860012011494D
:1012E00008601148D0F81C0108B9002010BD012089
:1012F0000C49091F0860FFF731FF00200A49C1F8B7
:101300009C0108488038006808B10020EEE7FFF72C
:1013100025FF00200349091F08600120E6E70000BF
:10132000000C01409C8121420080214210B50E48F2
:10133000006820F070400C4908600846006840F0E2
:10134000405008600020094908600949C1F89C0123
:10135000FFF704FF0120054908600549C1F89C0119
:10136000FFF7FCFE10BD0000000C014098812142F7
:101370000080214210B500241548006820F070401C
:10138000134908600846006840F0004008600120EA
:1013900010490860FFF7E2FE01200F49C1F89801EB
:1013A000FFF7DCFE09E0601CC4B2642C03DDFFF72C
:1013B000BDFF002010BDFFF7D1FE06488038006851
:1013C0000028F0D10349091F08600120F2E700005E
:1013D000000C01409C8121420080214270B50546ED
:1013E0000E46144631462846FFF76EFE2070012057
:1013F00070BDF8B506460F4614461D466A46394686
:101400003046FFF7EBFF2DB10120A0409DF8001002
:10141000084305E00120A0409DF8001021EA0000EB
:10142000C0B200909DF800203946304600F036F8F2
:10143000F8BD2DE9F8430746884614461D46089E28
:101440006A4641463846FFF7C9FF28B3601CFF21B2
:1014500001FA00F0C4F108012944491EFF220A41A3
:10146000104300F0FF09C5F1080006FA00F0C6B20B
:10147000C4F1070006419DF8000000EA0900009051
:101480009DF80000304300909DF80020414638460A
:1014900000F004F8BDE8F8830020FBE737B5044608
:1014A0000D4602AB01222946204600F001F83EBD60
:1014B0002DE9F04180460D4616461F460024FFF7F1
:1014C00001FF4046FFF7C6FEFFF754FF2846FFF72F
:1014D000C1FEFFF74FFF00BF06E0385DFFF7BAFE21
:1014E000FFF748FF601CC4B2B442F6DBFFF71EFFF3
:1014F0000120BDE8F08110B5022000F010F80320B3
:1015000000F021F8002000F014F8002000F037F877
:10151000002000F02BF8002000F01FF810BD38B5B7
:101520000446032302226B21D0200094FFF781FFA1
:1015300038BD38B50446022304221C21D020009473
:10154000FFF777FF38BD38B50446022304221B217C
:10155000D0200094FFF76DFF38BD10B50446234638
:1015600001223721D020FFF744FF10BD10B50446FB
:10157000234605226A21D020FFF73BFF10BD10B59E
:101580000446234606226B21D020FFF732FF10BD10
:1015900000BFFEE77047000070B5002100230F2256
:1015A000C47804B3154C246804F4E064C4F5E06422
:1015B000210AC1F10403CA40447804FA03F1847893
:1015C0001440214309010E4C0678A155047804F01B
:1015D0001F050124AC4005786D11AD0005F1E02533
:1015E000C5F8004109E0047804F01F050124AC406F
:1015F000044D0678761145F8264070BD0CED00E0EC
:1016000000E400E080E100E002490143024A116089
:10161000704700000000FA050CED00E07047000084
:1016200029B1064AD2690243044BDA6104E0034A55
:10163000D2698243014BDA6170470000001002401A
:1016400029B1064A92690243044B9A6104E0034AB5
:1016500092698243014B9A6170470000001002407A
:1016600030B500210022002400232D4D6D6805F0C7
:101670000C0121B1042905D0082923D105E0294D09
:10168000056022E0274D05601FE0254D6D6805F4DB
:101690007012234D6D6805F48034022505EB9242EB
:1016A0001CB9214D554305600BE01D4D6D6805F4D7
:1016B00000351DB11C4D5543056002E0194D5543E1
:1016C000056002E0174D056000BF00BF144D6D6856
:1016D00005F0F0010909154D6B5C0568DD404560BA
:1016E0000F4D6D6805F4E061090A104D6B5C4568AB
:1016F000DD4085600A4D6D6805F46051C90A0B4DE7
:101700006B5C4568DD40C560054D6D6805F4404182
:10171000890B074D6B5CC568B5FBF3F5056130BD02
:101720000010024000127A0000093D000000002075
:10173000100000202DE9F04F91B0044689469246F2
:101740000EA88B490FAB0AAACDE9001089498A4837
:1017500001F0D0FE8648008800F4807000287DD01B
:101760000A98FEF734FF05464FF09D41FEF7D8FD7D
:10177000824908600B98FEF72AFF05464FF09D410D
:10178000FEF7CEFD7E4908600C98FEF720FF054667
:101790004FF09D41FEF7C4FD7A4908600D98FEF7B1
:1017A00016FF05464FF09D41FEF7BAFD76490860E9
:1017B000724801684FF08040FEF780FD0590714847
:1017C00001680598FEF77AFD83466D4801684FF081
:1017D0004040FEF773FD05906B4801680598FEF7E1
:1017E0006DFD59460690FEF711FD0790FEF72AFFA2
:1017F000CDE9080101F04CF907464FF06632634B22
:10180000FEF773FE0546FEF730FF20605D48016875
:101810004FF08040FEF752FD02905A48016802984E
:10182000FEF74CFD8346564801684FF04040FEF7F6
:1018300045FD0290524801680298FEF73FFD594667
:101840000390FEF735FD80464FF07E51FEF7DEFC3B
:101850000746FEF7F7FECDE9060100E084E04748C1
:1018600001684FF08040FEF729FD0390444801686D
:101870000398FEF723FD8046424801684FF0804000
:10188000FEF71CFD0390404801680398FEF716FD23
:1018900083464146FEF7BAFC0746FEF7D3FECDE984
:1018A0000401DDE9062301F03BFB4FF06632374BC4
:1018B000CDE90801FEF719FE0546FEF7D6FEC9F888
:1018C0000000314801680068FEF7F8FC04902D48DC
:1018D00001680068FEF7F2FC029029480168006880
:1018E000FEF7ECFC0190254801680068FEF7E6FC75
:1018F00000900199FEF78AFC83460299FEF7D8FC16
:1019000003900499FEF7D4FC0590FEF79BFE054674
:101910000E461D48016819480068FEF7CFFC049088
:101920001848016816480068FEF7C8FC039004993F
:10193000FEF76CFC4FF080410590FEF7BFFC83463C
:10194000FEF780FE2A463346CDE9060101F0E8FAAB
:101950004FF066320D4BCDE90801FEF7C6FD074694
:10196000FEF783FECAF8000011B0BDE8F08F00005A
:1019700028000020220000201C0000202C00002055
:1019800030000020340000203800002066A64C40C3
:10199000704710B500F002F810BD00000CB5002033
:1019A000019000903348006840F48030314908606D
:1019B00000BF3048006800F4003000900198401CDF
:1019C0000190009818B90198B0F5A06FF1D129489D
:1019D000006800F4003010B10120009001E0002008
:1019E00000900098012843D12348006840F010007F
:1019F000214908600846006820F003000860084696
:101A0000006840F0020008601A48406819494860C0
:101A10000846406848600846406840F48060486076
:101A20000846406820F47C1048600846406840F44E
:101A3000E81048600846006840F08070086000BF09
:101A40000C48006800F000700028F9D00948406890
:101A500020F00300074948600846406840F0020053
:101A6000486000BF0348406800F00C000828F9D126
:101A70000CBD000000100240002002401FB50121F3
:101A80000420FFF7DDFD28208DF80F001020ADF8B1
:101A90000C0003208DF80E0003A91348FFF776FA17
:101AA00004210020FFF752FA1020019000208DF849
:101AB000080008208DF8090001208DF80A0001A80F
:101AC000FFF7FAF94FF4A060FFF79EFD0A208DF8AA
:101AD000000001208DF802008DF801008DF8030050
:101AE0006846FFF759FD1FBD000801407047000020
:101AF00010B51348006840F001001149086008461D
:101B00004068104908400E494860084600680E4980
:101B100008400B4908600846006820F480200860EF
:101B20000846406820F4FE0048604FF41F008860BB
:101B3000FFF72FFF4FF000600449086010BD000060
:101B4000001002400000FFF8FFFFF6FE08ED00E085
:101B50007FB505460C4601210846FFF761FDADF84B
:101B60000850ADF804400020ADF80A00ADF80600BA
:101B700001A94FF0804000F05BF801224121880765
:101B800000F04CF80121880700F02BF81C208DF89C
:101B9000000000208DF8010003208DF802000120D4
:101BA0008DF803006846FFF7F7FC7FBD10B50121F3
:101BB000880700F022F8012804D1054A05490648A3
:101BC000FFF7B8FD0121880700F008F810BD0000FC
:101BD000800000207C00002078000020CA430282A0
:101BE000704721B1028842F00102028004E00288BD
:101BF0004FF6FE731A400280704730B5024600204F
:101C000000230024158A05EA0103958905EA0104E9
:101C100013B10CB1012000E0002030BD1AB183895E
:101C20000B43838102E083898B43838170470000EB
:101C3000002202881D4B98420ED01D4B98420BD0BB
:101C4000B0F1804F08D01B4B984205D01A4B9842F8
:101C500002D01A4B984204D14FF68F731A404B882A
:101C60001A43174B984207D0164B984204D04FF6B0
:101C7000FF431A40CB881A4302808B8883850B88E8
:101C800003850A4B98420BD0094B984208D00E4B63
:101C9000984205D00D4B984202D00D4B984201D18D
:101CA0000B7A03860123838270470000002C0140D9
:101CB000003401400004004000080040000C0040D7
:101CC000001000400014004000400140004401406A
:101CD0000048014010B540F22551204800F0ABF813
:101CE000002839D01D4800F061F9C4B2242C02D17B
:101CF00000201B4908801A4801880088401C184AA7
:101D0000108018484454007824281ED115480079C2
:101D10004D281AD113484079432816D10A2C14D1E2
:101D200050211148FEF748FA0D4802880D490E4827
:101D3000FEF729FA01200C4981F8500000200849DB
:101D40000880C8210748FEF737FA05480088C828E8
:101D500002DBC8200249088010BD000000380140A5
:101D600086000020EA0100206C01002010B520212F
:101D70001E4800F053F8012836D11C4800F016F92F
:101D80001B4908701B48008850B908460078FF2896
:101D90002AD101201749088000201749088023E034
:101DA00014480088012811D111480178124802888E
:101DB0000088401C104B1880104881541846008839
:101DC000642811DB02200B4908800DE009480088D7
:101DD000022809D106480078FE2805D100200549CF
:101DE000088001200649088010BD00000044004022
:101DF00015000020180000201A000020F800002024
:101E00001600002021B1828942F40052828104E050
:101E100082894DF6FF731A40828170470246002086
:101E2000B1F5007F00D100BF13880B400BB101203A
:101E300000E00020704770B5024600240023002512
:101E4000002040F66A16B14200D100BFC1F342152E
:101E500001F01F03012606FA03F3012D02D1968932
:101E6000334006E0022D02D1168A334001E0968A03
:101E700033400C12012606FA04F41688344013B1DC
:101E80000CB1012000E0002070BDF0B50346002435
:101E900000260025002040F66A17B94200D100BF95
:101EA0001846C1F3421401F01F06012707FA06F590
:101EB000012C01D10C3004E0022C01D1103000E0E3
:101EC00014301AB107682F43076002E00768AF4378
:101ED0000760F0BD2DE9F04786B005460E460024A8
:101EE000A24600BFA1460027B08900B100BF2F461F
:101EF0002C8A4CF6FF700440F08804432C82AC8995
:101F00004EF6F3100440B0883189084371890843C4
:101F10000443AC81AC8A4FF6FF400440B0890443CF
:101F2000AC8201A8FFF79CFB1F48874202D1DDF875
:101F300010A001E0DDF80CA0A88900F4004040B139
:101F40000AEBCA0000EB0A1031684900B0FBF1F857
:101F500007E00AEBCA0000EB0A1031688900B0FB09
:101F6000F1F86420B8FBF0F004012009642101FBC2
:101F70001089A88900F4004040B1322000EBC9006C
:101F8000B0FBF1F000F00700044308E0322000EB62
:101F900009106421B0FBF1F000F00F0004432C8124
:101FA00006B0BDE8F087000000380140014688888F
:101FB000C0F308007047C1F308028280704700BF79
:101FC000FEE700000FB4054B10B503A9044A0298C0
:101FD00000F06EF910BC5DF814FB0000C13D000874
:101FE0008C00002037B514460846064B6A46214649
:101FF00000F05EF904466946002000F0F0FC20463F
:102000003EBD0000DF290008490050EAC12018BF8A
:1020100004204A0D18BF40F0010040F2FF72B2EBFD
:10202000515F08BF40F00200012808BF052070473B
:102030002DE9F0414F1E00EBC7010446D1E9000134
:1020400015461E4637F006020DD02A463346FEF7E7
:102050004CFA7F1E04EBC703D3E90023FEF79EF979
:1020600037F00602F1D1022F25D0042F13D0062F0E
:1020700018BFBDE8F0812A463346FEF736FAD4E9A8
:102080000A23FEF78BF92A463346FEF72EFAD4E9E7
:102090000823FEF783F92A463346FEF726FAD4E9E9
:1020A0000623FEF77BF92A463346FEF71EFAD4E9EB
:1020B0000423FEF773F92A463346FEF716FAD4E9ED
:1020C0000223FEF76BF92A463346FEF70EFAD4E9EF
:1020D0000023BDE8F041FEF761B90122FEF761BCC3
:1020E000FEF75CB90022134610461146FEF7EABB24
:1020F000024A00201107FEF754BC000001FDFFFF5B
:1021000002E008C8121F08C1002AFAD170477047C0
:10211000002001E001C1121F002AFBD1704700001E
:102120000149086070470000900000202DE9FF5F22
:1021300082B00021DDE90430020DDDF840B0034338
:1021400018D044F61050A2F2FF32424315141198F1
:1021500001281FD0A5EB0B00401C5FEA000A4FF0DE
:1021600000064E4FDFF83891B046504615D5CAF1FB
:10217000000413E0119801244AA3012801D16FEA59
:102180000B010298119AC0E90031C0E9024206B081
:10219000BDE8F09FCBF10000DFE704460021404A94
:1021A000491842EB0450CDE9001012E0E00707D0D7
:1021B00032463B4640464946FEF797F980468946F7
:1021C00032463B4610461946FEF78FF906460F4643
:1021D0006410002CEAD1DDE90401DDE90023BAF145
:1021E000000F06DAFEF781F942464B46FEF77DF90D
:1021F00005E0FEF767FB42464B46FEF763FB0446ED
:102200000E460022284BFEF7FBFB03D84FF0FF30B1
:10221000014607E00022254B20463146FEF7BEF876
:10222000FEF7D6FB102409E0002C0ADB0A2200236B
:10223000FEF762FA039B30321A55641E50EA01021F
:10224000F2D1641C039AC4F111031444119A012AB7
:1022500003D0012208430DD10AE0084304D0002036
:102260004FF0110B119072E7A3EB0B056D1E0DE003
:102270005B4504DD4FF0000205F1010504E003DADF
:102280004FF00002A5F10105002AECD00298119947
:10229000C0E90231C0E9004579E7000000001440C0
:1022A0000000F03F300000000000F0430000E03F7D
:1022B0002DE9FF4F95B09B468946064600250FE263
:1022C000252877D100242746F84A0121059400E00B
:1022D000044316F8013F203B01FA03F01042F7D106
:1022E00030782A2811D06FF02F033078A0F1300217
:1022F000092A16D8059A44F0020402EB820203EB85
:1023000042021044761C0590EFE759F8042B059221
:10231000002A03DA504244F40054059044F00204C9
:10232000761C30782E2816D116F8010F44F00404DC
:102330002A280DD06FF02F023078A0F13003092B3E
:1023400009D807EB870302EB4303C718761CF3E7B2
:1023500059F8047B761C30786C280FD006DC4C28AA
:1023600017D068280DD06A2814D104E0742810D042
:102370007A280FD10DE044F400140AE044F48014EC
:1023800001E044F440147278824202D104F58014D2
:10239000761C761C307866280BD013DC582877D052
:1023A00009DC002875D04528F6D04628F4D0472807
:1023B0001AD19DE118E0632835D0642879D06528CA
:1023C00012D195E1702873D008DC6728F1D0692814
:1023D0006FD06E280DD06F2806D1B5E073282CD0B1
:1023E000752875D0782874D05A46179990476D1C77
:1023F00075E1C4F30250022809D003280DD0D9F8A2
:10240000001004280DD00D6009F1040967E1D9F826
:102410000010EA17C1E90052F6E7D9F800100D8064
:10242000F2E70D70F0E719F8041B8DF8001000209A
:102430008DF80100EA46012003E059F804AB4FF0A3
:10244000FF3061074FF0000102D40DE008F10101F7
:102450008846B9420FDA8045F8DB1AF808100029DF
:10246000F4D108E008F1010188468142FADB1AF84C
:1024700008100029F6D105985B46A0EB0807214615
:102480003846179A00F094FA284400EB080507E054
:102490004DE029E10DE01AF8010B5A4617999047D3
:1024A000B8F10108F7D25B4621463846179A13E186
:1024B00042E00A220092C4F302524FF0000A022ABC
:1024C00008D059F804CB032A4FEAEC710AD00DE08A
:1024D00029E02AE009F1070121F00702F2E802C130
:1024E000914609E00FFA8CFC4FEAEC71042A03D103
:1024F0004FFA8CFC4FEAEC71002907DA0A460021FA
:10250000DCF1000C61EB02012D2202E0220504D572
:102510002B228DF80420012203E0E20701D02022C3
:10252000F7E7904659E00A2102E010220DE0102161
:102530004FF0000A00910BE010224FF0000A44F027
:1025400004040827009203E008224FF0000A0092DA
:10255000C4F30252022A05D059F804CB0021032A01
:1025600008D009E009F1070121F00702F2E802C1F1
:10257000914605E01FFA8CFC042A01D10CF0FF0CF7
:102580004FF00008220728D5702806D0009B83F062
:10259000100353EA0A0305D00EE040228DF8042010
:1025A000012208E05CEA010206D030228DF8042006
:1025B0008DF8050002229046009B83F0080353EA41
:1025C0000A030AD15CEA010201D1620705D5302273
:1025D0008DF804204FF001087F1E582804D034A045
:1025E00003900EA802900DE036A0F9E7534660462E
:1025F000009AFEF781F884460398825C0298401E98
:10260000029002705CEA0100F0D1029806A9081A53
:1026100000F1200A600702D524F4803400E001278D
:10262000574502DDA7EB0A0000E0002000EB0A019D
:10263000009005984144401A0590E00306D45B469B
:102640002146179A059800F0B3F90544002706E0E3
:1026500001A85A46C05D179990476D1C7F1C4745DD
:10266000F6DBE0030CD55B462146179A059800F08F
:102670009FF9054404E030205A46179990476D1C95
:102680000099481E00900029F5DC08E002980299A4
:102690005A460078491C0291179990476D1CBAF16F
:1026A0000001AAF1010AF1DC65E10000092801003E
:1026B00030313233343536373839616263646566B8
:1026C000000000003031323334353637383941427A
:1026D000434445460000000000F058F90544761CCC
:1026E000307800287FF4ECAD19B02846BDE8F08FB3
:1026F000620700D4062709F1070222F0070CFCE864
:102700000223E14603F000485FEA080C02D00FF212
:10271000702C0DE05FEA045C02D50FF2682C07E034
:102720005FEAC47C02D00FF2602C01E0AFF2700CC3
:102730004FF0FF3823F00043CDF850C065280CD08F
:1027400006DC452809D046281DD047283DD13DE06C
:10275000662818D067287ED138E00021112F01DBD0
:10276000112000E0781CCDE9000106A90EA8FFF7B2
:10277000DDFCDDE90F010E9A03910021009207F1C3
:10278000010A04914DE04FF000400097CDE901109F
:1027900006A90EA8FFF7CAFCDDE90F0203920E9B03
:1027A00011990022DDF80CA00093049211B9791C54
:1027B00000EB010AB7EB0A0004D4C0F1FF3007F1C7
:1027C000010A0490AAEB0700019044E0012F00DA0F
:1027D00001270021112F01DD112000E03846CDE94D
:1027E000000106A90EA8FFF7A1FCDDE90F010E9A72
:1027F0000391002104910092BA4621070CD4039959
:10280000514500DA8A46BAF1010F05DD009AAAF1B6
:102810000101515C302908D0B84202DA10F1040FEE
:1028200006DA0121CDE9011015E0AAF10101E9E77D
:10283000002805DC049901440491AAEB000102E0A0
:10284000411C514500DD8A460499401A401C019004
:102850004FF000400290200704D40198504501DB5E
:10286000CDF8048000208DF84F0002980DF14F073D
:10287000B0F1004F25D02B200E9002984FF00208A7
:1028800000280CDA404202902D200E9007E00A2129
:102890000298FDF71BFF3031029007F8011DB8F1D7
:1028A0000001A8F10108F2DC02980028EFD1791E9E
:1028B0000E980870307800F0200040F0450007F8CE
:1028C000020D12A8C01B00F107081498007800B18F
:1028D000012000EB0A01019801EBE07105984144E9
:1028E000401A401E0590E00306D45B462146179A25
:1028F000059800F05DF805441498007818B15A4620
:10290000179990476D1CE00324D55B462146179A22
:10291000059800F04DF805441CE00498002807DBFA
:10292000DDE90301884203DD0098405C179901E06E
:10293000179930205A469047049805F10105401C2C
:1029400004900198401E019004D12E205A461799F8
:1029500090476D1CBAF10001AAF1010ADDDC05E027
:1029600017F8010B5A46179990476D1CB8F10001F2
:10297000A8F10108F4DC5B462146179A0598ABE6FE
:102980002D0000002B000000200000002DE9F04188
:10299000044600251E461746880404D405E039463F
:1029A0002020B0476D1C641EF9D52846BDE8F08193
:1029B0002DE9F041044600251E469046C80301D586
:1029C000302700E02027880404D505E0414638463A
:1029D000B0476D1C641EF9D52846BDE8F0810A6831
:1029E000531C0B60107070472DE9FE4F06460F46D2
:1029F0000025684601F0ECF9002442E056F8240076
:102A000057F82410A0EB010ABAF1000F01DB514680
:102A100001E0CAF100010846FDF7D9FD83464FF0F9
:102A20008F41FDF77DFC80465DF824000021FDF715
:102A300039FE16D05DF824104046FDF771FC824641
:102A40004FF07E51FDF734FC814629F0004A0F48D3
:102A5000416A5046FDF730FE12D20120A0400543E6
:102A60000EE00A48C1694046FDF71CFE05D3074841
:102A7000016A4046FDF720FE02D20120A040054336
:102A8000641C032CBADB2846BDE8FE8F9C5C000862
:102A90002DE9F04D8D4F21F0004A86B005460C46D9
:102AA000BA452ADBAAEB070028430AD088488245AA
:102AB00001DC1AD1CDB106B02846BDE8F04DFFF7D4
:102AC0000CBB844A844B2846FDF70FFD07460E4693
:102AD000824A834B28462146FDF707FD06B03A4659
:102AE0003346BDE8F04DFDF759BC0120FFF718FB58
:102AF00006B0BDE8F04DFFF7F5BA7A48824542DAF4
:102B0000BAF1795F0BDA2846FFF77EFA042808BF8E
:102B1000FFF7EEFA284606B02146BDE8F08D2A46BA
:102B20000B461046FDF7E1FC834602466E480E4612
:102B30000B4606217844FFF77BFA5A463346FDF7E9
:102B4000D4FC804669488A465A4633460421784474
:102B5000FFF76EFA5A463346FDF7C7FC00223B46A4
:102B6000FDF71CFC02460B4640465146FDF7AAFE07
:102B70002A462346FDF7B9FC06B02A462346BDE89F
:102B8000F04DFDF70BBC284624F0004100223D46E5
:102B90003B46FDF7A7FC4FF0FF32FDF702FF06466C
:102BA000024653480F460B4606217844FFF740FA89
:102BB00032463B46FDF799FCCDE900014D483246CF
:102BC0003B4604217844FFF733FA32463B46FDF793
:102BD0008CFC00222B46FDF7E1FB83460291304638
:102BE000394603F021F8804643480D46504517DC2E
:102BF000DDE900015A46029BFDF764FE42462B4682
:102C0000FDF773FC42462B46FDF7C8FB0122FDF79A
:102C1000C8FE304A304BFDF762FC304A304B4CE086
:102C20004FF0000A52460B464046FDF7B7FBCDE990
:102C3000031052462B4610461946FDF756FC324605
:102C40003B46FDF74FFCDDE90332FDF73BFE064650
:102C50000F46DDE900015A46029BFDF733FE83462D
:102C60000091012230463946FDF79BFE194A1A4B66
:102C7000FDF738FC06460F46012240462946FDF77F
:102C800090FE5A46009BFDF730FC32463B46FDF76E
:102C900026FC06460F46012250462946FDF781FED6
:102CA0000E4DDFF858802A464346FDF71BFC32469E
:102CB0003B46FDF717FC2A464346FDF713FC002C64
:102CC000D8BF81F0004106B0BDE8F08D0000F03FB4
:102CD0000000F07F075C143326A6913C182D445465
:102CE000FB21F93F0000E03F883D00009E3D0000D1
:102CF000123D0000283D00003333EF3FFB21E93F48
:102D00002DE9F84F04460D4621F00040009173492B
:102D1000814211DC7249884201DC06D12CB1204687
:102D20002946BDE8F84FFFF7D8B96E48002DCCBF53
:102D30006D496E49BDE8F88F6D49814211DD6D49DD
:102D40008142D8BF4FF0FF366DDD20462946FFF7A0
:102D50005BF9042808BFFFF7CBF920462946BDE8F8
:102D6000F88F6549654F25F00045814233DD6449A0
:102D7000814219DD002632464FF080432046294625
:102D8000FDF70CFB80468A46012220462946FDF7C6
:102D900008FE00223B46FDF7A2FB42465346FDF7E4
:102DA00091FD04460D463EE001260022BA463B4610
:102DB00020462946FDF7F2FA80460F460022534688
:102DC00020462946FDF78BFB42463B46FDF77AFD40
:102DD00004460D4627E04B4981421BDDDFF828A160
:102DE00002260022534620462946FDF77EFB00229C
:102DF0003B46FDF7D3FA80460F4600225346204655
:102E00002946FDF76CFB42463B46FDF75BFD044659
:102E10000D4608E0032622462B4600203B49FDF7DD
:102E200051FD04460D4622462B4610461946FDF735
:102E30005CFB8B46824602460B46FDF756FB074677
:102E40000246334888460B4606217844FFF7F0F8DF
:102E500052465B46FDF749FB82462E488B463A4672
:102E6000434605217844FFF7E3F83A464346FDF729
:102E70003CFB02460B46002E504659460CDAFDF745
:102E80008DFA22462B46FDF730FB01B022462B4639
:102E9000BDE8F04FFDF726BBFDF780FA22462B4632
:102EA000FDF723FB1C4A7A4402EBC603D3E9002357
:102EB000FDF715FB22462B46FDF711FB174A7A4416
:102EC00002EBC603D3E90023FDF70CFB009A002AAE
:102ED000B8BF81F00041BDE8F88F00000000104449
:102EE0000000F07F182D4454FB21F93FFB21F9BF6E
:102EF0000000DC3F0000203E0000F33F0000F03FF8
:102F00000000E63F008003400000F83F0000F0BFF3
:102F10002A3B0000E83A0000863A00004E3A0000E2
:102F20002DE9F04D9446CCF1000423F000464CEA24
:102F30000404524F46EAD4749A46884621F000426F
:102F4000BC4206D8454240EA050442EAD474BC4279
:102F500004D9BDE8F04D6246FFF7C2B8AAF140556A
:102F6000A5F17F6555EA0C040BD0022404EAAA748B
:102F7000434DDFF810E144EAD87452EA000B04D064
:102F80000CE0BDE8F04DFFF7BBBE002C14BF012CD8
:102F9000BDE8F08D022C30D0032C32D056EA0C0B59
:102FA0000AD0BE4220D1BA4209D126F0804622F092
:102FB00080423346114617E000291ADB25E0DFF88E
:102FC000C8B0FB44002C04BFDBE90001BDE8F08D74
:102FD000012C02BFDBE9000181F00041BDE8F08D6A
:102FE000022C0AD0032C0CD0BA4212D1B8F1000F37
:102FF0000BDA23482549BDE8F08D28462449BDE871
:10300000F08D28467146BDE8F08D1D482149BDE888
:10301000F08D921B12153C2AC4BF19481D490EDCC5
:10302000BAF1000FBEBF12F13C0F0020014606DBD3
:103030006246FDF747FC21F00041FFF761FE002CDE
:1030400008BFBDE8F08D012C04BF81F00041BDE850
:10305000F08D114A114B022C07D0FDF740FA2A4699
:10306000BDE8F04D0A4BFDF73ABAFDF738FA2A46AB
:10307000BDE8F04D064BFDF735BA00000000F07FCB
:10308000182D4454FB2109C0E2390000FB21F9BF8F
:10309000FB210940FB21F93F075C143326A6A13C24
:1030A00010B586B00446012144F20400FEF7C8FAC8
:1030B0004FF40070ADF8140003208DF816001820AE
:1030C0008DF8170005A91D48FDF760FF4FF48060DB
:1030D000ADF8140004208DF8170005A91748FDF776
:1030E00055FF25208DF8000003208DF801008DF894
:1030F000020001208DF803006846FEF74DFA0194A6
:103100000020ADF80800ADF80A00ADF80C00ADF8ED
:1031100010000C20ADF80E0001A90948FEF7DAFEF8
:10312000012240F225510648FEF7AFFE0121044876
:10313000FEF768FEFDF77CFD06B010BD00080140FB
:10314000003801402DE9F0410446E07800F0C00667
:10315000E07800F03F05607800F0010098B1EF10D2
:103160002846E91705EB5171C910A5EBC101491CAF
:1031700001F0FF080B48006820B10A484146026888
:103180003846904700BF607800F0080030B105482D
:10319000406818B1B011034A516888470020BDE863
:1031A000F08100005C01002000B5034603E04FF40D
:1031B0007A7000F005F8181EA3F10103F7D100BDE5
:1031C00000EBC001C9004FF0E02251610021916184
:1031D0000521116100BF4FF0E021096901F4803140
:1031E0000029F8D004214FF0E0221161704738B572
:1031F000044664B120208DF8000028208DF80100DD
:1032000030208DF8020038208DF8030004E0A3225E
:1032100004216846FCF7C9FF6A46042140F69E2057
:1032200002F0AAF901F09AFD38BD00003EB504464F
:1032300002208DF80000CA208DF80100E3208DF8EF
:10324000020009208DF803006A460421682002F07C
:1032500093F9A3208DF8000004F0400048B1C0208D
:103260008DF80100C8208DF80200C2208DF80300FF
:1032700006E0A3208DF801008DF802008DF8030010
:1032800004F4C07048B1C4208DF80400CC208DF83F
:103290000500C6208DF8060006E0A3208DF8040086
:1032A0008DF805008DF80600A3208DF807008DF835
:1032B00008008DF809006A460A2140F6A72002F0AE
:1032C0005BF904F0030018B120208DF8000002E043
:1032D000D8208DF800006A46012140F6B62002F0A1
:1032E0004BF904F0200018B1012000F0ADF802E025
:1032F000002000F0A9F804F4C07008B304F4807052
:1033000060B1B2208DF800008B208DF80100B6204E
:103310008DF802009B208DF803000BE0B0208DF8A3
:10332000000080208DF80100B4208DF8020090206C
:103330008DF803006A46042140F6A22002F01CF931
:1033400004F0010020B3F8208DF800006A46012146
:103350004FF40B6002F010F9FA21072000F02CFC6A
:10336000072000F0F3FB012000F013FC642000F0C4
:10337000F3FC4FF4FA7000F002FDC821304800F071
:10338000A3FB282000F0BCFB0A2000F0CCFB08E0E7
:10339000D8208DF800006A4601214FF40B6002F03E
:1033A000EBF804F0020018B1D9208DF8000002E01B
:1033B000D8208DF800006A46012140F23D7002F0ED
:1033C000DBF804F0040018B1012000F069F802E015
:1033D000002000F065F804F0100018B10120FFF79C
:1033E00006FF02E00020FFF702FF44F00800154945
:1033F000488101F0B3FC00201249887304F04000BA
:1034000018B10846807B801D887304F4C07020B119
:103410000C48807B801D0B49887304F0140020B198
:103420000848807B10300749887304F0030020B1FE
:103430000448807B001D0349887300203EBD0000C6
:1034400009E3CA025C0100203EB504466CB10EA13E
:10345000D1E900208968CDE9002002916A4609215E
:103460004FF4976002F088F83EBD0AA2D2E900103E
:103470009268CDE9010200916A4609214FF49760F4
:1034800002F07AF8F0E70000B8AAB38DB4980D35D1
:103490005D000000B8AAAAAAB088C3C5C700000092
:1034A00038B5044664B1C0208DF80000C2208DF804
:1034B0000100C4208DF80200C6208DF8030004E04E
:1034C0008B2204216846FCF770FE6A46042140F610
:1034D000982002F051F801F041FC38BD10B5C82326
:1034E0004FF48062024940F6F63001F0CBFA10BD8D
:1034F000C45C00082DE9F04F8DB00746884615469C
:103500009946DDE9166B0024002030806B49887BEA
:103510005A4605A901F082FB18B1601E0DB0BDE846
:10352000F08F6648807A00F01400002867D09DF87C
:10353000140000069DF8151040EA01409DF8161091
:1035400040EA01209DF81710084328609DF81800F4
:1035500000069DF8191040EA01409DF81A1040EA53
:1035600001209DF81B10084368609DF81C000006B0
:103570009DF81D1040EA01409DF81E1040EA012010
:103580009DF81F100843A8609DF8200000069DF8D4
:10359000211040EA01409DF8221040EA01209DF8E8
:1035A00023100843E86004F11000C4B22868001436
:1035B0000190686800140290A86800140390E868FD
:1035C0000014049001984043029901FB0100039903
:1035D00001FB0100049901FB010ABAF1706F02DBE3
:1035E000BAF1885F05DD01F0B9FB00203080401E94
:1035F00094E7B6F9000040F48070308000BF2F4897
:10360000807A00F0400020B305A9601C085C095DC9
:1036100040EA012000B2A8F8000005A9E01C095CFE
:1036200005AAA01C105C41EA002000B2A8F8020024
:1036300005A9601D095C201D105C41EA002000B254
:10364000A8F80400A01DC4B2B6F9000040F00800BC
:1036500030801A48408900F4C07008B305A9601C86
:10366000085C095D40EA012000B2388005A9E01C31
:10367000095C05AAA01C105C41EA002000B2788019
:1036800005A9601D095C201D105C41EA002000B204
:10369000B880A01DC4B2B6F9000040F070003080C0
:1036A0000648807A00F0030018B105A90819FFF751
:1036B00049FD484601F0A0FF00202FE75C010020F3
:1036C00070B588B0064601A801F030F8BDF80400D6
:1036D0000021C90341EA5045C4034448007A00F080
:1036E000030056F8200005904048007A00F00400DE
:1036F00010B10598404205903C48007AC0F3C100E3
:1037000056F8200006903948007A00F0200010B1E9
:103710000698404206903548007AC0F3811056F86A
:10372000200007903148008900F4807010B107989C
:10373000404207900598C117A0FB042301FB043108
:1037400000FB0510810041EA927005900698C117B0
:10375000A0FB042301FB043100FB0510810041EABA
:10376000927006900798C117A0FB042301FB043157
:1037700000FB0510810041EA927007900598000E49
:103780008DF808000598000C8DF809000598000ACE
:103790008DF80A000598C0B28DF80B000698000E4F
:1037A0008DF80C000698000C8DF80D000698000AA4
:1037B0008DF80E000698C0B28DF80F000798000E25
:1037C0008DF810000798000C8DF811000798000A7A
:1037D0008DF812000798C0B28DF8130002AA0C21D0
:1037E0004FF4257001F0C8FE08B070BD5C010020E8
:1037F00030B585B0044616A207CA02AB07C3C82C71
:1038000003DD4FF0FF3005B030BDC82090FBF4F071
:10381000401E85B2280A8DF80000E8B28DF801003C
:103820006A46022140F2162001F0A6FE10B14FF0C8
:10383000FF30E8E702AA0C2140F6C12001F09CFE0F
:1038400010B14FF0FF30DEE7044884810020DAE752
:10385000FEF2ABC4AAF1DFDFBBAFDFDF5C0100200B
:103860001FB504464848007A00F0030054F82000D1
:1038700001904548007A00F0040010B101984042E0
:1038800001904148007AC0F3C10054F82000029032
:103890003D48007A00F0200010B1029840420290AA
:1038A0003948007AC0F3811054F82000039036485C
:1038B000008900F4807010B10398404203903349AE
:1038C000019880FB0101800F40EA810001902F499F
:1038D000029880FB0110820042EA917002902B490D
:1038E000039880FB0110820042EA917003900198D6
:1038F000000E8DF800000198000C8DF80100019871
:10390000000A8DF802000198C0B28DF803006A46E3
:1039100004214FF4747001F02FFE18B14FF0FF3006
:1039200004B010BD0298000E8DF800000298000C43
:103930008DF801000298000A8DF802000298C0B2CA
:103940008DF803006A4604214FF4757001F014FEEF
:1039500010B14FF0FF30E3E70398000E8DF8000040
:103960000398000C8DF801000398000A8DF80200FE
:103970000398C0B28DF803006A4604214FF47670B4
:1039800001F0FAFDCCE700005C01002009E3CA0267
:1039900010B586B0044647A00068039046A00068B2
:1039A000029046A00068019045A00068009004F0D5
:1039B000030003A9085C8DF8140003A8C4F3C10137
:1039C000405C8DF8150003A8C4F38111405C8DF8AC
:1039D000160004F0030002A9085C8DF8100002A88C
:1039E000C4F3C101405C8DF8110002A8C4F3811139
:1039F000405C8DF8120005AA032140F2264001F038
:103A0000BBFD18B14FF0FF3006B010BD04AA032172
:103A100040F22A4001F0B0FD10B14FF0FF30F3E763
:103A2000019805900098049004F0040058B19DF8A6
:103A3000140040F001008DF814009DF8100040F0D3
:103A400001008DF8100004F0200058B19DF8150019
:103A500040F001008DF815009DF8110040F00100C4
:103A60008DF8110004F4807058B19DF8160040F0F4
:103A700001008DF816009DF8120040F001008DF84D
:103A8000120005AA03214FF4886001F075FD10B102
:103A90004FF0FF30B8E704AA032140F2314001F0B3
:103AA0006BFD10B14FF0FF30AEE7064804810020F7
:103AB000AAE700004CCD6C000CC92C0036567600ED
:103AC000264666005C010020F8B505460E464FF418
:103AD0007A7095FBF0F000FB06F4200E8DF80000E4
:103AE000200C8DF80100200A8DF80200E0B28DF85C
:103AF00003006A4604214FF4AE7001F03DFDF8BDAD
:103B000038B50446052094FBF0F084B220128DF8FD
:103B10000000E0B28DF801006A4602214FF4AD705A
:103B200001F02AFD38BD38B50446052094FBF0F0BD
:103B300084B220128DF80000E0B28DF801006A46D0
:103B400002214FF4AC7001F017FD38BD38B50446C2
:103B50000020009004F0010020B19DF8000040F02A
:103B60003000009004F0020020B19DF8000040F009
:103B70000C00009004F0040020B19DF8000040F01B
:103B8000030000906A4601214FF4A47001F0F4FC98
:103B900038BD38B50446012C01DA012402E0042CBA
:103BA00000DD0424601EC0B200906A46012140F28C
:103BB0004F1001F0E1FC38BD2DE9FC4706460F46E9
:103BC00006F0070010B1B7F5C86F03DD4FF0FF3006
:103BD000BDE8FC873846FCF703FD81465949FCF7F0
:103BE0009FFB8046684600F07BFD9DF800000228A0
:103BF00006D0042816D0082826D0102848D135E051
:103C00004FF08D414046FCF759FB8146FCF706FD1D
:103C100084B24D494046FCF751FB8146FCF7FEFC5F
:103C200085B238E04FF08C414046FCF747FB8146B7
:103C3000FCF7F4FC84B245494046FCF73FFB814663
:103C4000FCF7ECFC85B226E04FF08B414046FCF7D8
:103C500035FB8146FCF7E2FC84B23D494046FCF767
:103C60002DFB8146FCF7DAFC85B214E04FF08A4167
:103C70004046FCF723FB8146FCF7D0FC84B2354973
:103C80004046FCF71BFB8146FCF7C8FC85B202E00E
:103C90004FF0FF309CE700BF20128DF80400E0B227
:103CA0008DF8050028128DF80600E8B28DF807009F
:103CB00006F00100A0B101AA02214FF4EA7001F060
:103CC0005BFC10B14FF0FF3082E70DF106020221DC
:103CD0004FF4927001F050FC10B14FF0FF3077E7D5
:103CE00006F00200A0B101AA02214FF4EC7001F02D
:103CF00043FC10B14FF0FF306AE70DF106020221DC
:103D00004FF4947001F038FC10B14FF0FF305FE7D2
:103D100006F00400A0B101AA02214FF4EE7001F0F8
:103D20002BFC10B14FF0FF3052E70DF106020221DB
:103D30004FF4967001F020FC10B14FF0FF3047E7D0
:103D4000002045E700004843000040460000C04511
:103D5000000040450000C04438B50446052094FBEF
:103D6000F0F085B228128DF80000E8B28DF801005D
:103D70006A4602214FF4EF7001F0FEFB38BD38B502
:103D80000446052094FBF0F085B228128DF800005F
:103D9000E8B28DF801006A4602214FF4ED7001F09F
:103DA000EBFB38BD044603E0214602A0FCF71EFFF2
:103DB000FAE700004552524F5225640D0A000000F8
:103DC00070B504460D46E0B2FCF700FF204670BD1A
:103DD0007CB5054628494968087801AB04220D21C5
:103DE00000F010FB08B107207CBD9DF80700C0F370
:103DF00001109DF8041001F0E00140EAE1008DF8A7
:103E000000009DF80700C0F381009DF8051001F047
:103E1000E00140EAE1008DF801009DF8070000F0A4
:103E200003009DF8061001F0E00140EAE1008DF882
:103E3000020000241CE01DF8040018B9002045F819
:103E4000240013E00D4845F8240006E055F824004E
:103E50000B49FCF733FA45F824001DF80400401E16
:103E6000C0B20DF804000028F0D100BF601CC4B23D
:103E7000032CE0DB0020B7E74C0000207B14AE3EB3
:103E80001D5A843F2DE9F04F87B005460C469146F8
:103E900001208DF8100000208DF81100FE4A1268F4
:103EA000917CFD4A5268107804AB022200F0E5FADA
:103EB00020B14FF0FF3007B0BDE8F08FC820FFF70A
:103EC00073F900208DF81000F34A1268D17BF24A92
:103ED0005268107804AB012200F0CFFA10B14FF015
:103EE000FF30E8E7EC4A12685179EB4A52681078E3
:103EF00004AB012200F0C1FA10B14FF0FF30DAE755
:103F0000E54A1268917CE44A5268107804AB0122B9
:103F100000F0B3FA10B14FF0FF30CCE7DE4A126880
:103F2000D17DDD4A5268107804AB012200F0A5FA79
:103F300010B14FF0FF30BEE7D74A12681179D64A68
:103F40005268107804AB012200F097FA10B14FF0DC
:103F5000FF30B0E70C208DF81000CF4A12681179BD
:103F6000CD4A5268107804AB012200F086FA10B1F5
:103F70004FF0FF309FE70F20FFF716F9C648806A21
:103F8000407A8DF81000C44A12689178C24A52688B
:103F9000107804AB012200F070FA10B14FF0FF303E
:103FA00089E7BD48806A007A8DF81000BA4A126825
:103FB0005178B94A5268107804AB012200F05DFADA
:103FC00010B14FF0FF3076E7B9F1000F07D0B248DB
:103FD000806A807A40F0E0008DF8100004E0AE487E
:103FE000806A807A8DF81000AB4A12689179AA4AEB
:103FF0005268107804AB012200F03FFA10B14FF084
:10400000FF3058E7B9F1000F07D0A348806AC07AA3
:1040100040F0E0008DF8100003E0A048C07A8DF871
:1040200010009D4A1268D1799B4A5268107804ABFF
:10403000012200F022FA10B14FF0FF303BE7B9F156
:10404000000F02D0C820FFF7AFF840208DF8100015
:10405000914A12681179904A5268107804AB012293
:1040600000F00BFA10B14FF0FF3024E778208DF804
:104070001000894A12685179874A5268107804AB57
:10408000012200F0FAF910B14FF0FF3013E7834935
:104090008889FFF789F800208DF810007E4A1268A1
:1040A00051797D4A5268107804AB012200F0E5F99D
:1040B00010B14FF0FF30FEE6774A1268917A764AE7
:1040C0005268107804AB022200F09CF910B14FF056
:1040D000FF30F0E69DF811009DF8101040EA012B2A
:1040E0000C209BFBF0F0C6B20020A860686028603E
:1040F000A06060602060824665E0674A1268D17AFD
:10410000654A5268107804AB0C2200F07BF910B1BC
:104110004FF0FF30CFE69DF811009DF8101040EAF7
:10412000012000B2ADF808009DF813009DF81210B0
:1041300040EA012000B2ADF80A009DF815009DF894
:10414000141040EA012000B2ADF80C00BDF90810CF
:10415000206808442060BDF90A1060680844606067
:10416000BDF90C10A0680844A0609DF817009DF8E8
:10417000161040EA012000B2ADF800009DF81900C9
:104180009DF8181040EA012000B2ADF802009DF839
:104190001B009DF81A1040EA012000B2ADF804009F
:1041A000BDF90010286808442860BDF9021068684D
:1041B00008446860BDF90410A8680844A8600AF1C2
:1041C000010000F0FF0AB24597DB3448D0F800C088
:1041D0002868C117090441EA104107046246002318
:1041E0003846FBF79FFF32460023CDE90201FBF77B
:1041F00099FF28602948D0F800C06868C1170904F1
:1042000041EA10410704624600233846FBF78AFF63
:1042100032460023CDE90201FBF784FF68601F48A6
:10422000D0F800C0A868C117090441EA104107048A
:10423000624600233846FBF775FF32460023CDE97E
:104240000201FBF76FFFA8601448D0F804C0216892
:10425000C817000440EA11480F046246002338469C
:104260004146FBF75FFF32460023CDE90201FBF731
:1042700059FF20600948D0F804C06068C1170904DC
:1042800041EA10410704624600233846FBF74AFF23
:104290003246002304E000004C0000209C5C000833
:1042A000CDE90201FBF73EFF60601148D0F804C081
:1042B000A068C117090441EA1041070462460023BF
:1042C0003846FBF72FFF32460023CDE90201FBF70A
:1042D00029FFA060A068002804DDA068A0F5803058
:1042E000A06003E0A06800F58030A0600020E2E557
:1042F0009C5C00082DE9FC5F06460F4600253D4901
:104300004968087801AB03220D2100F07BF810B159
:104310000720BDE8FC9F9DF8040000F01F008DF809
:1043200004009DF8050000F01F008DF805009DF8C1
:10433000060000F01F008DF80600002456E056F835
:10434000240057F82410A0EB010BBBF1000F01DB98
:10435000594601E0CBF100010846FCF738F94FF06F
:104360008F410090FBF7DCFF814601A8005D68B338
:1043700021490868FCF734F9834659461F48FBF782
:10438000CFFF804604E01E494046FBF797FF80467A
:1043900001A8005D401EC0B201A908550028F2D155
:1043A00041464846FBF7BCFF83464FF07E51FBF782
:1043B0007FFF82462AF0004B0F4881695846FCF780
:1043C0007BF912D20120A04005430EE00A480169A2
:1043D0004846FCF767F905D3074841694846FCF7AA
:1043E0006BF902D20120A0400543641C032CA6DB1C
:1043F00028468EE74C0000209C5C000800B04C452D
:1044000054E3853F2DE9F04106460F4614461D460C
:10441000FCF758FF10B90120BDE8F0817106080EC5
:10442000FCF718FFFCF7A6FF18B9FCF77FFF012087
:10443000F2E73846FCF70EFFFCF79CFFFCF742FF63
:10444000012101EB4601C8B2FCF704FFFCF792FF23
:104450000DE0012C04D10020FCF7C6FE287003E01B
:104460000120FCF7C1FE28706D1C601EC4B2002C38
:10447000EFD1FCF75BFF0020CEE72DE9F0410546C8
:104480000E4617469846FCF71DFF10B90120BDE8FF
:10449000F0816906080EFCF7DDFEFCF76BFF18B92A
:1044A000FCF744FF0120F2E73046FCF7D3FEFCF7AF
:1044B00061FF00240BE018F80400FCF7CBFEFCF7CA
:1044C00059FF18B9FCF732FF0020E0E7641CBC423A
:1044D000F1DBFCF72BFF0020D9E770B50546284635
:1044E00000F00FF80446E81C00F00BF844EAC000A6
:1044F00084B2A81D00F005F844EA801084B220467A
:1045000070BD014691F90020002A01DD00201EE067
:1045100091F90020002A01DA042018E091F9012025
:10452000002A01DD012012E091F90120002A01DAC0
:1045300005200CE091F90220002A01DD022006E0AE
:1045400091F90220002A01DA062000E007207047D6
:1045500000231A4619464FF41650FCF7DDFA4FF4C3
:104560001650FEF79DFDFDF789FAFCF7FDFDFCF7FF
:10457000C2FFFCF76BFB40F2CF2140F2CF70FDF79A
:10458000E7FA32E0FCF790FD01282ED1174918A078
:10459000FCF72CFB18A0FCF729FB01F02FF801F029
:1045A000B3F81BA0FCF722FB20480068FCF74AF890
:1045B000044622460B461EA0FCF718FB2048006864
:1045C000FCF740F8044622460B461EA0FCF70EFB03
:1045D00020480068FCF736F8044622460B461EA029
:1045E000FCF704FB20A0FCF701FBCBE7F800002060
:1045F00025730D0A000000000D0A47505320494E54
:10460000464F524D4154494F4E3A0D0A00000000AA
:104610000D0A54494C5420414E474C4520494E46C2
:104620004F524D4154494F4E3A0D0A007800002038
:1046300050697463683A252E32660D0A0000000046
:104640007C000020526F6C6C203A252E32660D0AD9
:10465000000000008000002059617720203A252EBC
:1046600032660D0A000000000D0A4F4B0D0A0000D3
:1046700070B50446002624F00104184890F8240080
:1046800008B1002070BD1548807A10B94FF0FF3096
:10469000F8E71248057C807A2040104908740846E3
:1046A000007CA04202D04FF0FF3600E0002614B993
:1046B0000A48007D18B1012001F06EFA02E00020E6
:1046C00001F06AFA3CB100F049FB20B103480574DF
:1046D0004FF0FF30D6E73046D4E700004C00002012
:1046E00001461148407A30B1012807D0022808D08D
:1046F00003280CD108E0022008700BE004200870A9
:1047000008E00820087005E01020087002E04FF073
:10471000FF30704700BF0448C07C18B108784006DD
:10472000000E08700020F4E74C00002001461348FA
:10473000407A30B1012808D002280AD0032810D1CD
:104740000BE04FF4804008800EE041F69C7008803A
:104750000AE04FF48050088006E04FF400600880C3
:1047600002E04FF0FF30704700BF0448C07C10B13A
:104770000888401008800020F5E700004C00002069
:1047800001460248007C0870002070474C00002061
:1047900001460F48007A30B1012807D0022809D01D
:1047A00003280FD10AE0FA2008800EE04FF4FA70D7
:1047B00008800AE04FF47A70088006E04FF4FA604F
:1047C000088002E00020088000BF00BF0020704782
:1047D0004C00002001460E48007A30B1012807D075
:1047E000022808D003280CD108E00A4808600BE032
:1047F0000948086008E00948086005E008480860C2
:1048000002E04FF0FF30704700BF0020FBE70000E0
:104810004C00002000000343000083423333034276
:104820003333834101461248C07A082817D2DFE8A3
:1048300000F01704070A0D101318BC20088013E0BD
:104840006220088010E02A2008800DE014200880F3
:104850000AE00A20088007E00520088004E000BF85
:1048600000BF0020088000BF00BF0020704700008C
:104870004C0000200146064890F8240010B14FF08B
:10488000FF3070470248C08908800020F9E7000027
:104890004C0000201CB580208DF80000654A12688D
:1048A000917C644A526810786B460122FFF7E5FD5F
:1048B00010B14FF0FF301CBD6420FEF775FC0020E6
:1048C0008DF800005B4A1268917C5A4A5268107851
:1048D0006B460122FFF7D1FD10B14FF0FF30EAE740
:1048E000544A1268917D534A526810786B460622EA
:1048F000FFF788FD10B14FF0FF30DCE79DF80500B1
:10490000C007400F9DF8031001F0010140EA41008B
:104910009DF8011001F0010140EA010494B1012C5D
:1049200003D101214348C17431E0022C03D100219D
:104930004048C1742BE021463FA0FDF743FB4FF0F8
:10494000FF30B8E73B4A1268D1783A4A526810788B
:104950006B460122FFF756FD10B14FF0FF30AAE77A
:104960009DF8000000F00F042CB93D48FDF72AFB2C
:104970004FF0FF309FE7042C06D13AA0FDF722FB51
:1049800001212C48C17402E000212A48C174FF2192
:1049900028488172FF2027490872FF21254841726B
:1049A000C1724FF6FF71C181FF2101748174012131
:1049B000017380F82210002180F8231041750175E1
:1049C0001630016041608160163880F8241080F84C
:1049D0002510C1844FF4FA6000F05CFC10B14FF078
:1049E000FF3068E7022000F025FB10B14FF0FF30E8
:1049F00061E72A2000F0C8FC10B14FF0FF305AE701
:104A0000322000F003FD10B14FF0FF3053E70020DB
:104A1000FFF72EFE10B14FF0FF304CE7002000F002
:104A20004BFB10B14FF0FF3045E7002000F03CFD9C
:104A3000002040E74C000020556E737570706F7257
:104A400074656420736F6674776172652070726F2D
:104A500064756374207265762025642E0A00000058
:104A6000B069000848616C662073656E736974698B
:104A700076697479207061727420666F756E642E29
:104A80000D0A00002DE9F04385B005460E4690461C
:104A90009946294890F8250020B14FF0FF3005B025
:104AA000BDE8F08316B94FF0FF30F8E7002423E0AB
:104AB000281B102801DD102000E0281B87B23219C6
:104AC0003946204600F058FD10B14FF0FF30E6E7C0
:104AD00001AA3946204600F001F910B14FF0FF302D
:104AE000DDE730193A4601A9FBF783FB10B16FF0FF
:104AF0000100D4E7E01984B2AC42D9DB4FEA2820A8
:104B00008DF8000008F0FF008DF801000A4A1268D5
:104B1000917E094A526810786B460222FFF7ADFC7D
:104B200010B14FF0FF30BAE70121034880F825109B
:104B3000A0F826900020B2E74C00002038B50446CB
:104B4000282C02DD4FF0FF3038BDDCB9002000F02A
:104B5000E5FB00208DF8000007208DF801002E4AAB
:104B60001268917C2C4A526810786B460222FFF73B
:104B700084FC10B14FF0FF30E6E7002126480175B4
:104B80000020E1E7012000F0C9FB20208DF80000A3
:104B9000012C06D100208DF80100052000F0F4FB67
:104BA00017E0052C06DC01208DF80100052000F03F
:104BB000EBFB0EE0142C06DC02208DF801000A202D
:104BC00000F0E2FB05E003208DF80100142000F066
:104BD000DBFB9DF80100072101EB8010C0B28DF8CE
:104BE00001000D4A1268917C0B4A526810786B469E
:104BF0000222FFF742FC10B14FF0FF30A4E708217A
:104C00000548817200210173012101750020FFF721
:104C10002FFD002098E700004C000020F8B5044666
:104C20000F4616462C4890F8240010B94FF0FF307C
:104C3000F8BD2948807A10B94FF0FF30F8E7264ACE
:104C40001268917A244A526810786B460222FFF764
:104C5000D9FB10B14FF0FF30EAE79DF801009DF855
:104C6000001040EA0125A54203DA00203070401E02
:104C7000DEE7194840684088B5EB600F17DD164A3B
:104C80001268517C144A526810786B460122FFF773
:104C9000B9FB10B14FF0FF30CAE79DF8000000F0FB
:104CA000100020B100F05AF86FF00100C0E7E2B246
:104CB000094B1B68D97A084B5B6818783B46FFF7AD
:104CC000A1FB10B14FF0FF30B2E795FBF4F0401EAE
:104CD00030700020ACE700004C000020F8B504461E
:104CE0000D46164616B94FF0FF30F8BD1A48807AC7
:104CF00010B94FF0FF30F8E720128DF80000E0B255
:104D00008DF801009DF8010028441349496849893C
:104D1000884202DD4FF0FF30E7E70F4A1268117E4C
:104D20000D4A526810786B460222FFF7A6FB10B1BD
:104D30004FF0FF30D9E7EAB2074B1B68597D064BAD
:104D40005B6818783346FFF75DFB10B14FF0FF301A
:104D5000CBE70020C9E700004C00002008B56D48F3
:104D6000807A10B94FF0FF3008BD00200090694AEA
:104D70001268D17B674A526810786B460122FFF7B0
:104D80007CFB10B14FF0FF30EEE7624A12685179B8
:104D9000604A526810786B460122FFF76EFB10B133
:104DA0004FF0FF30E0E75B4A12681179594A5268C8
:104DB00010786B460122FFF760FB10B14FF0FF3017
:104DC000D2E7544890F82400002850D00C200090DE
:104DD000504A126811794F4A526810786B46012286
:104DE000FFF74BFB10B14FF0FF30BDE7C020009044
:104DF0004848807A00F0010020B19DF8000040F0A2
:104E000020000090434A12681179424A5268107893
:104E10006B460122FFF731FB10B14FF0FF30A3E7E3
:104E20003C48407C10B10220009001E0002000903E
:104E3000384A1268D17B374A526810786B46012293
:104E4000FFF71BFB10B14FF0FF308DE70020009003
:104E5000304A126851792F4A526810786B46012205
:104E6000FFF70BFB002852D04FF0FF307CE7042007
:104E70000090284A12681179264A526810786B46C9
:104E80000122FFF7FAFA10B14FF0FF306CE721482A
:104E9000807C20B91F48807A00F0010010B94020C2
:104EA000009001E0602000901A4A12681179194AB6
:104EB000526810786B460122FFF7DFFA10B14FF00D
:104EC000FF3051E71348407C10B10120009001E011
:104ED000002000900F4A1268D17B0E4A5268107869
:104EE0006B460122FFF7C9FA10B14FF0FF303BE7E4
:104EF000084A12685179074A52681078054B1033F6
:104F00000122FFF7BAFA10B14FF0FF302CE7002072
:104F10002AE700004C0000202DE9F04F8DB08346B9
:104F20000F4602200C90424890F8240020B1002047
:104F300000F068F9012600E0002603A8FFF728FC2E
:104F400005A8FFF7CDFB01A8FFF76CFC02A8FFF74F
:104F500091FC374890F80AA004A8FFF711FC002440
:104F600007E0002239465846FEF78CFF00B902E000
:104F7000641C022CF5DB00BF022C01D1002528E0C7
:104F8000002407E0012206A909A8FEF77BFF00B96B
:104F900002E0641C022CF5DB00BF022C01D10025CD
:104FA00017E006A93846FDF71FFD00F0FF0809A924
:104FB0005846FFF79FF900F0FF090025B9F1000FEF
:104FC00001D145F00105B8F1000F01D145F002050E
:104FD00000BFFF2016490872FF2115484172C172B7
:104FE0004FF6FF71C181FF218172017401210173AC
:104FF000BDF80C0000F04EF99DF8140000F01AF80E
:10500000BDF8040000F0C0F9BDF8080000F0FEF99A
:10501000504600F049FA9DF81000FFF729FB16B141
:10502000012000F0EFF828460DB0BDE8F08F000039
:105030004C00002038B504461E48807A10B94FF065
:10504000FF3038BD022C06D0042C07D0082C08D025
:10505000102C0CD108E0002000900BE008200090FC
:1050600008E01020009005E01820009002E04FF0CA
:10507000FF30E6E700BF0F48407A9DF80010B0EB24
:10508000E10F01D10020DCE70A4A1268D179094A10
:10509000526810786B460122FFF7EFF910B14FF01C
:1050A000FF30CEE79DF80000C11002484172002099
:1050B000C7E700004C00002038B504465048807C0B
:1050C000A04201D1002038BD002C46D04C4A1268C5
:1050D00011794B4A526810786B460122FFF792F91A
:1050E00010B14FF0FF30EEE79DF8000020F02000F7
:1050F0000090434A12681179414A526810786B4611
:105100000122FFF7BAF910B14FF0FF30DBE70320BF
:10511000FEF74AF802200090394890F8220020B1AA
:105120009DF8000040F080000090354890F8230082
:1051300020B19DF8000040F030000090304A126825
:10514000117D2F4A526810786B460122FFF795F9BE
:10515000002851D04FF0FF30B5E7294A1268117985
:10516000274A526810786B460122FFF74BF910B1BD
:105170004FF0FF30A7E72248807A00F0010028B105
:105180009DF8000040F02000009004E09DF8000031
:1051900020F0200000901A4A12681179184A5268CB
:1051A00010786B460122FFF768F910B14FF0FF301D
:1051B00089E70320FDF7F8FF114890F8220010B1AD
:1051C0008020009001E0002000900D4890F823001E
:1051D00020B19DF8000040F030000090084A1268AD
:1051E000117D074A526810786B460122FFF745F996
:1051F00010B14FF0FF3066E701488474002062E789
:105200004C00002038B50446214890F82400A04204
:1052100001D1002038BD24B31D4890F8250010B9F5
:105220004FF0FF30F6E7002000F0B6FC0020FFF75B
:1052300043FF1749C88C00F0E9F80020009014499A
:10524000496808786B4601222321FFF716F90121EE
:105250000F4880F82410012000F09EFCFFF77EFD2F
:1052600013E0002000F098FC0948007C00900849F9
:10527000496808786B4601222321FFF7FEF80021D8
:10528000034880F82410FFF769FD0020C2E7000002
:105290004C00002038B504461F48807A10B94FF002
:1052A000FF3038BDFA2C09D0B4F5FA7F09D0B4F537
:1052B0007A7F09D0B4F5FA6F0CD108E00020009095
:1052C0000BE00820009008E01020009005E0182076
:1052D000009002E04FF0FF30E3E700BF0E48007A95
:1052E0009DF80010B0EBE10F01D10020D9E70A4A88
:1052F00012689179084A526810786B460122FFF7CC
:10530000BCF810B14FF0FF30CBE79DF80000C010A3
:10531000014908720020C4E74C00002038B504465B
:10532000184890F82300A04201D1002038BD14B1E4
:105330003020009001E0002000901248807C20B1D5
:105340009DF8000040F0020000900E4890F8220006
:1053500020B19DF8000040F080000090094A1268DA
:10536000117D084A526810786B460122FFF785F8D4
:1053700010B14FF0FF30D9E7024880F823400020F9
:10538000D4E700004C00002038B504461E48807A5F
:1053900010B94FF0FF3038BDBC2C02DB012000906B
:1053A00015E0622C02DB0220009010E02A2C02DBC8
:1053B000032000900BE0142C02DB0420009006E098
:1053C0000A2C02DB0520009001E0062000900E4828
:1053D000C07A9DF80010884201D10020DBE70A4A1C
:1053E00012689178084A526810786B460122FFF7DC
:1053F00044F810B14FF0FF30CDE79DF8001002489F
:10540000C1720020C7E700004C00002038B50446F8
:105410002448807A10B94FF0FF3038BD214890F809
:10542000240010B14FF0FF30F7E71E48007D50B167
:1054300034B1282C04DCE0B2FFF780FB0020ECE75D
:105440000020FFF77BFB042C01DA042404E0B4F510
:105450007A7F01DD4FF47A744FF47A7090FBF4F0A8
:10546000401EC0B200900F4A126851780D4A52682F
:1054700010786B460122FFF700F810B14FF0FF30B3
:10548000CBE79DF80000401C4FF47A7191FBF0F0DF
:1054900081B20448C1810146C9894810FFF774FFF1
:1054A0000020BAE74C00002038B5044604F0700034
:1054B00010B10120009005E014B10020009001E03F
:1054C000402000902B4A1268917C2A4A526810783A
:1054D0006B460122FEF7D1FF20B1002125488172E1
:1054E000481E38BD9DF8000020F04001214801739E
:1054F0000020009004F0400020B99DF8000040F02A
:105500000400009004F0200020B99DF8000040F055
:105510000200009004F0100020B99DF8000040F057
:105520000100009004F0080020B99DF8000040F050
:10553000380000900F4A1268D17C0E4A52681078E9
:105540006B460122FEF799FF20B1002109488172C4
:10555000481EC6E724B1082C02D00020FFF7DEFE6B
:1055600004488472002101753220FDF71DFE0020E1
:10557000B7E700004C000020F8B504460D4616467B
:1055800016B94FF0FF30F8BD1A48807A10B94FF0C5
:10559000FF30F8E720128DF80000E0B28DF801002E
:1055A0009DF801002844134949684989884202DD71
:1055B0004FF0FF30E7E70F4A1268117E0D4A52683C
:1055C00010786B460222FEF758FF10B14FF0FF3003
:1055D000D9E7EAB2074B1B68597D064B5B68187820
:1055E0003346FEF74AFF10B14FF0FF30CBE7002003
:1055F000C9E700004C00002070470000F8B5002605
:10560000394890F8500000286DD00020364981F8C4
:10561000500036A0FBF7EAFA334939A0FBF7E6FA67
:1056200000BF5EE046B937A12F48FAF7D0FD041E4F
:1056300055D10120FEF7B6FB641C32A12046FAF7D3
:10564000C6FD051E48D0072E2ED2DFE806F02D0439
:105650000B11181F26002A1B214623485230FAF747
:1056600092FD22E02A1B21466846FAF78CFD1CE0D9
:105670002A1B21461C485D30FAF785FD15E02A1BE0
:10568000214619486830FAF77EFD0EE02A1B2146B4
:1056900015486A30FAF777FD07E02A1B21461248C1
:1056A0007630FAF770FD00E000BF00BF2C46012005
:1056B0000D4981F851009DF80000412803D10120D7
:1056C00081F87D0007E09DF80000562803D10020F6
:1056D000054981F87D0002E00220FEF763FB701CA3
:1056E000C6B2062E9EDDF8BD6C0100202A2A2A2AA9
:1056F0002A2A2A2A2A2A2A2A2A2A0D0A00000000EF
:10570000257300002C0000002DE9F05FC64890F8DA
:10571000510000287ED00020C34981F8510008467E
:1057200090F87D00002876D0C0A0FBF75FFABE4954
:105730005D31C4A0FBF75AFAC3A0FBF757FAC3A028
:10574000FBF754FAB8496831BEA0FBF74FFABEA088
:10575000FBF74CFAC2A0FBF749FAB3496A31B9A08A
:10576000FBF744FAB8A0FBF741FAC3A0FBF73EFAF7
:10577000AD497631B3A0FBF739FAB3A0FBF736FA9F
:105780004FF0000A002500242AE0A7485D30005DA4
:105790002E2800D123E0012C0FDCA34991F85E10E4
:1057A0003039A14A92F85D20303A02EB820201EBD7
:1057B0004200FAF70CFF804610E09B495D31095D1D
:1057C000A1F13000FAF703FF83465146FAF71EFDB8
:1057D0008246AE495046FAF771FD824600BF641C0E
:1057E00091485D30005D0028CFD1002505E0A74934
:1057F0005046FAF795FD82466D1C052DF7DDA4494C
:105800005046FAF78DFD83464146FAF7FFFC804685
:10581000002701E006E101E14046FAF7E6FE07460F
:105820000A2097FBF0F030307F4981F85D000A20B4
:1058300097FBF0F100FB11703030C1B27A4880F86C
:105840005E102E2180F85F103846FAF7C0FE8346BE
:105850004146FAF730FD8046032517E08B49404664
:10586000FAF72CFD80464046FAF7BFFE074607F1DF
:105870003000C1B26C485D3041553846FAF7A7FE9A
:1058800083464146FAF717FD80466D1C0A2DE5DB7D
:105890004FF0000A002432E063486A30005D2E2891
:1058A00000D12BE0022C17DC5F4991F86B103039E6
:1058B0005D4A92F86A20303A02EB820201EB420123
:1058C00001EB8102584991F86C10303901EB42002C
:1058D000FAF77DFE814610E053496A31095DA1F176
:1058E0003000FAF774FE83465146FAF78FFC824681
:1058F00066495046FAF7E2FC824600BF641C4A48FB
:105900006A30005D0028C7D1002505E05F49504698
:10591000FAF706FD82466D1C052DF7DD00265C4971
:105920005046FAF7FDFC83464946FAF76FFC81467C
:105930004846FAF75AFE0646642096FBF0F03030EF
:10594000394981F86A00642096FBF0F100FB116090
:105950000A2190FBF1F03030C1B2334880F86B106F
:105960000A2096FBF0F100FB11603030C1B22E48E6
:1059700080F86C102E2180F86D103046FAF727FE63
:1059800083464946FAF797FC8146042517E03F49CC
:105990004846FAF793FC81464846FAF726FE064643
:1059A00006F13000C1B220486A3041553046FAF75E
:1059B0000EFE83464946FAF77EFC81466D1C0B2D90
:1059C000E5DB34A0FBF712F917495D311DA0FBF7A9
:1059D0000DF91DA0FBF70AF931A0FBF707F91249F1
:1059E000683118A0FBF702F917A0FBF7FFF82EA00B
:1059F000FBF7FCF80C496A3112A0FBF7F7F812A08C
:105A0000FBF7F4F82CA0FBF7F1F8074976310DA06D
:105A1000FBF7ECF80CA0FBF7E9F802E028A0FBF795
:105A2000E5F800BFBDE8F09F6C010020536176658A
:105A30005F446174612E6C61746974756465203DA6
:105A400020000000257300000D0A000053617665F8
:105A50005F446174612E4E5F53203D2000000000C2
:105A6000536176655F446174612E6C6F6E67697413
:105A7000756465203D200000536176655F44617464
:105A8000612E455F57203D200000000000002041AE
:105A9000000070426C61746974756465203D20007B
:105AA0004E5F53203D2000006C6F6E676974756413
:105AB00065203D2000000000455F57203D2000008C
:105AC0004750532044415441206973206E6F742025
:105AD00075736566756C6C210D0A000070B588B031
