:020000040800F2
:100000004005002001010008D51A000881170008EA
:10001000D11A00080F0E0008BF33000800000000CE
:10002000000000000000000000000000392400086B
:100030007912000800000000CD210008E527000823
:100040001B0100081B0100081B0100081B01000820
:100050001B0100081B0100081B0100081B01000810
:100060001B0100081B0100081B0100081B01000800
:100070001B0100081B0100081B0100081B010008F0
:100080001B0100081B0100081B0100081B010008E0
:100090001B0100081B0100081B0100081B010008D0
:1000A0001B0100081B0100081B0100081B010008C0
:1000B0002D2B00081B0100081B0100081B01000874
:1000C0001B0100081B0100081B0100081B010008A0
:1000D0001B010008C93000086D3100081B01000831
:1000E0007D1200081B0100081B010008DFF80CD07E
:1000F00000F064FC00480047053E00084005002071
:100100000648804706480047FEE7FEE7FEE7FEE7B1
:10011000FEE7FEE7FEE7FEE7FEE7FEE7E927000869
:10012000ED000008D2B201E000F8012B491EFBD21D
:1001300070470022F6E710B513460A4604461946F2
:10014000FFF7F0FF204610BDF0B480EA0102D40FA3
:100150004200B2EB410F02D20246084611464A0065
:1001600042D0C30DDDB2C1F3C752AD1A202D35DA2E
:10017000C1F3160141F4000204B15242C5F1200658
:1001800002FA06F12A411044B3EBD05F23D0C4B188
:10019000012DA0EBC35009DCF0BC4FF0004202EA95
:1001A000C352DBB200F5000000F04DBB400000F18F
:1001B000807000EBC350A0F1807040EAD17049001C
:1001C00009E0490841EAC071A0EBC35000F5000006
:1001D000400800EBC350F0BC00F02CBB6142012290
:1001E00002EB4101001BF6E7F0BC704781F00041D3
:1001F000AAE780F00040A7E780EA010210B502F00C
:100200000043400022D04A001FD0010E01EB1261D2
:10021000C0F35600C2F3560240F4000042F400025C
:10022000A0FB022000047F39140400D0401C50EAD7
:10023000124001D44000491EC2B20C0604EBD0109B
:10024000401C4008802A02D003E0002010BD20F0AE
:100250000100002900DA0020184310BD30B480EA04
:10026000010202F0004530F0004221F0004013D0BE
:1002700090B1C30DD40DC2F31601C0F31600E41AF9
:1002800041F4000140F400027D34914201D3641C2A
:1002900000E04900002C02DA30BC002070474FF427
:1002A00000000023914201D3891A034340084FEA1A
:1002B0004101F7D151B1914202D14FF0004105E027
:1002C00002D24FF0010101E06FF0010103EBC450D5
:1002D000284430BC00F0AEBA2DE9FE4F804681EADA
:1002E0000300C00F0C46009021F0004123F00045B0
:1002F000B8EB0200A94105D24046214690461C4673
:100300000B46024623F00040104347D0270DC7F3A9
:100310000A00C3F30A510290401A019040286BDA98
:10032000C3F3130040F4801B0098924620B10023D1
:10033000D2EB030A63EB0B0B01985946C0F1400264
:10034000504600F046FA06460D4650465946019A78
:1003500000F05EFA10EB08006141002487EA1152B8
:1003600084EAE7731A4340D0009A62B3019A012AE3
:100370004FEA075215DC001B61EB02014FF000420F
:1003800002EA0752CDE90042001C41F580113246D5
:100390002B4600F095FA03B0BDE8F08F40462146A9
:1003A000F9E7001B61EB0201001C41F58013001806
:1003B0005B412018A2F5001747EB030140EAD57016
:1003C000B6196D4111E06D084FEA360645EAC07571
:1003D0004FEA0752001B61EB0201001C41F580113E
:1003E00049084FEA30000019514132462B4603B00C
:1003F000BDE8F04F00F055BA0098012240000023FC
:10040000D0EB020263EBE073009821464FEAE07400
:10041000B8EB000061EB0401E9E783F000435BE720
:1004200081F0004158E72DE9FE4F81EA030404F012
:10043000004421F0004100944FF0000B23F00043F2
:1004400050EA01045ED052EA03045BD0C3F30A54BD
:10045000C1F30A552C44A4F2F3340194A0FB0254D6
:10046000C1F3130141F48011C3F3130343F4801368
:1004700001FB024400FB034E840A970A44EA8154BC
:1004800047EA8357A4FB076802958D0A05FB078599
:100490004FEA932C04FB0C542705029D4FEA0658A3
:1004A00047EA1637B5EB08056EEB070C870E920E80
:1004B00047EA811742EA8312A7FB0201B6EB0B0160
:1004C00064EB00042B0D43EA0C335E1844EB1C5024
:1004D000DA465146E7FB0201C5F313044FEA0B333A
:1004E00043EA14534FEA0432019C43EA0603A4F1A1
:1004F0000C040294009CCDE900B400F0E1F903B0D3
:10050000BDE8F08F00200146F9E72DE9F04D81EAC2
:10051000030404F0004B21F0004514464FF0000A9C
:1005200023F0004150EA050220D054EA01021DD018
:10053000C5F30A570246C5F31303C1F31300C1F311
:100540000A5640F4801543F48013A7EB0608101BED
:10055000D64608F2FD3873EB050002D308F1010816
:1005600001E092185B41B8F1000F03DA0020014668
:10057000BDE8F08D00204FF48011064684460EE061
:10058000171B73EB050705D3121B63EB050306432B
:100590004CEA010C49084FEA300092185B4150EADE
:1005A0000107EDD152EA030012D082EA040083EA87
:1005B0000501084305D0101BAB4106D201220023E0
:1005C00006E000224FF0004302E06FF001025310FA
:1005D0001AEB06004CEB085110EB0A0041EB0B0143
:1005E000BDE8F04D00F05DB9C10F80EAE07008444D
:1005F000CA079623002100F026B99623002211464F
:1006000000F021B90EB5C10F80EAE0700844CA07B6
:10061000002140F233438DE80E000A460B4600F0FD
:100620004FF903B000BD00F0004220F00040C10DC2
:10063000C0F3160040F400007F2901DA0020704763
:10064000962903DCC1F19601C84001E09639884043
:10065000002AF4D04042704720F00040C10DC0F3A2
:10066000160040F400007F2901DA00207047962927
:1006700003DCC1F19601C840704796398840704745
:1006800070B5C1F30A5201F000450024C1F3130113
:1006900040F2FF3341F480119A4201DA002070BD2C
:1006A00040F233439A42A2F2334203DC524200F05A
:1006B0009FF800E090402C43F1D0404270BD00F024
:1006C000004230F000400AD0C10D01F56071C0F366
:1006D000160042EA0151C20840071143704700204A
:1006E0000146704701F0004330B421F0004150EA68
:1006F000010206D00A0DA2F56072C1F31301002AAF
:1007000002DC30BC00207047440F44EAC104C10041
:10071000E01830BC00EBC25000F08CB8002801DBC0
:10072000C0F10040002901DBC1F100418142704766
:10073000002801DBC0F10040002901DBC1F10041CC
:100740008842704730B50B46014600202022012424
:1007500009E021FA02F59D4205D303FA02F5491B8F
:1007600004FA02F52844151EA2F10102F1DC30BDA5
:100770002DE9F05F0546002092469B4688460646D6
:10078000814640241BE0284641464746224600F069
:100790002FF853465A46C01A914110D311461846B5
:1007A000224600F016F82D1A67EB01084F46224644
:1007B0000120002100F00DF817EB00094E41201E2A
:1007C000A4F10104DFDC484631462A464346BDE831
:1007D000F09F202A04DB203A00FA02F10020704743
:1007E0009140C2F1200320FA03F31943904070476F
:1007F000202A04DB203A21FA02F00021704721FA76
:1008000002F3D040C2F120029140084319467047DC
:10081000202A06DBCB17203A41FA02F043EAE073C4
:1008200006E041FA02F3D040C2F1200291400843B1
:10083000194670470029A8BF7047401C490008BFEF
:1008400020F00100704710B4B0FA80FC00FA0CF000
:1008500050EA010404BF10BC704749B1CCF1200438
:1008600021FA04F411FA0CF118BF012121430843C5
:10087000A3EB0C01CB1D4FEA00614FEA102042BFF1
:10088000002010BC704700EBC35010440029A4BFE7
:1008900010BC7047401C490008BF20F0010010BC8C
:1008A000704710B5141E73F1000408DA401C41F1C2
:1008B000000192185B411A4301D120F0010010BDE4
:1008C0002DE9F04D92469B4611B1B1FA81F202E05A
:1008D000B0FA80F220329046FFF77BFF04460F46C5
:1008E00040EA0A0041EA0B0153465A46084313D036
:1008F000114653EA010019D0C8F140025046FFF7F3
:1009000077FF05460E46504659464246FFF761FFBF
:10091000084305D0012004E020463946BDE8F08DAB
:100920000020054346EAE0762C4337430A986305E6
:10093000E40AA0EB08000022FD0A44EA47540A300A
:1009400002D500200146E9E7010510196941DDE9FA
:10095000084500196941BDE8F04DA2E7C1F30A520C
:10096000C1F3130140F2FF3341F480119A4202DADD
:1009700000200146704740F233439A42A2F23342CC
:1009800002DC5242FFF734BFFFF723BF30B5041E2D
:1009900071F1000404DB4FF00044404264EB0101BC
:1009A000141E73F1000405DB1C464FF00043524255
:1009B00063EB0403994208BF904230BD064C074DDB
:1009C00006E0E06840F0010394E80700984710341F
:1009D000AC42F6D3FFF78EFB3046000850460008C5
:1009E00021B1826842F00102826003E0826822F055
:1009F00001028260704721B1826842F48072826095
:100A000003E0826822F48072826070470146002011
:100A10008A6802F004020AB1012000E00020704759
:100A2000014600208A6802F008020AB1012000E0B5
:100A30000020704730B502460020002350680F4C5C
:100A400020400D790C6844EA0524204350609068EA
:100A50000B4C2040D1E902542C434D7944EA450423
:100A600020439060D06A20F470000C7C641EE4B2D5
:100A7000234340EA0350D06230BD0000FFFEF0FF88
:100A8000FDF7F1FFF0B504460D4600200021092DC9
:100A900011DDE068A5F10A0606EB4607072606FA0F
:100AA00007F18843A5F10A0606EB460603FA06F1AC
:100AB0000843E0600CE0206905EB4507072606FACD
:100AC00007F1884305EB450603FA06F10843206168
:100AD000072A0FDA606B561E06EB86071F2606FAFA
:100AE00007F18843561E06EB860605FA06F1084311
:100AF000606322E00D2A0FDA206BD61F06EB860713
:100B00001F2606FA07F18843D61F06EB860605FA6C
:100B100006F10843206310E0E06AA2F10D0606EB3F
:100B200086071F2606FA07F18843A2F10D0606EB99
:100B3000860605FA06F10843E062F0BD816841F0DF
:100B400008018160704721B1826842F4A00282608E
:100B500003E0826822F4A00282607047816841F05D
:100B6000040181607047000000B591B00121480286
:100B700001F0C6FB0121042001F0C2FB012108465F
:100B800001F09EFB4FF4004001F08EFB00208DF839
:100B900043003020ADF8400003208DF8420010A93A
:100BA000304800F0CDFC0523012204212E48FFF738
:100BB00069FF0523022219462B48FFF763FF002037
:100BC0000B900E904FF460200D9001208DF83100B5
:100BD0008DF8300002208DF83C000BA92248FFF769
:100BE00029FF21484C300090801506900020049089
:100BF0001E4801904FF480600790802005900020EF
:100C00000290022003902020089000200A904FF4C8
:100C1000805009906946164800F078F9012114487F
:100C200000F068F901211048FFF7E5FE01210E48A8
:100C3000FFF7D6FE0C48FFF781FF00BF0A48FFF719
:100C4000EFFE0128FAD00848FFF788FF00BF0648EA
:100C5000FFF7DCFE0128FAD001210348FFF773FFFC
:100C600011B000BD00080140002401401400002024
:100C70000800024008B50121082001F041FB4FF4B3
:100C80008040ADF8000010208DF8030003208DF89F
:100C900002006946084800F053FC4FF480410648C2
:100CA00000F024FD0A2003F00DF84FF480410248C3
:100CB00000F01AFD08BD0000000C014070B50646AA
:100CC0000C46002500BF13E04FF480410A4800F0B5
:100CD0000DFD304602F0F6FF4FF48041064800F06B
:100CE00003FD681CA04202D0304602F0EBFF6D1CF1
:100CF000A542E9DB70BD0000000C0140F0B587B0F3
:100D000007460C4615461E460121480401F0E8FA44
:100D10000121042001F0F4FA18208DF81B000420B2
:100D2000ADF8180003208DF81A0006A91E4800F03F
:100D300007FC48208DF817000820ADF814000320A8
:100D40008DF8160005A9184800F0FAFB019700205D
:100D5000ADF810000C20ADF80E00ADF80C40ADF869
:100D60000A50ADF8086001A9104802F0B3FA012258
:100D700040F225510D4802F088FA4FF4A06000F0CF
:100D8000E3FE26208DF8000001208DF802008DF88A
:100D900001008DF80300684600F09EFE0121034823
:100DA00002F030FA07B0F0BD0008014000440040F6
:100DB00010B504462146054802F0FDFA00BF802127
:100DC000024802F02BFA0028F9D010BD0044004080
:100DD0000FB400B59BB01DA8019002A8019A1C9900
:100DE00002F0F0FA0020019002A800F003F81BB016
:100DF0005DF814FB70B50446002504E0605DFFF764
:100E0000D7FF681C85B2605D0028F7D170BD00BFB8
:100E1000FEE7000010B540210348FFF78AF90020E3
:100E20000249088010BD0000FC0000205C0000208A
:100E30001FB50121082001F063FA0121084601F0E5
:100E40005FFA4FF48050ADF80C0010208DF80F00C1
:100E500003208DF80E0003A91B4800F071FB482009
:100E60008DF80F004FF40050ADF80C0003208DF802
:100E70000E0003A9144800F063FB0D21012000F0CF
:100E80003FFB4FF40050019001208DF80A00002034
:100E90008DF8080010208DF8090001A800F02AFA4A
:100EA0004FF4A06000F050FE28208DF800000120D3
:100EB0008DF803008DF8010002208DF802006846CD
:100EC00000F00AFE1FBD0000000C014010B53224E6
:100ED0004FF48051064800F009FC00BF201EA4F129
:100EE0000104FBD14FF48051014800F0FDFB10BD1F
:100EF000000C014021B1026842F00102026004E0EE
:100F000002684FF6FE731A400260704710B5002267
:100F1000026847F6F0739A430C6A8B6823430C69A6
:100F200023434C6923438C692343CC6923434C6A94
:100F300023438C6A23431A430260CB6843600B68E7
:100F400083604B68C36010BD10B50821054800F0F0
:100F5000CBFB1021034800F0C9FB4FF0FF300249E2
:100F6000086010BD000C01403000002070B515482D
:100F70000068002802DDFFF7E7FF05E01148006880
:100F8000002801DA00F024F80F4801680F48FFF745
:100F900033F90546FFF747FB044600F0B5F80A4869
:100FA0000068FFF740FB0F2190FBF1F0052190FB5B
:100FB000F1F201FB1200041D204602F083FE00F056
:100FC0003FF970BD30000020340000200000A04038
:100FD00010B50821054800F089FB1021034800F0F6
:100FE00083FB01200249086010BD0000000C014095
:100FF0003000002008B50121092001F081F901210C
:10100000094800F029FB1820ADF8000010208DF8E9
:10101000030003208DF802006946044800F090FAAE
:1010200000F00EF908BD000000023000000C014085
:101030002DE9FE4F044689462046FFF7F4FA824622
:1010400000200290834600212046FFF767FB0ED266
:10105000FFF77AFF84F000452846FFF7E4FA82465E
:10106000022300220321204801F0D9FD01E0FFF70F
:10107000AFFF00201D490860834628E01B48006838
:10108000FFF7C0FA07461A4A1A4BFFF7CCF90022BD
:10109000194BCDE90001FFF738FA0546FFF722FBAF
:1010A00083465846FFF7BFFA054601205346CDE96F
:1010B000005012480268124801681248006801F0A6
:1010C00087F80290029901EB090000F01DF8AAF1DF
:1010D0000200FFF789FA05465946FFF729FBCDD3F1
:1010E000FFF744FFBDE8FE8F0008004038000020F5
:1010F000F4FDD478E926C13F0000244050000020D0
:101100004C0000204800002070B505462C46002CFD
:1011100000DA0024B4F5FA7F01DD4FF4FA74A1B2CD
:10112000034801F0D7FEA1B2014801F0D1FE70BD25
:10113000000400402DE9FC47044600250026A04697
:1011400000212046FFF7F4FA08D2FFF741FF002301
:101150001A460321314801F062FD0EE000212046CD
:10116000FFF7DCFA09D2FFF7EFFE84F00048022314
:1011700000220321294801F052FD002746E0012109
:10118000042000F0EFFB6D1C25480068FFF74BFAC8
:1011900081464046FFF747FA824601205346CDE993
:1011A000009020480268204801682048006801F04B
:1011B0000FF81F49096847183846FFF7A5FF4FF099
:1011C0007E514046FFF712F88146154801684846AF
:1011D000FFF7A4FA0FD24FF07E514046FEF7B4FF5E
:1011E00081460F4801684846FFF7A2FA03D2761CF1
:1011F0000A2E01DB0BE00026642D07DB0DA0FFF7B4
:10120000E7FD02210320FFF759FD00E0B7E700BF2B
:1012100001210320FFF752FDBDE8FC8700080040D4
:101220003400002044000020400000203C0000204A
:101230002C00002054494D45204F55540D0A000004
:1012400010B50821094800F04FFA1021074800F0B6
:101250004BFA002006490860FFF756FF00231A46A4
:101260000321044801F0DBFC10BD0000000C01402C
:1012700030000020000800407047000010B54FF417
:10128000005000F023F8012815D1800701F0EBFC95
:10129000044609480068844207DD07480068201AB0
:1012A000064908600448046001E0034804604FF404
:1012B000005000F005F810BDEC00002054000020A4
:1012C00001490860704700001404014001460020F5
:1012D0000022074B1B6803EA0102054B14331B680D
:1012E0000B4013B10AB1012000E00020704700005C
:1012F00000040140002123498279002A3AD00A469D
:10130000126803689A430B461A600A1D1268036844
:101310009A430B1D1A60027911440A6803681A4344
:101320000A60184A0832126803689A43154B08335A
:101330001A601A1D126803689A43124B0C331A6024
:101340004279102A0ED11A1F126803681A430D4BF6
:1013500008331A601A1D126803681A43094B0C33CC
:101360001A600DE00749427911440A6803681A437C
:101370000A6005E0027911440A6803689A430A602A
:10138000704700000004014010B5054801F06BFCF7
:1013900004B20021024801F09FFD204610BD00006C
:1013A0000008004000B587B00121042000F098FF3C
:1013B0000121082000F0A4FF48208DF81B00C02068
:1013C000ADF8180003208DF81A0006A91E4800F099
:1013D000B7F81E4801F0C4FC4FF6FF70ADF81000DE
:1013E0000020ADF80C00ADF81200ADF80E008DF83D
:1013F000140003A9154801F09DFD684601F09EFC0C
:101400000020ADF800000F20ADF8080069460F4835
:1014100001F03EFC0420ADF800000F20ADF80800FC
:1014200069460A4801F034FC00231A4603210748A4
:1014300001F0F5FB0121054801F0D6FB0020FFF784
:1014400063FE07B000BD0000000C01400008004032
:1014500010B5114801F066F80A2002F033FC322181
:101460000E48FFF7E5FD002001F05CF80A2002F0CD
:1014700029FC0B4801F056F80A2002F023FC1E213B
:101480000848FFF7D5FD002001F04CF801210320AA
:10149000FFF714FC10BD0000000070C20000704196
:1014A000000070420000B8C110B5114801F03AF8D0
:1014B000142002F007FC1E210E48FFF7B9FD0020A2
:1014C00001F030F80A2002F0FDFB0B4801F02AF889
:1014D0000A2002F0F7FB32210848FFF7A9FD00209F
:1014E00001F020F801210320FFF7E8FB10BD000008
:1014F000000070420000F041000070C2000068C1AE
:1015000030B500228B071C0F0F2303FA04F20B4B9C
:101510008C1053F824309343084C8D1044F8253038
:1015200023468C1053F824308C07240F00FA04F45F
:101530002343024C8D1044F8253030BD0800014093
:101540002DE9F0410246002500260020002300245A
:10155000002791F803C00CF00F0591F803C00CF0C0
:10156000100CBCF1000F03D091F802C04CEA050545
:1015700091F800C0BCF1000F31D0146800202BE0BE
:101580004FF0010C0CFA00F3B1F800C00CEA0306AE
:101590009E4220D183004FF00F0C0CFA03F7BC439E
:1015A00005FA03FC4CEA040491F803C0BCF1280FCF
:1015B00006D14FF0010C0CFA00FCC2F814C00AE08E
:1015C00091F803C0BCF1480F05D14FF0010C0CFAA3
:1015D00000FCC2F810C0401C0828D1D31460B1F838
:1015E00000C0BCF1FF0F34DD546800202EE000F194
:1015F000080C4FF0010808FA0CF3B1F800C00CEA2F
:1016000003069E4221D183004FF00F0C0CFA03F722
:10161000BC4305FA03FC4CEA040491F803C0BCF196
:10162000280F05D100F1080C08FA0CF8C2F8148054
:1016300091F803C0BCF1480F07D100F1080C4FF03E
:10164000010808FA0CF8C2F81080401C0828CED314
:101650005460BDE8F0810000F0B50A460023002484
:101660000021002500F00046B6F1004F02D11D4ECA
:10167000F16901E01B4E7168C0F3034583B200F4C9
:101680004016B6F5401F08D121F07061154E7668FE
:1016900026F07066134F7E6012E000F48016B6F5F7
:1016A000801F06D1032606FA05F4A14341F07061BC
:1016B00006E0460D360103FA06F6B14341F07061CB
:1016C00022B1460D360103FA06F6314300F000461A
:1016D000B6F1004F02D1034EF16101E0014E71609D
:1016E000F0BD00000000014041617047016170479A
:1016F0000AB1016100E041617047000005480088BF
:10170000012804D1002003490880012070470020EF
:10171000FCE700002400002016480078782811D14A
:101720001448407830386421484312498978303968
:1017300001EB810100EB41000E49C97808443038C3
:101740000D4908600B480079792811D10948407982
:1017500030386421484307498979303901EB8101E8
:1017600000EB41000349C979084430380349086057
:1017700070470000FC000020900000209400002032
:1017800000BFFEE721B1028842F48062028004E0DB
:1017900002884FF6FF331A400280704770B5024648
:1017A0000024002500230020958A138B1B0445EAA2
:1017B000030626F07F4404EA01068E4201D101208F
:1017C00000E0002070BD21B1028842F001020280D9
:1017D00004E002884FF6FE731A400280704721B180
:1017E000028842F48072028004E002884FF6FF63B0
:1017F0001A400280704721B1028842F400720280D0
:1018000004E002884FF6FF531A4002807047000040
:101810002DE9F04385B004460D460026B146042765
:10182000DFF8CC80A6884FF6C0700640684600F00E
:1018300077FDDDF808802F48B8FBF0F01FFA80F93B
:1018400046EA0906A68020884FF6FE7108402080EF
:1018500000262949286888420CD828684000B8FB2F
:10186000F0F087B2042F00DA04273E4309F10100AB
:10187000208427E0E8884BF6FF71884206D128686B
:1018800000EB4000B8FBF0F087B209E0286800EBFD
:10189000C00101EB0010B8FBF0F087B247F48047BD
:1018A000C7F30B0008B947F0010747F400400643AF
:1018B0004FF4967009FB00F04FF47A7190FBF1F051
:1018C000401C2084A683208840F0010020802688C8
:1018D0004FF6F5300640A8886989084306432680FC
:1018E000A88929890843208105B0BDE8F08300005C
:1018F00000127A0040420F00A08601000146088ACB
:10190000C0B2704712B141F0010102E04FF6FE7320
:1019100019400182704701827047000008B501211B
:10192000082000F0EDFC4FF40040ADF8000010205E
:101930008DF8030003208DF8020069460848FFF780
:10194000FFFD4FF400410648FFF7D0FE0A2002F0E9
:10195000B9F94FF400410248FFF7C6FE08BD000088
:10196000000C014070B506460C46002500BF13E090
:101970004FF400410A48FFF7B9FE304602F0A2F9E1
:101980004FF400410648FFF7AFFE681CA04202D0AA
:10199000304602F097F96D1CA542E9DB70BD0000EE
:1019A000000C014000B585B00121880500F098FCCD
:1019B0000121082000F0A4FC1C208DF813004FF436
:1019C0004060ADF8100003208DF8120004A91C48F7
:1019D000FFF7B6FD0020ADF804004CF25030009047
:1019E0004BF6FF70ADF806004FF48060ADF80A00CA
:1019F0000001ADF80C000020ADF808006946114860
:101A0000FFF706FF01210F48FFF7DDFE01216B20E4
:101A100000F02CF800216C2000F028F80921192092
:101A200000F024F806211A2000F020F818211B20CD
:101A300000F01CF818211C2000F018F805B000BDBB
:101A4000000C01400058004070B505460E4642F2B9
:101A5000107402E0641E04B905E031462846FFF721
:101A60009DFE0128F6D100BF70BD000070B5044690
:101A70000D4601211348FFF7B2FE13491148FFF745
:101A8000E3FF0022D0210F48FFF73CFF0F490D482C
:101A9000FFF7DAFF21460B48FFF73DFF0B49891E90
:101AA0000848FFF7D1FF29460648FFF734FF0749EA
:101AB000891C0448FFF7C8FF01210248FFF79BFE7D
:101AC00070BD0000005800400100030082000700C4
:101AD00000BFFEE77047000070B5002100230F2211
:101AE000C47804B3154C246804F4E064C4F5E064DD
:101AF000210AC1F10403CA40447804FA03F184784E
:101B00001440214309010E4C0678A155047804F0D5
:101B10001F050124AC4005786D11AD0005F1E025ED
:101B2000C5F8004109E0047804F01F050124AC4029
:101B3000044D0678761145F8264070BD0CED00E0A6
:101B400000E400E080E100E002490143024A116044
:101B5000704700000000FA050CED00E070B50024AD
:101B60000EE00021204600F0EAF8002504E0002005
:101B700000F076F9681CC5B2802DF8DB601CC4B299
:101B8000082CEEDB70BD000008B50121042000F038
:101B9000B7FB14208DF8030003208DF8020001200C
:101BA000ADF8000069460A48FFF7CAFC0220ADF80C
:101BB000000069460648FFF7C3FC012211460448AD
:101BC000FFF796FD012202210148FFF791FD08BDB4
:101BD0000008014070B50546002413E08020204134
:101BE00000EA050202210E48FFF782FD012211469C
:101BF0000B48FFF77DFD002201210948FFF778FD22
:101C0000601CC4B2082CE9DB012211460448FFF72E
:101C10006FFD002201210248FFF76AFD70BD000040
:101C20000008014010B5012202210948FFF760FDBC
:101C3000012211460648FFF75BFD002202210448FD
:101C4000FFF756FD002201210148FFF751FD10BDAD
:101C50000008014010B5002202210748FFF748FDA7
:101C6000012211460448FFF743FD012202210248E8
:101C7000FFF73EFD10BD00000008014070B50024D4
:101C800006E0002500E06D1CB5F57A7FFBD3641CEF
:101C9000B4F57A7FF5D3FFF777FFAE2000F0D0F8E8
:101CA000D52000F0CDF8802000F0CAF8A82000F080
:101CB000C7F83F2000F0C4F8D32000F0C1F800209E
:101CC00000F0BEF8402000F0BBF8A12000F0B8F80A
:101CD000C82000F0B5F8DA2000F0B2F8122000F0C9
:101CE000AFF8812000F0ACF8CF2000F0A9F8D9209F
:101CF00000F0A6F8F12000F0A3F8DB2000F0A0F837
:101D0000302000F09DF8A42000F09AF8A62000F002
:101D100097F88D2000F094F8142000F091F8AF208F
:101D200000F08EF8FFF71AFF70BD10B502460120D3
:101D300000E050430B1EA1F10101FAD110BD70B5B6
:101D400005460C4645F0B00000F07AF8102141EA53
:101D5000141000F075F804F00F0000F071F870BD79
:101D60002DE9F04105460E461746721ED206110EA9
:101D70006A1E5206100EFFF7E2FF002409E0A7F1E9
:101D80002001134A02EB0111085D00F069F8601CA4
:101D9000C4B2082CF3DB721ED206110E6A1E012398
:101DA00003EB4202D0B2FFF7CAFF00240BE0A7F119
:101DB0002001074A02EB011204F10801505C00F017
:101DC0004FF8601CC4B2082CF1DBBDE8F0810000C4
:101DD000404000082DE9F04780460E4617461D4654
:101DE000002415E0281B411E0A20FFF79EFFB7FBC9
:101DF000F0F00A21B0FBF1F201FB120000F1300912
:101E00003019C1B24A464046FFF7AAFF601CC4B26F
:101E1000AC42E7DBBDE8F0872DE9F04107460E460E
:101E20001546002407E02A5D3019C1B23846FFF795
:101E300097FF601CC4B2285D0028F4D1BDE8F08192
:101E400010B50446FFF7EEFE7820FFF7C3FE002032
:101E5000FFF7C0FE2046FFF7BDFEFFF7FBFE10BDFB
:101E600010B50446FFF7DEFE7820FFF7B3FE4020F2
:101E7000FFF7B0FE2046FFF7ADFEFFF7EBFE10BD0B
:101E800010B586B00121480500F02AFA012108208A
:101E900000F036FA01210220FFF7DEFB1C208DF84E
:101EA00017004FF44070ADF8140003208DF81600B1
:101EB00005A91B48FFF744FB0020ADF808004CF2D1
:101EC000503001904BF6FF70ADF80A004FF480607F
:101ED000ADF80E000001ADF810000020ADF80C00C8
:101EE00001A91048FFF794FC01210E48FFF76BFC95
:101EF0000021084600F0E8F80B4800F083F80024C1
:101F000000BF06E040F245120021204600F05AF8DA
:101F1000641C102CF6DB002000F03CFB06B010BD6A
:101F2000000C0140005400400000484270B50446D7
:101F300001212148FFF753FC20491F4800F0B2F867
:101F4000002280211C48FFF7DDFC1D491A4800F0E3
:101F5000A9F821461848FFF7DEFC1949891C1648E4
:101F600000F0A0F801211448FFF739FC134912488A
:101F700000F098F8012280210F48FFF7C3FC0F49B9
:101F8000491C0D4800F08EF800210B48FFF7FAFBC2
:101F900001210948FFF72FFC08493F31064800F0AE
:101FA00081F80548FFF7AAFC054601210248FFF722
:101FB000E9FB284670BD000000540040010003000A
:101FC0008200070070B504460D461646E9B2A2002D
:101FD000921DD0B200F078F8A100C91DC8B2C5F3B7
:101FE000072100F071F8F1B2A2000832D0B200F07F
:101FF0006BF8A1000931C8B2C6F3072100F064F8FC
:1020000070BD00002DE9FE4F81464FF07E514846DD
:10201000FEF7F2F88146214802904FF08B4102987A
:10202000FEF71CF9029049460298FEF717F9029054
:102030004FF07E510298FEF7D9F802900298FEF711
:102040003EFB0022164BCDE90001FEF745F907469D
:1020500001F06AFE0546FEF713FB83460020FFF7FA
:1020600065FF044604F07F0040F0100A514600204E
:1020700000F02AF80BF0FF01FE2000F025F82146C1
:10208000002000F021F841F2883001F027FE44F0F2
:10209000A101002000F018F8BDE8FE8F20BCBE4B67
:1020A0000000E03F70B505460E4642F2107402E0B3
:1020B000641E04B905E031462846FFF76FFB01288E
:1020C000F6D100BF70BD000070B504460D46012179
:1020D0001348FFF784FB13491148FFF7E3FF002281
:1020E00080210F48FFF70EFC0F490D48FFF7DAFF7C
:1020F00021460B48FFF70FFC0B49891E0848FFF7E4
:10210000D1FF29460648FFF706FC0749891C044809
:10211000FFF7C8FF01210248FFF76DFB70BD00000B
:1021200000540040010003008200070000B589B0A0
:102130000121022000F0D4F80121042000F0E0F891
:1021400018208DF82300C020ADF8200003208DF862
:10215000220008A91B48FFF7F3F91B4800F000FE16
:102160000020ADF81A00ADF8160040F2F310ADF8FB
:10217000180041F61F40ADF8140000208DF81C0037
:1021800005A9114800F0D6FE01A800F097FE6020D6
:10219000ADF804000020ADF80C000120ADF80600F9
:1021A0000020ADF80A0001A9074800F0DFFD01A9F1
:1021B000054800F031FE0121034800F015FD09B08B
:1021C00000BD00000008014000040040704700000E
:1021D0002DE9FE4F80460C4615461E46DDE90C975C
:1021E0004FF0000AA6EB0900FEF7FEF92B49086044
:1021F0002B48016829480068FDF7F8FF2849086066
:10220000012F2DD108460168B807FDF7F5FF0290B0
:10221000224801680298FDF7ECFF834621480168D7
:102220005846FDF791FF1F4908601D480168284680
:10223000FDF7E2FF02901B4801682046FDF7DCFF36
:102240000190164801684046FDF7D6FF00900199BD
:10225000FDF77AFF83460299FDF776FF824610E08C
:102260007FB90F4801682846FDF7C6FF83460B4833
:1022700001684046FDF7C0FF59460290FDF764FF34
:102280008246074800680749086004480068044916
:1022900008605046FEF7C7F9BDE8FE8FF000002049
:1022A000F4000020F800002001460020034A506896
:1022B00020F4404008435060704700000010024086
:1022C00029B1064A52690243044B5A6104E0034AA9
:1022D00052698243014B5A6170470000001002406E
:1022E00029B1064AD2690243044BDA6104E0034A89
:1022F000D2698243014BDA6170470000001002404E
:1023000029B1064A92690243044B9A6104E0034AE8
:1023100092698243014B9A617047000000100240AD
:1023200030B500210022002400232D4D6D6805F0FA
:102330000C0121B1042905D0082923D105E0294D3C
:10234000056022E0274D05601FE0254D6D6805F40E
:102350007012234D6D6805F48034022505EB92421E
:102360001CB9214D554305600BE01D4D6D6805F40A
:1023700000351DB11C4D5543056002E0194D554314
:10238000056002E0174D056000BF00BF144D6D6889
:1023900005F0F0010909154D6B5C0568DD404560ED
:1023A0000F4D6D6805F4E061090A104D6B5C4568DE
:1023B000DD4085600A4D6D6805F46051C90A0B4D1A
:1023C0006B5C4568DD40C560054D6D6805F44041B6
:1023D000890B074D6B5CC568B5FBF3F5056130BD36
:1023E0000010024000127A0000093D0000000020A9
:1023F0001000002008B501210820FFF781FF01210E
:102400000420FFF77DFF28208DF8030003208DF8BE
:102410000200C002ADF8000069460548FFF790F8D9
:102420002320ADF8000069460248FFF789F808BD8F
:1024300000080140000C0140704710B500F002F8A0
:1024400010BD00000CB500200190009033480068DA
:1024500040F480303149086000BF3048006800F423
:10246000003000900198401C0190009818B9019824
:10247000B0F5A06FF1D12948006800F4003010B128
:102480000120009001E0002000900098012843D135
:102490002348006840F010002149086008460068A1
:1024A00020F0030008600846006840F00200086061
:1024B0001A4840681949486008464068486008461C
:1024C000406840F4806048600846406820F47C1012
:1024D00048600846406840F4E810486008460068D4
:1024E00040F08070086000BF0C48006800F0007089
:1024F0000028F9D00948406820F0030007494860E7
:102500000846406840F00200486000BF0348406849
:1025100000F00C000828F9D10CBD000000100240AA
:10252000002002402DE9F047044614492046FEF7FA
:10253000FFF801D2114C05E011492046FEF7EEF8F4
:1025400000D20F4C4FF07E512046FDF755FE8146DC
:102550000C49FDF751FE80460B49FDF77FFE07460B
:102560000A49FDF7F1FD0646FEF776F885B22946E1
:10257000074800F0ADFCBDE8F087000000007042A5
:10258000000070C200004842000010410080314449
:10259000002C01402DE9F041044614492046FDF786
:1025A0002BFE07461249FDF759FE06461149FDF775
:1025B000CBFD0546FEF737F80F490860084600686E
:1025C000822802DC8220086008E00B480068B0F531
:1025D000027F03DB4FF402700749086006480021C0
:1025E00002680120FFF7EEFCBDE8F0810000024325
:1025F0000000344300809A438C00002010B5002076
:1026000000F0D0F81149086011A201210846FFF737
:1026100003FC0E480068FEF71FF804460323224619
:1026200007210120FFF7D6FB0D4800F019FB0D49EB
:1026300008600DA201210220FFF7EEFB03230948E9
:10264000072102680220FFF7C5FB10BD34000020FF
:1026500053706565643A202020636D2F730000007D
:10266000000400402C000020447574793A2020209A
:10267000250000002DE9F04112A201210320FFF7FF
:10268000CBFB12480068FDF7BDFF0646104A114B10
:10269000FDF7C9FE0446FEF725F80F490860084615
:1026A0000068FDF7D9FF04460423224605210320D4
:1026B000FFF790FB09A209210320FFF7ADFBBDE85E
:1026C000F08100006469733A0000000054000020AB
:1026D000C3F5285C8FC2D53F580000206D6D000007
:1026E0002DE9F04724A201210420FFF795FB0024E7
:1026F00000BF3DE0254931F81400FDF77EFF82461A
:102700002349FDF7ABFD8146FDF7D9FF0746214A76
:10271000214BFDF788FE0546FDF7E4FF1F4941F810
:10272000240051F82400FDF797FF054604EBC40090
:10273000001DC1B201232A460420FFF74BFB1749B5
:1027400051F824001649FDF757FD0646FDF784FFB2
:1027500080B2642190FBF1F201FB120504EBC4008E
:10276000801DC1B202232A460420FFF733FB641CFC
:10277000022CBFDBBDE8F08756343A302E3030569D
:102780002056353A302E303056000000140000201C
:1027900000F07F4521B0726891ED0A4018000020DA
:1027A0000000C8422DE9F0478246FEF7EDFD0446E1
:1027B000094800682044084908602046FDF722FFC8
:1027C0000746064A064BFDF72EFE0546FDF78AFF33
:1027D00081464846BDE8F08738000020F4FDD478F3
:1027E000E926C13F7047000010B51348006840F06B
:1027F00001001149086008464068104908400E4928
:102800004860084600680E4908400B4908600846C1
:10281000006820F4802008600846406820F4FE002C
:1028200048604FF41F008860FFF707FE4FF000601C
:102830000449086010BD0000001002400000FFF8CD
:10284000FFFFF6FE08ED00E0F0B50C46154600224D
:102850000021068C4FF6FE773E400684028B018CE9
:102860004FF60C7632407E1C06EA03162E433243A6
:10287000104EB0420ED0104EB0420BD0B0F1804F8F
:1028800008D00E4EB04205D00D4EB04202D00D4ED3
:10289000B04206D14FF6FD76314044F00106314397
:1028A00005E04FF6F576314044F0010631430283EE
:1028B0000184F0BD002C01400034014000040040C0
:1028C00000080040000C0040F0B50C461546002200
:1028D00000210026078C4FF6EF7C07EA0C070784DF
:1028E000028B018C4FF6FF7707EA041640F6FF478C
:1028F0003A404FF6FF7707EA03373A434FF6FF7740
:1029000007EA05273A43114FB8420ED0104FB8429C
:102910000BD0B0F1804F08D00E4FB84205D00E4F0B
:10292000B84202D00D4FB84206D14FF6DF7739409A
:1029300046F01007394305E04FF65F77394044F021
:102940001007394302830184F0BD0000002C0140D0
:10295000003401400004004000080040000C00402A
:10296000F0B50C461546002200210026078C4FF6D4
:10297000FF6C07EA0C070784828B018C4FF6FF7708
:1029800007EA04264FF60C773A404FF6FF7707EA3E
:1029900003172F433A43114FB8420ED0104FB8429D
:1029A0000BD0B0F1804F08D00E4FB84205D00E4F7B
:1029B000B84202D00D4FB84206D14FF6FF5739400A
:1029C00046F48077394305E04FF2FF57394044F42D
:1029D0008077394382830184F0BD0000002C0140E0
:1029E000003401400004004000080040000C00409A
:1029F000F0B50C461546002200210026078C4EF645
:102A0000FF7C07EA0C070784828B018C4FF6FF7767
:102A100007EA043640F6FF473A404FF6FF7707EAE9
:102A200005273A434FF6FF7707EA03373A43114F3A
:102A3000B8420ED0104FB8420BD0B0F1804F08D042
:102A40000E4FB84205D00E4FB84202D00D4FB842DB
:102A500006D14DF6FF77394046F48057394305E0FB
:102A600047F6FF57394044F4805739438283018445
:102A7000F0BD0000002C0140003401400004004083
:102A800000080040000C004030B589B005460C46F7
:102A90000121C802FFF734FC01210420FFF730FCBC
:102AA0004FF48070ADF8200018208DF8230003202B
:102AB0008DF8220008A91B48FEF742FD05A800F08A
:102AC0008BFAADF81850ADF814400020ADF81A009C
:102AD000ADF8160005A9144800F02CFA7020ADF8E6
:102AE00004000120ADF8060040F2EE20ADF80A0027
:102AF0000220ADF80C0001A90B4800F037F90121C4
:102B0000094800F07DF80821074800F07BF9012111
:102B1000054800F057F80121034800F065F809B0B6
:102B200030BD000000080140002C014010B501211B
:102B3000880700F09BF8012837D1FEF7C7F9FFF7A7
:102B4000CFFDFFF75BFDFFF795FD012317480B2134
:102B500002680220FFF73EF9012315480C210268A4
:102B60000220FFF737F9012312480D2102680220E5
:102B7000FFF730F9012310480E2102680220FFF709
:102B800029F901230D480F2102680220FFF722F9DD
:102B9000FEF7C2FD03230A480C2102681846FFF71E
:102BA00019F90121880700F01CF810BD6800002009
:102BB0006C000020700000207400002078000020CD
:102BC0009000002021B1028842F08002028004E0DF
:102BD00002884FF67F731A4002807047CA43028210
:102BE0007047CA430282704721B1028842F0010255
:102BF000028004E002884FF6FE731A40028070479C
:102C000031B1B0F8442042F40042A0F8442005E07D
:102C1000B0F84420C2F30E02A0F844207047F0B58B
:102C20000C4615461E460021002200230189028B16
:102C3000038C4FF6F877394021434FF6FC473A4072
:102C400040F201173A434FF6DD773B404FF6FF77EE
:102C500007EA06172F433B43018102830384F0BD3B
:102C60000146888E70470146888C704730B5024611
:102C7000002000230024158A05EA0103958905EA4E
:102C8000010413B10CB1012000E0002030BD0000B0
:102C900070B505460C46244885420ED0234885422F
:102CA0000BD0B5F1804F08D02148854205D021488E
:102CB000854202D02048854200D100E000BF208834
:102CC00050B92389A28861882846FFF7BDFDE188B5
:102CD000284600F003F925E0208804280AD123893A
:102CE000A28861882846FFF7EFFDE188284600F0BA
:102CF000FEF817E0208808280AD12389A288618875
:102D00002846FFF72DFEE188284600F0FDF809E08F
:102D10002389A28861882846FFF76AFEE188284651
:102D200000F0FBF870BD0000002C014000340140B1
:102D30000004004000080040000C00400021018019
:102D40004180012181800021C180018170471AB139
:102D500083890B43838102E083898B43838170479E
:102D600001894FF6F87211400181704770B5002457
:102D700000220023058C4FF6FE7635400584028C38
:102D80008388048B4FF68F752C40B51E2C400D8820
:102D90002C43751E2A400D892A434D882A43144D21
:102DA000A8420BD0134DA84208D0134DA84205D01D
:102DB000124DA84202D0124DA84213D14FF6F7751A
:102DC0002A404D892A434FF6FB752A408D882A43B5
:102DD0004FF6FF652B404FF6FF552B408D892B4357
:102DE000CD892B4383800483CD888586028470BD82
:102DF000002C0140003401400040014000440140EB
:102E0000004801400A460021018B4FF6F773194034
:102E1000114301837047000070B500240022002395
:102E2000058C4FF6EF7635400584028C8388048B41
:102E300048F6FF752C404FF6FF452C400D884FF6A5
:102E4000FF7606EA05252C434FF6DF752A400D89EB
:102E500006EA05152A434D8806EA05152A43154D4D
:102E6000A84202D0144DA8421DD14FF67F752A40CA
:102E70004D894FF6FF7606EA05152A434FF6BF75D2
:102E80002A408D8806EA05152A434FF6FF352B4068
:102E90004FF2FF752B408D8906EA85052B43CD89BE
:102EA00006EA85052B4383800483CD880587028449
:102EB00070BD0000002C0140003401400021018061
:102EC00041808180C180018141818181C1817047C0
:102ED000818670470187704781847047028B4FF667
:102EE000F3731A400283028B0A4302837047028BFA
:102EF0004FF2FF331A400283028B4FF6FF7303EA4F
:102F000001231A4302837047828B4FF6F3731A40F2
:102F10008283828B0A4382837047828B4FF2FF3316
:102F20001A408283828B4FF6FF7303EA01231A4310
:102F300082837047002202881D4B98420ED01D4BA1
:102F400098420BD0B0F1804F08D01B4B984205D06F
:102F50001A4B984202D01A4B984204D14FF68F7305
:102F60001A404B881A43174B984207D0164B984289
:102F700004D04FF6FF431A40CB881A4302808B8857
:102F800083850B8803850A4B98420BD0094B9842E6
:102F900008D00E4B984205D00D4B984202D00D4BF5
:102FA000984201D10B7A0386012383827047000087
:102FB000002C0140003401400004004000080040A3
:102FC000000C004000100040001400400040014090
:102FD00000440140004801404FF6FF71818000210C
:102FE0000180C1804180017270471FB501210846F0
:102FF000FFF776F94FF08040FFF7B2FE0020ADF802
:103000000A00ADF806004CF24F30ADF808008F20F2
:10301000ADF8040000208DF80C0001A94FF08040AD
:10302000FFF788FF01218807FFF7D8FD012211462D
:103030009007FFF78CFE4FF4A060FEF785FD1C2083
:103040008DF8000001208DF8030003208DF80100A9
:1030500001208DF802006846FEF73EFD0121880739
:10306000FFF7C2FD1FBD000010B50948FFF75AFA6F
:103070000A2000F027FE1E210648FDF7D9FF002098
:10308000FFF750FA01210320FDF718FE10BD0000E4
:10309000000070C20000B84110B50948FFF742FABD
:1030A0000A2000F00FFE1E210648FDF7C1FF002098
:1030B000FFF738FA01210320FDF700FE10BD0000E4
:1030C000000070420000504210B540F225512048E7
:1030D00000F0B1F8012839D11D4800F067F91D4909
:1030E00008701D48008898B90846007823280BD13D
:1030F0001A48008840B901201849088016490880FC
:1031000000201749088021E00020144908801DE0B4
:1031100011480088012819D10E48007824280BD1C5
:1031200000200D49088001200E49088000200E492A
:103130000B4A1288885409E006480178084802883A
:103140000088401C064B18800748815410BD0000C1
:10315000003801405E000020620000206600002070
:103160006400002060000020FC00002010B5202139
:103170001E4800F053F8012836D11C4800F016F91B
:103180001B4908701B48008850B908460078FF2882
:103190002AD101201749088000201749088023E020
:1031A00014480088012811D111480178124802887A
:1031B0000088401C104B1880104881541846008825
:1031C000012811DB02200B4908800DE00948008826
:1031D000022809D106480078FE2805D100200549BB
:1031E000088001200649088010BD0000004400400E
:1031F00021000020260000202800002023000020BD
:103200002400002021B1828942F40052828104E02E
:1032100082894DF6FF731A40828170470246002072
:10322000B1F5007F00D100BF13880B400BB1012026
:1032300000E00020704770B50246002400230025FE
:10324000002040F66A16B14200D100BFC1F342151A
:1032500001F01F03012606FA03F3012D02D196891E
:10326000334006E0022D02D1168A334001E0968AEF
:1032700033400C12012606FA04F41688344013B1C8
:103280000CB1012000E0002070BDF0B50346002421
:1032900000260025002040F66A17B94200D100BF81
:1032A0001846C1F3421401F01F06012707FA06F57C
:1032B000012C01D10C3004E0022C01D1103000E0CF
:1032C00014301AB107682F43076002E00768AF4364
:1032D0000760F0BD2DE9F04786B005460E46002494
:1032E000A24600BFA1460027B08900B100BF2F460B
:1032F0002C8A4CF6FF700440F08804432C82AC8981
:103300004EF6F3100440B0883189084371890843B0
:103310000443AC81AC8A4FF6FF400440B0890443BB
:10332000AC8201A8FEF7FCFF1F48874202D1DDF8FE
:1033300010A001E0DDF80CA0A88900F4004040B125
:103340000AEBCA0000EB0A1031684900B0FBF1F843
:1033500007E00AEBCA0000EB0A1031688900B0FBF5
:10336000F1F86420B8FBF0F004012009642101FBAE
:103370001089A88900F4004040B1322000EBC90058
:10338000B0FBF1F000F00700044308E0322000EB4E
:1033900009106421B0FBF1F000F00F0004432C8110
:1033A00006B0BDE8F087000000380140014688887B
:1033B000C0F308007047C1F308028280704700BF65
:1033C000FEE7000037B514460846064B6A4621461C
:1033D00000F0DCF804466946002000F06EFC204650
:1033E0003EBD0000BB3C000802E008C8121F08C137
:1033F000002AFAD170477047002001E001C1121F76
:10340000002AFBD1704700002DE9FF5F82B0002148
:10341000DDE90430020DDDF840B0034318D044F676
:103420001050A2F2FF3242431514119801281FD008
:10343000A5EB0B00401C5FEA000A4FF000064E4F60
:10344000DFF83891B046504615D5CAF1000413E0B4
:10345000119801244AA3012801D16FEA0B010298B7
:10346000119AC0E90031C0E9024206B0BDE8F09F00
:10347000CBF10000DFE704460021404A491842EB47
:103480000450CDE9001012E0E00707D032463B4679
:1034900040464946FCF7C7FF8046894632463B46D0
:1034A00010461946FCF7BFFF06460F466410002C75
:1034B000EAD1DDE90401DDE90023BAF1000F06DA03
:1034C000FCF7B1FF42464B46FCF7ADFF05E0FDF7C8
:1034D0001CF842464B46FDF718F804460E460022FB
:1034E000284BFDF753FA03D84FF0FF30014607E0B1
:1034F0000022254B20463146FCF7EEFEFDF72EFA62
:10350000102409E0002C0ADB0A220023FDF730F921
:10351000039B30321A55641E50EA0102F2D1641C3A
:10352000039AC4F111031444119A012A03D0012211
:1035300008430DD10AE0084304D000204FF0110BDE
:10354000119072E7A3EB0B056D1E0DE05B4504DDEA
:103550004FF0000205F1010504E003DA4FF000022C
:10356000A5F10105002AECD002981199C0E90231B9
:10357000C0E9004579E70000000014400000F03F7A
:10358000300000000000F0430000E03F2DE9FF4F55
:1035900095B09B468946064600250FE2252877D13F
:1035A00000242746F84A0121059400E0044316F858
:1035B000013F203B01FA03F01042F7D130782A286E
:1035C00011D06FF02F033078A0F13002092A16D8FD
:1035D000059A44F0020402EB820203EB420210441B
:1035E000761C0590EFE759F8042B0592002A03DAC0
:1035F000504244F40054059044F00204761C3078A4
:103600002E2816D116F8010F44F004042A280DD0F4
:103610006FF02F023078A0F13003092B09D807EBA7
:10362000870302EB4303C718761CF3E759F8047BC2
:10363000761C30786C280FD006DC4C2817D0682810
:103640000DD06A2814D104E0742810D07A280FD144
:103650000DE044F400140AE044F4801401E044F462
:1036600040147278824202D104F58014761C761CD4
:10367000307866280BD013DC582877D009DC002876
:1036800075D04528F6D04628F4D047281AD19DE1B8
:1036900018E0632835D0642879D0652812D195E1E7
:1036A000702873D008DC6728F1D069286FD06E28A5
:1036B0000DD06F2806D1B5E073282CD0752875D0B1
:1036C000782874D05A46179990476D1C75E1C4F359
:1036D0000250022809D003280DD0D9F80010042880
:1036E0000DD00D6009F1040967E1D9F80010EA175F
:1036F000C1E90052F6E7D9F800100D80F2E70D702D
:10370000F0E719F8041B8DF8001000208DF8010077
:10371000EA46012003E059F804AB4FF0FF3061079F
:103720004FF0000102D40DE008F101018846B942D2
:103730000FDA8045F8DB1AF808100029F4D108E008
:1037400008F1010188468142FADB1AF808100029C5
:10375000F6D105985B46A0EB080721463846179A34
:1037600000F094FA284400EB080507E04DE029E159
:103770000DE01AF8010B5A4617999047B8F1010865
:10378000F7D25B4621463846179A13E142E00A22F7
:103790000092C4F302524FF0000A022A08D059F8EE
:1037A00004CB032A4FEAEC710AD00DE029E02AE0AD
:1037B00009F1070121F00702F2E802C1914609E090
:1037C0000FFA8CFC4FEAEC71042A03D14FFA8CFCFF
:1037D0004FEAEC71002907DA0A460021DCF1000CFF
:1037E00061EB02012D2202E0220504D52B228DF887
:1037F0000420012203E0E20701D02022F7E79046EF
:1038000059E00A2102E010220DE010214FF0000AD9
:1038100000910BE010224FF0000A44F00404082746
:10382000009203E008224FF0000A0092C4F3025213
:10383000022A05D059F804CB0021032A08D009E058
:1038400009F1070121F00702F2E802C1914605E003
:103850001FFA8CFC042A01D10CF0FF0C4FF0000879
:10386000220728D5702806D0009B83F0100353EA66
:103870000A0305D00EE040228DF80420012208E062
:103880005CEA010206D030228DF804208DF8050094
:1038900002229046009B83F0080353EA0A030AD1F0
:1038A0005CEA010201D1620705D530228DF80420BF
:1038B0004FF001087F1E582804D034A003900EA8B2
:1038C00002900DE036A0F9E753466046009AFCF7F7
:1038D0004FFF84460398825C0298401E029002705B
:1038E0005CEA0100F0D1029806A9081A00F1200A4A
:1038F000600702D524F4803400E00127574502DD3B
:10390000A7EB0A0000E0002000EB0A0100900598F8
:103910004144401A0590E00306D45B462146179ABD
:10392000059800F0B3F90544002706E001A85A46BF
:10393000C05D179990476D1C7F1C4745F6DBE0037F
:103940000CD55B462146179A059800F09FF905446F
:1039500004E030205A46179990476D1C0099481E84
:1039600000900029F5DC08E0029802995A46007898
:10397000491C0291179990476D1CBAF10001AAF1F8
:10398000010AF1DC65E10000092801003031323321
:10399000343536373839616263646566000000008B
:1039A0003031323334353637383941424344454675
:1039B0000000000000F058F90544761C307800281B
:1039C0007FF4ECAD19B02846BDE8F08F620700D453
:1039D000062709F1070222F0070CFCE80223E14662
:1039E00003F000485FEA080C02D00FF2702C0DE0E3
:1039F0005FEA045C02D50FF2682C07E05FEAC47C42
:103A000002D00FF2602C01E0AFF2700C4FF0FF38E3
:103A100023F00043CDF850C065280CD006DC4528C3
:103A200009D046281DD047283DD13DE0662818D052
:103A300067287ED138E00021112F01DB112000E042
:103A4000781CCDE9000106A90EA8FFF7DDFCDDE931
:103A50000F010E9A03910021009207F1010A0491CF
:103A60004DE04FF000400097CDE9011006A90EA8E7
:103A7000FFF7CAFCDDE90F0203920E9B11990022A9
:103A8000DDF80CA00093049211B9791C00EB010A37
:103A9000B7EB0A0004D4C0F1FF3007F1010A04902B
:103AA000AAEB0700019044E0012F00DA0127002172
:103AB000112F01DD112000E03846CDE9000106A9F3
:103AC0000EA8FFF7A1FCDDE90F010E9A039100217A
:103AD00004910092BA4621070CD40399514500DAAB
:103AE0008A46BAF1010F05DD009AAAF10101515C85
:103AF000302908D0B84202DA10F1040F06DA0121A9
:103B0000CDE9011015E0AAF10101E9E7002805DC83
:103B1000049901440491AAEB000102E0411C5145C3
:103B200000DD8A460499401A401C01904FF0004085
:103B30000290200704D40198504501DBCDF80480A1
:103B400000208DF84F0002980DF14F07B0F1004FA3
:103B500025D02B200E9002984FF0020800280CDA96
:103B6000404202902D200E9007E00A210298FCF7B7
:103B7000E9FD3031029007F8011DB8F10001A8F10C
:103B80000108F2DC02980028EFD1791E0E98087027
:103B9000307800F0200040F0450007F8020D12A830
:103BA000C01B00F107081498007800B1012000EB59
:103BB0000A01019801EBE07105984144401A401E4A
:103BC0000590E00306D45B462146179A059800F05D
:103BD0005DF805441498007818B15A461799904733
:103BE0006D1CE00324D55B462146179A059800F02A
:103BF0004DF805441CE00498002807DBDDE90301CB
:103C0000884203DD0098405C179901E01799302045
:103C10005A469047049805F10105401C049001980C
:103C2000401E019004D12E205A46179990476D1CD2
:103C3000BAF10001AAF1010ADDDC05E017F8010B79
:103C40005A46179990476D1CB8F10001A8F1010878
:103C5000F4DC5B462146179A0598ABE62D00000080
:103C60002B000000200000002DE9F0410446002553
:103C70001E461746880404D405E039462020B04784
:103C80006D1C641EF9D52846BDE8F0812DE9F04190
:103C9000044600251E469046C80301D5302700E0A3
:103CA0002027880404D505E041463846B0476D1CFE
:103CB000641EF9D52846BDE8F0810A68531C0B60E4
:103CC0001070704700B5034603E04FF47A7000F0BF
:103CD00005F8181EA3F10103F7D100BD00EBC001E8
:103CE000C9004FF0E022516100219161052111616D
:103CF0000DE04FF0E021096901F001014FF0E022F1
:103D0000116121B91146096941F0010111614FF0BA
:103D1000E021096901F480310029EAD004214FF043
:103D2000E0221161704700002DE9F041C1F30A5211
:103D3000A2F2FF362F4A304B0D460446142E2FDADE
:103D4000002E12DAFCF7C8FA00221346FCF71EFE1A
:103D50004CD2002DA4BF0024254647DA25F00040B0
:103D6000204318BF254D41D018E0DFF894C02CFA4D
:103D700006F705EA070C5CEA040C08BFBDE8F08111
:103D8000FCF7AAFA00221346FCF700FE2ED2002D03
:103D900003DA4FF48010F0400544BD43002425E0D1
:103DA000332EC8BFBDE8F081A6F1140C4FF0FF37E9
:103DB00027FA0CF73C4208BFBDE8F081FCF730FB66
:103DC00000221346FCF7E2FD10D2002D0DDA142E6E
:103DD00008BF6D1C09D0C6F13400012101FA00F0C2
:103DE0002044A04238BF6D1C0446BC4329462046EF
:103DF000BDE8F0819C7500883CE4377E0000F0BF90
:103E0000FFFF0F0000231A4619464FF41650FCF727
:103E100075FFFDF733FFFCF72DFFFDF77FFDFEF784
:103E2000E9FAFDF7BFFD4FF4E13000F0B7F8FDF718
:103E3000B9FAFCF799FEFFF7D8F8FCF7F9FFFEF79F
:103E40001FF8FEF773F98F2142F20F70FEF71CFE88
:103E500040F2C6214848FFF73BF8FDF7CBF80024B5
:103E60000025002686E0FDF749FC01280AD14349D8
:103E700043A0FCF7ADFF44A0FCF7AAFF3F48007841
:103E8000434908604248006810286ED2DFE800F01D
:103E9000080B0E111B252E373F474F586164676A88
:103EA000FDF7CEF961E0FDF793F85EE0FDF74CF821
:103EB0005BE0384800680A30364908600846006808
:103EC000FDF722F951E0334800680A3831490860AB
:103ED00008460068FDF718F947E06D1D2846FCF715
:103EE00083FB07460021FDF7A3F83EE06D1F28463F
:103EF000FCF77AFB07460021FDF79AF835E00A3413
:103F00002046FCF771FB0746FEF70CFB2DE00A3C50
:103F10002046FCF769FB0746FEF704FB25E000247A
:103F20002046FCF761FB0746FEF7FCFA1DE01A4944
:103F30003046FCF709F906463046FDF7FBF814E079
:103F400015493046FCF752F906463046FDF7F2F8BF
:103F50000BE0FFF789F808E0FFF79EF805E0FDF7B2
:103F600077FA02E0FDF7A0FA00BF00BF4FF0FF3084
:103F70000749086077E70000002C0140230000207B
:103F800025730D0A000000000D0A4F4B0D0A0000BA
:103F9000E4000020E80000200000204110B586B0B9
:103FA0000446012144F20400FEF7AAF94FF4007020
:103FB000ADF8140003208DF8160018208DF81700B6
:103FC00005A91D48FDF7BCFA4FF48060ADF8140058
:103FD00004208DF8170005A91748FDF7B1FA252030
:103FE0008DF8000003208DF801008DF802000120FB
:103FF0008DF803006846FDF76FFD01940020ADF8D1
:104000000800ADF80A00ADF80C00ADF810000C2067
:10401000ADF80E0001A90948FFF75CF9012240F252
:1040200025510648FFF731F901210448FFF7EAF866
:10403000FCF7F0FE06B010BD00080140003801405A
:104040000000000000000000000000000000000070
:10405000000000F800000000000000333000000005
:1040600000100C06100C060000000000000000000C
:1040700040C07840C0784000043F04043F0404007E
:10408000007088FC08300000001820FF211E00008E
:10409000F008F000E018000000211C031E211E00A3
:1040A00000F00888700000001E2123241927211029
:1040B00010160E00000000000000000000000000CC
:1040C000000000E018040200000000071820400073
:1040D00000020418E0000000004020180700000063
:1040E000404080F0804040000202010F01020200C7
:1040F000000000F0000000000101011F01010100AB
:10410000000000000000000080B07000000000000F
:104110000000000000000000000101010101010198
:10412000000000000000000000303000000000002F
:104130000000000080601804006018060100000004
:1041400000E010080810E000000F102020100F0001
:10415000001010F8000000000020203F2020000088
:1041600000700808088870000030282422213000E0
:1041700000300888884830000018202020110E00E8
:104180000000C02010F8000000070424243F240091
:1041900000F80888880808000019212020110E0066
:1041A00000E0108888180000000F112020110E0078
:1041B00000380808C83808000000003F0000000070
:1041C0000070880808887000001C222121221C0031
:1041D00000E010080810E0000000312222110F005A
:1041E000000000C0C00000000000003030000000EF
:1041F000000000800000000000008060000000005F
:104200000000804020100800000102040810200077
:1042100040404040404040000404040404040400C2
:104220000008102040800000002010080402010057
:10423000007048080808F000000000303601000057
:10424000C030C828E810E0000718272423140B000A
:104250000000C038E0000000203C23020227382084
:1042600008F8888888700000203F202020110E0068
:10427000C03008080808380007182020201008005F
:1042800008F808080810E000203F202020100F0048
:1042900008F88888E8081000203F20202320180014
:1042A00008F88888E8081000203F2000030000007C
:1042B000C03008080838000007182020221E02001D
:1042C00008F808000008F808203F210101213F20DC
:1042D000000808F8080800000020203F2020000007
:1042E00000000808F8080800C08080807F000000F7
:1042F00008F888C028180800203F20012638200030
:1043000008F8080000000000203F20202020300096
:1043100008F8F800F8F80800203F003F003F2000B0
:1043200008F830C00008F808203F200007183F00B8
:10433000E01008080810E0000F10202020100F00E7
:1043400008F808080808F000203F210101010000DA
:10435000E01008080810E0000F18242438504F001F
:1043600008F8888888887000203F2000030C3020DF
:1043700000708808080838000038202121221C001D
:10438000180808F8080818000000203F2000000066
:1043900008F808000008F808001F202020201F004F
:1043A0000878880000C83808000007380E010000AF
:1043B000F80800F80008F800033C0700073C030079
:1043C000081868808068180820302C03032C3020DF
:1043D0000838C800C83808000000203F200000004E
:1043E00010080808C83808002038262120201800A6
:1043F000000000FE020202000000007F404040007A
:10440000000C30C000000000000000010638C000B1
:1044100000020202FE000000004040407F00000059
:10442000000004020202040000000000000000007E
:10443000000000000000000080808080808080807C
:104440000002020400000000000000000000000064
:1044500000008080808000000019242222223F205A
:1044600008F8008080000000003F112020110E009D
:104470000000008080800000000E1120202011002C
:10448000000000808088F800000E112020103F20DE
:104490000000808080800000001F22222222130062
:1044A000008080F0888888180020203F20200000AD
:1044B0000000808080808000006B94949493600062
:1044C00008F8008080800000203F210000203F206D
:1044D00000809898000000000020203F202000006D
:1044E000000000809898000000C08080807F00005D
:1044F00008F8000080808000203F24022D3020003A
:10450000000808F8000000000020203F20200000E4
:104510008080808080808000203F20003F20003FFE
:104520008080008080800000203F210000203F200C
:104530000000808080800000001F202020201F00BD
:10454000808000808000000080FFA12020110E00EC
:104550000000008080808000000E112020A0FF80DD
:10456000808080008080800020203F21200001008A
:1045700000008080808080000033242424241900DF
:10458000008080E0808000000000001F20200000EC
:104590008080000000808000001F202020103F202D
:1045A000808080000080808000010E3008060100BD
:1045B00080800080008080800F300C030C300F0062
:1045C00000808000808080000020312E0E3120008D
:1045D000808080000080808080818E7018060100BD
:1045E00000808080808080000021302C22213000DB
:1045F00000000000807C020200000000003F4040FC
:1046000000000000FF00000000000000FF000000AC
:104610000002027C800000000040403F00000000DB
:104620000006010102020404000000000000000076
:104630005046000800000020FC000000E83300089D
:104640004C470008FC00002044040000F833000838
:104650000000000001020304010203040607080928
:104660000204060800000000000000000000000036
:10467000000000000000000000000000000000003A
:104680000000000000000000000000000000803F6B
:10469000CDCCCC3D0000A040000060400000204197
:1046A0000000A0400000000000000000000000002A
:1046B00000000000000000000000000000000000FA
:1046C00000000000000000000000000000000000EA
:1046D000010000000100000045010000450100004C
:1046E00040010000F0000000010000000200000096
:1046F00000000000010000000200000000000000B7
:1047000001000000A5000000A00000000100000062
:104710009A99993E000000000AD7233D8FC2753C4C
:1047200000000000A69B443B0000000000000000C9
:104730000000000000000000000000000000000079
:0C4740000000000000000000000000006D
:04000005080000ED02
:00000001FF
