:020000040800F2
:10000000A0060020010100088D130008451100081A
:1000100089130008ED0900082724000800000000EB
:10002000000000000000000000000000111B00089C
:10003000610A00080000000045160008191D0008AC
:100040001B0100081B0100081B0100081B01000820
:100050001B0100081B0100081B0100081B01000810
:100060001B0100081B0100081B0100081B01000800
:100070001B0100081B0100081B0100081B010008F0
:100080001B0100081B0100081B0100081B010008E0
:100090001B0100081B0100081B0100081B010008D0
:1000A0001B0100081B0100081B0100081B010008C0
:1000B0001B0100081B0100081B0100081B010008B0
:1000C0001B0100081B0100081B0100081B010008A0
:1000D0001B01000831210008D52100081B01000880
:1000E000AD0A00081B0100081B010008DFF80CD056
:1000F00000F080FA0048004785240008A006002090
:100100000648804706480047FEE7FEE7FEE7FEE7B1
:10011000FEE7FEE7FEE7FEE7FEE7FEE71D1D00083F
:10012000ED000008D2B201E000F8012B491EFBD21D
:1001300070470022F6E710B513460A4604461946F2
:10014000FFF7F0FF204610BDF0B480EA0102D40FA3
:100150004200B2EB410F02D20246084611464A0065
:1001600042D0C30DDDB2C1F3C752AD1A202D35DA2E
:10017000C1F3160141F4000204B15242C5F1200658
:1001800002FA06F12A411044B3EBD05F23D0C4B188
:10019000012DA0EBC35009DCF0BC4FF0004202EA95
:1001A000C352DBB200F5000000F098B9400000F146
:1001B000807000EBC350A0F1807040EAD17049001C
:1001C00009E0490841EAC071A0EBC35000F5000006
:1001D000400800EBC350F0BC00F077B96142012247
:1001E00002EB4101001BF6E7F0BC704781F00041D3
:1001F000AAE780F00040A7E780EA010210B502F00C
:100200000043400022D04A001FD0010E01EB1261D2
:10021000C0F35600C2F3560240F4000042F400025C
:10022000A0FB022000047F39140400D0401C50EAD7
:10023000124001D44000491EC2B20C0604EBD0109B
:10024000401C4008802A02D003E0002010BD20F0AE
:100250000100002900DA0020184310BD2DE9FE4FEF
:1002600081EA030404F0004421F0004100944FF0BF
:10027000000B23F0004350EA01045ED052EA03046D
:100280005BD0C3F30A54C1F30A552C44A4F2F334EF
:100290000194A0FB0254C1F3130141F48011C3F394
:1002A000130343F4801301FB024400FB034E840A52
:1002B000970A44EA815447EA8357A4FB07680295EA
:1002C0008D0A05FB07854FEA932C04FB0C54270588
:1002D000029D4FEA065847EA1637B5EB08056EEB64
:1002E000070C870E920E47EA811742EA8312A7FB9A
:1002F0000201B6EB0B0164EB00042B0D43EA0C3357
:100300005E1844EB1C50DA465146E7FB0201C5F388
:1003100013044FEA0B3343EA14534FEA0432019CAF
:1003200043EA0603A4F10C040294009CCDE900B456
:1003300000F011F903B0BDE8F08F00200146F9E7A5
:100340002DE9F04D81EA030404F0004B21F0004553
:1003500014464FF0000A23F0004150EA050220D075
:1003600054EA01021DD0C5F30A570246C5F3130330
:10037000C1F31300C1F30A5640F4801543F480130F
:10038000A7EB0608101BD64608F2FD3873EB0500F4
:1003900002D308F1010801E092185B41B8F1000FA7
:1003A00003DA00200146BDE8F08D00204FF48011F3
:1003B000064684460EE0171B73EB050705D3121B98
:1003C00063EB050306434CEA010C49084FEA300091
:1003D00092185B4150EA0107EDD152EA030012D0B6
:1003E00082EA040083EA0501084305D0101BAB41F3
:1003F00006D20122002306E000224FF0004302E073
:100400006FF0010253101AEB06004CEB085110EB91
:100410000A0041EB0B01BDE8F04D00F08DB8C10FB3
:1004200080EAE0700844CA079623002100F056B81D
:1004300096230022114600F051B800F0004220F04F
:100440000040C10DC0F3160040F400007F2901DA1E
:1004500000207047962903DCC1F19601C84001E0F5
:1004600096398840002AF4D04042704700F000429C
:1004700030F000400AD0C10D01F56071C0F31600E4
:1004800042EA0151C208400711437047002001466B
:10049000704701F0004330B421F0004150EA0102FE
:1004A00006D00A0DA2F56072C1F31301002A02DC26
:1004B00030BC00207047440F44EAC104C100E0187A
:1004C00030BC00EBC250AFF300800029A8BF7047DA
:1004D000401C490008BF20F00100704710B4B0FA7A
:1004E00080FC00FA0CF050EA010404BF10BC704715
:1004F00049B1CCF1200421FA04F411FA0CF118BF2F
:10050000012121430843A3EB0C01CB1D4FEA0061FD
:100510004FEA102042BF002010BC704700EBC350D0
:1005200010440029A4BF10BC7047401C490008BFFC
:1005300020F0010010BC704710B5141E73F10004C8
:1005400008DA401C41F1000192185B411A4301D1C5
:1005500020F0010010BD2DE9F04D92469B4611B1EF
:10056000B1FA81F202E0B0FA80F22032904600F057
:1005700053F804460F4640EA0A0041EA0B0153468D
:100580005A46084313D0114653EA010019D0C8F166
:100590004002504600F04FF805460E465046594678
:1005A000424600F039F8084305D0012004E0204617
:1005B0003946BDE8F08D0020054346EAE0762C433D
:1005C00037430A986305E40AA0EB08000022FD0AFD
:1005D00044EA47540A3002D500200146E9E7010504
:1005E00010196941DDE9084500196941BDE8F04D80
:1005F000A2E70000064C074D06E0E06840F001036A
:1006000094E8070098471034AC42F6D3FFF772FD28
:100610004426000864260008202A04DB203A00FA59
:1006200002F1002070479140C2F1200320FA03F349
:10063000194390407047202A04DB203A21FA02F047
:100640000021704721FA02F3D040C2F1200291400C
:1006500008431946704721B1826842F00102826066
:1006600003E0826822F001028260704721B1826853
:1006700042F48072826003E0826822F480728260B9
:100680007047014600208A6802F004020AB1012086
:1006900000E000207047014600208A6802F008024E
:1006A0000AB1012000E000207047000030B502468A
:1006B0000020002350680F4C20400D790C6844EA5C
:1006C00005242043506090680B4C2040D1E902542F
:1006D0002C434D7944EA450420439060D06A20F4CD
:1006E00070000C7C641EE4B2234340EA0350D062E5
:1006F00030BD0000FFFEF0FFFDF7F1FFF0B504464E
:100700000D4600200021092D11DDE068A5F10A0643
:1007100006EB4607072606FA07F18843A5F10A0605
:1007200006EB460603FA06F10843E0600CE0206998
:1007300005EB4507072606FA07F1884305EB450652
:1007400003FA06F108432061072A0FDA606B561E90
:1007500006EB86071F2606FA07F18843561E06EBAE
:10076000860605FA06F10843606322E00D2A0FDAD7
:10077000206BD61F06EB86071F2606FA07F1884373
:10078000D61F06EB860605FA06F10843206310E043
:10079000E06AA2F10D0606EB86071F2606FA07F1AE
:1007A0008843A2F10D0606EB860605FA06F108431A
:1007B000E062F0BD816841F008018160704721B1BD
:1007C000826842F4A002826003E0826822F4A00200
:1007D00082607047816841F00401816070470000C9
:1007E00000B591B00121480201F076F80121042002
:1007F00001F072F80121084601F04EF84FF4004074
:1008000001F03EF800208DF843003020ADF84000A4
:1008100003208DF8420010A9304800F0C1FA0523EA
:10082000012204212E48FFF769FF05230222194601
:100830002B48FFF763FF00200B900E904FF46020D1
:100840000D9001208DF831008DF8300002208DF8D8
:100850003C000BA92248FFF729FF21484C300090AB
:1008600080150690002004901E4801904FF480608F
:100870000790802005900020029002200390202005
:10088000089000200A904FF480500990694616485D
:1008900000F0C8F80121144800F0B8F80121104810
:1008A000FFF7E4FE01210E48FFF7D5FE0C48FFF7E5
:1008B00081FF00BF0A48FFF7EEFE0128FAD0084882
:1008C000FFF788FF00BF0648FFF7DBFE0128FAD0DC
:1008D00001210348FFF773FF11B000BD000801407C
:1008E00000240140B00000200800024010B500F0D4
:1008F00059FB00240DE00E4B03EBC4020D4B03EB40
:10090000C40359680B4B53F83400012300F0FAFB81
:10091000641C042CEFDB084A516801231068074A65
:1009200000F0F0FB00220521322000F01FF810BD7E
:100930006001002040010020940000209C00002065
:1009400008B50121082000F0C7FF4FF48040ADF842
:10095000000010208DF8030003208DF80200694686
:10096000014800F01DFA08BD000C01402DE9F041DE
:1009700007460C461546CDB9002600BF13E04FF4DC
:100980008041194800F0A2FA384601F0ADFB4FF45F
:100990008041154800F098FA701CA04202D03846F9
:1009A00001F0A2FB761CA642E9DB1BE0012D19D168
:1009B000002600BF13E04FF480410B4800F086FA98
:1009C000384600F04EF84FF48041074800F07CFABA
:1009D000701CA04202D0384600F043F8761CA642B4
:1009E000E9DB00BFBDE8F081000C014000BFFEE77D
:1009F00010B54FF480710348FFF79BFB00200249BC
:100A0000088010BDA0010020A400002021B10268D0
:100A100042F00102026004E002684FF6FE731A40E1
:100A20000260704710B50022026847F6F0739A43DF
:100A30000C6A8B6823430C6923434C6923438C69FC
:100A40002343CC6923434C6A23438C6A23431A43D0
:100A50000260CB6843600B6883604B68C36010BD65
:100A6000704770B50446002500BF04E04FF47A706B
:100A700000F004F86D1CA542F8DB70BD10B504460B
:100A80000121094801F0E0F900BF0748243000883F
:100A9000A042FADB002004492431088000210248EA
:100AA00001F0D2F910BD00000004004010B54FF471
:100AB000006000F0F7F8012840D10A20FFF7D1FFCD
:100AC0004FF400616B4800F0F6F9002835D101229F
:100AD00002213220FFF74AFF674801686748006833
:100AE00000F0FCFF00BF4FF40061624800F0E3F942
:100AF0000028F8D00A20FFF7B4FF00BF4FF40061D0
:100B00005C4800F0D8F90128F8D00A20FFF7A9FFC7
:100B10004FF40061574800F0CEF900BF002155485E
:100B200000F0C9F90028F9D1012202213220FFF793
:100B30001DFF4FF4006000F0AFF899E04FF48050D3
:100B400000F0B0F801284FD10A20FFF78AFF4FF4D8
:100B50008051484800F0AFF90028EED148480068BD
:100B6000401C47490860012211464FF4FA70FFF714
:100B7000FDFE43480068012803D100204149086078
:100B800025E03F480068022803D100203E49086064
:100B90001DE03B480068032803D100203B49086062
:100BA00015E037480068042803D100203849086060
:100BB0000DE033480068052809D031480068062850
:100BC00005D02F480068072801D000F0A9FD00BF1C
:100BD0004FF48051274800F06EF90028F8D04FF408
:100BE000805000F059F843E04FF4005000F05AF8FC
:100BF00001283DD10A20FFF734FF4FF400511D4872
:100C000000F059F9A0BB012203213220FFF7AEFE0C
:100C1000204A5168106800F061FF00BF4FF4005196
:100C2000144800F048F90028F8D00A20FFF719FF0F
:100C300000BF4FF400510F4800F03DF90128F8D0F3
:100C40000A20FFF70EFF4FF400510A4800F033F975
:100C500000BF0021074800F02EF90028F9D1012239
:100C600003213220FFF782FE4FF4005000F014F809
:100C700010BD0000000C01402400002020000020D6
:100C8000E0000020E8000020C40000204800002010
:100C9000F00000209C00002001490860704700001F
:100CA00014040140014600200022074B1B6803EAA0
:100CB0000102054B14331B680B4013B10AB101202C
:100CC00000E000207047000000040140002123499B
:100CD0008279002A3AD00A46126803689A430B4682
:100CE0001A600A1D126803689A430B1D1A60027984
:100CF00011440A6803681A430A60184A08321268E5
:100D000003689A43154B08331A601A1D126803686A
:100D10009A43124B0C331A604279102A0ED11A1FD3
:100D2000126803681A430D4B08331A601A1D1268C3
:100D300003681A43094B0C331A600DE007494279E6
:100D400011440A6803681A430A6005E002791144F5
:100D50000A6803689A430A60704700000004014073
:100D600030B500228B071C0F0F2303FA04F20B4B44
:100D70008C1053F824309343084C8D1044F82530E0
:100D800023468C1053F824308C07240F00FA04F407
:100D90002343024C8D1044F8253030BD080001403B
:100DA0002DE9F04102460025002600200023002402
:100DB000002791F803C00CF00F0591F803C00CF068
:100DC000100CBCF1000F03D091F802C04CEA0505ED
:100DD00091F800C0BCF1000F31D0146800202BE066
:100DE0004FF0010C0CFA00F3B1F800C00CEA030656
:100DF0009E4220D183004FF00F0C0CFA03F7BC4346
:100E000005FA03FC4CEA040491F803C0BCF1280F76
:100E100006D14FF0010C0CFA00FCC2F814C00AE035
:100E200091F803C0BCF1480F05D14FF0010C0CFA4A
:100E300000FCC2F810C0401C0828D1D31460B1F8DF
:100E400000C0BCF1FF0F34DD546800202EE000F13B
:100E5000080C4FF0010808FA0CF3B1F800C00CEAD6
:100E600003069E4221D183004FF00F0C0CFA03F7CA
:100E7000BC4305FA03FC4CEA040491F803C0BCF13E
:100E8000280F05D100F1080C08FA0CF8C2F81480FC
:100E900091F803C0BCF1480F07D100F1080C4FF0E6
:100EA000010808FA0CF8C2F81080401C0828CED3BC
:100EB0005460BDE8F0810246002093680B400BB1FE
:100EC000012000E0002070474161704701617047D8
:100ED0000AB1016100E041617047000070B546E071
:100EE000002409E0234911F8241004F16B00814229
:100EF00000D100E002E0641C082CF3DB00BF082CEA
:100F000035D1002428E0002523E0022000FB045016
:100F10008000401C1749085C303864214843022196
:100F200001FB04518900891C124A515C303901EBE4
:100F3000810100EB4101022000FB04508000C01C35
:100F4000105C303808440C4901EBC40141F825001D
:100F50006D1C022DD9DB641C042CD4DB07A001F02E
:100F600075FA002205213220FFF700FD00E0B7E707
:100F700000BF70BDA00100202001002053544D335C
:100F8000323A5355434345454420544F2047455436
:100F900020444550454E44454E5420504F494E54F0
:100FA000210A240070B53EE0002409E0384911F818
:100FB000241004F16100814200D100E002E0641CD1
:100FC000082CF3DB00BF082C2DD1002428E00025DD
:100FD00023E0022000FB04508000401C2C49085CE8
:100FE000303864214843022101FB04518900891CE7
:100FF000274A515C303901EB810100EB41010220AD
:1010000000FB04508000C01C105C303808442149AB
:1010100001EBC40141F825006D1C022DD9DB641CD5
:10102000042CD4DB00E0BFE700BF00BF1848007805
:101030006928FBD1164800796A28F7D1144840780E
:1010400030386421484312498978303901EB8101F5
:1010500000EB41000E49C978084430380E49086059
:101060000B4840793038642148430949897930393F
:1010700001EB810100EB41000549C9790844303892
:1010800005494860002205213220FFF76FFC70BD42
:10109000A0010020400100209400002016480078A4
:1010A000782811D1144840783038642148431249D7
:1010B0008978303901EB810100EB41000E49C97894
:1010C000084430380D4908600B480079792811D15F
:1010D00009484079303864214843074989793039D3
:1010E00001EB810100EB41000349C9790844303824
:1010F0000349086070470000A00100206400002040
:10110000680000202DE9F04106460F4615461C46B2
:1011100000223946304600F059FC2146074801F0CC
:1011200031FA90FBF4F028602146054801F02AFAD4
:1011300090FBF4F06860BDE8F0810000280000201A
:101140003800002000BFFEE72DE9FC5F5AE00024D4
:1011500019E02F4931F81400FFF76AF98346FFF7C9
:1011600085F92C4A2C4BCDE90001FFF777F80746AB
:1011700000222A4BFFF7E4F80546FFF78AF92849D1
:1011800041F82400641C022CE3DB25480168254853
:10119000FFF732F80546FFF750F923490860204869
:1011A00041682048FFF728F80546FFF746F91F4930
:1011B000086001201C490968AA23CDE900101C48D9
:1011C00002681C4801681C48006800F03DFA81462E
:1011D000012016490968AB23CDE9001017480268C1
:1011E000174801681748006800F02EFA8246C9F1D6
:1011F000000000F011FDCAF1000000F04DFD0A20D2
:1012000000F072FF104800680028A0D1BDE8FC9FE4
:10121000B000002021B0726891ED0A4000FEAF409E
:10122000B40000200000C842BC000020C000002024
:10123000D0000020CC000020C8000020DC000020EE
:10124000D8000020D4000020C40000201FB5FFF704
:10125000C7FA0121082000F03FFB0121084600F0F9
:101260003BFB48208DF80F004FF46050ADF80C00A8
:1012700003208DF80E0003A91748FFF791FD0B21FD
:101280000120FFF76DFD0C210120FFF769FD0D2105
:101290000120FFF765FD4FF46050019001208DF8AB
:1012A0000A0000208DF808000C208DF8090001A824
:1012B000FFF70CFD4FF4A06000F0A2F828208DF895
:1012C000000001208DF803008DF801008DF8020068
:1012D000684600F05DF81FBD000C014008B5012113
:1012E000082000F0F9FA4FF40040ADF8000010209B
:1012F0008DF8030003208DF8020069460148FFF7CE
:101300004FFD08BD000C01402DE9F04107460C4699
:101310001546CDB9002600BF13E04FF4004119482F
:10132000FFF7D4FD384600F0DFFE4FF400411548CA
:10133000FFF7CAFD701CA04202D0384600F0D4FE70
:10134000761CA642E9DB1BE0012D19D1002600BF67
:1013500013E04FF400410B48FFF7B8FD3846FFF7A4
:1013600080FB4FF400410748FFF7AEFD701CA04220
:1013700002D03846FFF775FB761CA642E9DB00BFBA
:10138000BDE8F081000C014000BFFEE7704700009F
:1013900070B5002100230F22C47804B3154C2468D3
:1013A00004F4E064C4F5E064210AC1F10403CA4016
:1013B000447804FA03F184781440214309010E4C67
:1013C0000678A155047804F01F050124AC40057887
:1013D0006D11AD0005F1E025C5F8004109E0047884
:1013E00004F01F050124AC40044D0678761145F841
:1013F000264070BD0CED00E000E400E080E100E07C
:1014000002490143024A1160704700000000FA05DA
:101410000CED00E070B500240EE00021204600F045
:10142000E0F8002504E0002000F0FCF8681CC5B2DC
:10143000802DF8DB601CC4B2082CEEDB70BD000010
:1014400008B50121042000F047FA14208DF80300AC
:1014500003208DF802000120ADF8000069460A481B
:10146000FFF79EFC0220ADF8000069460648FFF732
:1014700097FC012211460448FFF72AFD01220221B0
:101480000148FFF725FD08BD0008014070B505467D
:10149000002413E08020204100EA050202210E48CA
:1014A000FFF716FD012211460B48FFF711FD002240
:1014B00001210948FFF70CFD601CC4B2082CE9DBD0
:1014C000012211460448FFF703FD002201210248D2
:1014D000FFF7FEFC70BD00000008014010B50122BE
:1014E00002210948FFF7F4FC012211460648FFF7E4
:1014F000EFFC002202210448FFF7EAFC0022012150
:101500000148FFF7E5FC10BD0008014010B50022BE
:1015100002210748FFF7DCFC012211460448FFF7CF
:10152000D7FC012202210248FFF7D2FC10BD0000C7
:101530000008014070B5002406E0002500E06D1CA5
:10154000B5F57A7FFBD3641CB4F57A7FF5D3FFF74A
:1015500077FFAE2000F056F8D52000F053F8802039
:1015600000F050F8A82000F04DF83F2000F04AF8B5
:10157000D32000F047F8002000F044F8402000F0AD
:1015800041F8A12000F03EF8C82000F03BF8DA2036
:1015900000F038F8122000F035F8812000F032F821
:1015A000CF2000F02FF8D92000F02CF8F12000F027
:1015B00029F8DB2000F026F8302000F023F8A420E2
:1015C00000F020F8A62000F01DF88D2000F01AF899
:1015D000142000F017F8AF2000F014F8FFF71AFFFE
:1015E00070BD70B505460C4645F0B00000F00AF835
:1015F000102141EA141000F005F804F00F0000F08B
:1016000001F870BD10B50446FFF768FF7820FFF7BA
:101610003DFF0020FFF73AFF2046FFF737FFFFF7B7
:1016200075FF10BD10B50446FFF758FF7820FFF78F
:101630002DFF4020FFF72AFF2046FFF727FFFFF787
:1016400065FF10BD704700002DE9FE4F80460C4637
:1016500015461E46DDE90C974FF0000AA6EB09007F
:10166000FEF7DDFE2B4908602B4801682948006819
:10167000FEF7BCFD28490860012F2DD108460168FE
:10168000B807FEF7B9FD0290224801680298FEF7FC
:10169000B0FD8346214801685846FEF755FD1F49B5
:1016A00008601D4801682846FEF7A6FD02901B4809
:1016B00001682046FEF7A0FD0190164801684046EB
:1016C000FEF79AFD00900199FEF73EFD83460299D0
:1016D000FEF73AFD824610E07FB90F4801682846C0
:1016E000FEF78AFD83460B4801684046FEF784FDFD
:1016F00059460290FEF728FD8246074800680749D0
:10170000086004480068044908605046FEF795FEEA
:10171000BDE8FE8FF4000020F8000020FC0000204F
:1017200010B5002201214FF47A70FFF71FF9002253
:1017300001214FF47A70FFF7E7FD002006490860A9
:101740000120064908600649086006490860064904
:1017500008600649086010BDE0000020E800002095
:10176000C400002048000020F0000020EC00002011
:101770002DE9FF5F05460E46002478E004F10109DB
:101780004FEAE97009EB90708010A9EB800055F8E2
:10179000300055F83410401A90FBF6FA5046FEF728
:1017A0003EFE83464FEAE97009EB90708010A9EB8A
:1017B000800005EBC000406805EBC4014968401A91
:1017C00090FBF6FA5046FEF72AFE804600272FE0EF
:1017D0003846FEF724FE41460090FEF70DFD824696
:1017E00005EBC4014868FEF71AFE51460190FEF76A
:1017F000ABFC8146FEF721FE03903846FEF70FFE54
:1018000059460090FEF7F8FC824655F83400FEF782
:1018100006FE51460190FEF797FC8146FEF70DFE4D
:101820000290039900F05AF9C82000F05DFC7F1C7B
:10183000B742CDDB04F101094FEAE97209EB92727C
:101840009210A9EB820205EBC202CA4651684FEA28
:10185000EA720AEB92729210AAEB820255F83200F9
:1018600000F03CF94FF4967000F03EFC641C042C30
:1018700084DB002205213220FFF778F8BDE8FF9FC6
:1018800001460020034A506820F44040084350605D
:10189000704700000010024029B1064A5269024315
:1018A000044B5A6104E0034A52698243014B5A6176
:1018B000704700000010024029B1064AD269024375
:1018C000044BDA6104E0034AD2698243014BDA61D6
:1018D000704700000010024029B1064A9269024395
:1018E000044B9A6104E0034A92698243014B9A6176
:1018F000704700000010024030B500210022002493
:1019000000232D4D6D6805F00C0121B1042905D08F
:10191000082923D105E0294D056022E0274D056007
:101920001FE0254D6D6805F47012234D6D6805F4B8
:101930008034022505EB92421CB9214D55430560C8
:101940000BE01D4D6D6805F400351DB11C4D554370
:10195000056002E0194D5543056002E0174D056032
:1019600000BF00BF144D6D6805F0F0010909154D69
:101970006B5C0568DD4045600F4D6D6805F4E06106
:10198000090A104D6B5C4568DD4085600A4D6D6845
:1019900005F46051C90A0B4D6B5C4568DD40C560BC
:1019A000054D6D6805F44041890B074D6B5CC568BA
:1019B000B5FBF3F5056130BD0010024000127A005E
:1019C00000093D0000000020100000202DE9FC412E
:1019D00004460D46164667E01E2000F085FBFFF723
:1019E0005DFB2946204600F0B9FD062805DC0022F3
:1019F00001210A20FEF7BAFF5AE026BB29462046FD
:101A000000F0ACFD3C281EDD00202B490968234670
:101A1000CDE9001029480268294801682948006872
:101A2000FFF712FE80460020274909682B46CDE9C2
:101A30000010264802682648016826480068FFF71B
:101A400003FE074626E0012E0DD11B490968081B3D
:101A500000F0D4F8C0F100081B490968481B00F0E9
:101A6000CDF8474216E0AEB92946204600F076FD93
:101A70003C280FDC10490968081B00F0BFF8C0F1D2
:101A8000000811490968481B00F0B8F847421E20B9
:101A900000F02AFBC8F1000000F0BEF8384600F064
:101AA000FBF8142000F020FB0B480068002893D1BD
:101AB00000BFBDE8FC810000640000207800002029
:101AC00074000020700000206800002084000020C6
:101AD000800000207C0000206C00002070B50446CF
:101AE0000D4608480460084805600648008881B231
:101AF000064800F06CFA0448008881B2034800F000
:101B000068FA70BD2000002024000020002C014055
:101B1000704710B500F002F810BD00000CB50020B1
:101B2000019000903348006840F4803031490860EB
:101B300000BF3048006800F4003000900198401C5D
:101B40000190009818B90198B0F5A06FF1D129481B
:101B5000006800F4003010B10120009001E0002086
:101B600000900098012843D12348006840F01000FD
:101B7000214908600846006820F003000860084614
:101B8000006840F0020008601A484068194948603F
:101B90000846406848600846406840F480604860F5
:101BA0000846406820F47C1048600846406840F4CD
:101BB000E81048600846006840F08070086000BF88
:101BC0000C48006800F000700028F9D0094840680F
:101BD00020F00300074948600846406840F00200D2
:101BE000486000BF0348406800F00C000828F9D1A5
:101BF0000CBD0000001002400020024001460529F3
:101C000001DD0120704711F1050F02DA4FF0FF30BE
:101C1000F8E70020F6E7000070B50446002C10DA63
:101C20001A4800682044B0F5257F02DA4FF4257089
:101C300002E016480068204414490860144908600E
:101C400011E0002C0FDD114800682044B0F5527FF0
:101C500002DD4FF4527002E00C48006820440B494A
:101C600008600B4908600948008881B2094800F003
:101C7000AEF9032506E0681E054951F8200041F839
:101C800025006D1E002DF6DC70BD00002000002038
:101C900028000020002C014070B50446002C10DA0A
:101CA0001A480068204440F2B221884201DA08460E
:101CB00002E016480068204414490860144908608E
:101CC00011E0002C0FDD11480068204440F24D3136
:101CD000884201DD084602E00C48006820440B49B8
:101CE00008600B4908600948008881B2094800F083
:101CF00070F9032506E0681E054951F8200041F8F7
:101D000025006D1E002DF6DC70BD000024000020B3
:101D100038000020002C01407047000010B5134827
:101D2000006840F001001149086008464068104909
:101D300008400E494860084600680E4908400B49B3
:101D400008600846006820F4802008600846406863
:101D500020F4FE0048604FF41F008860FFF7D9FEB2
:101D60004FF000600449086010BD00000010024000
:101D70000000FFF8FFFFF6FE08ED00E030B589B087
:101D800005460C460121C802FFF7A6FD01210420EB
:101D9000FFF7A2FD4FF41060ADF8200018208DF879
:101DA000230003208DF8220008A91F48FEF7F8FF42
:101DB00005A800F063F9ADF81850ADF81440002004
:101DC000ADF81A00ADF8160005A9184800F004F99E
:101DD0007020ADF804000120ADF8060040F2EE20BE
:101DE000ADF80A000220ADF80C0001A90F4800F080
:101DF0004DF801A90D4800F09FF801210B4800F0B3
:101E00002FF80821094800F08DF80821074800F054
:101E1000D1F80121054800F00BF80121034800F03A
:101E200013F809B030BD000000080140002C01404B
:101E300021B1028842F08002028004E002884FF65D
:101E40007F731A400280704721B1028842F001027C
:101E5000028004E002884FF6FE731A400280704749
:101E600031B1B0F8442042F40042A0F8442005E02B
:101E7000B0F84420C2F30E02A0F844207047018954
:101E80004FF6F872114001817047000070B50024D0
:101E900000220023058C4FF6FE7635400584028C27
:101EA0008388048B4FF68F752C40B51E2C400D880F
:101EB0002C43751E2A400D892A434D882A43144D10
:101EC000A8420BD0134DA84208D0134DA84205D00C
:101ED000124DA84202D0124DA84213D14FF6F77509
:101EE0002A404D892A434FF6FB752A408D882A43A4
:101EF0004FF6FF652B404FF6FF552B408D892B4346
:101F0000CD892B4383800483CD888586028470BD70
:101F1000002C0140003401400040014000440140D9
:101F2000004801400A460021018B4FF6F773194023
:101F3000114301837047000070B500220023002484
:101F4000058C4EF6FF7635400584038C8488828BA1
:101F500048F6FF752A404FF6FF452A400D884FF698
:101F6000FF7606EA05252A434DF6FF752B400D89BD
:101F700006EA05352B434D8806EA05352B430B4D04
:101F8000A84202D00A4DA84208D14BF6FF752C405A
:101F90008D894FF6FF7606EA85152C43848082836F
:101FA000CD88A0F84050038470BD0000002C014093
:101FB000003401400A460021818B4FF2FF73194023
:101FC0004FF6FF7303EA022319438183704781862A
:101FD0007047A0F840107047002202881D4B9842BD
:101FE0000ED01D4B98420BD0B0F1804F08D01B4B48
:101FF000984205D01A4B984202D01A4B984204D10D
:102000004FF68F731A404B881A43174B984207D0EC
:10201000164B984204D04FF6FF431A40CB881A4320
:1020200002808B8883850B8803850A4B98420BD0EE
:10203000094B984208D00E4B984205D00D4B984260
:1020400002D00D4B984201D10B7A03860123838283
:1020500070470000002C01400034014000040040A3
:1020600000080040000C0040001000400014004038
:102070000040014000440140004801404FF6FF711C
:10208000818000210180C180418001727047000081
:102090000EB501210846FFF70FFC01210220FFF7D2
:1020A0000BFC4FF08040FFF7EAFE0E48FFF7E7FE1B
:1020B0000020ADF80600ADF802004EF65F20ADF846
:1020C00004004720ADF8000000208DF808006946A4
:1020D0004FF08040FFF780FF69460248FFF77CFF22
:1020E0000EBD00000004004070B50446002500BF8E
:1020F00004E04FF47A7000F004F86D1CA542F8DBA0
:1021000070BD10B5044601218807FFF79DFE00BF92
:102110004FF08040808CA042FADB00204FF08041DD
:10212000888400214FF08040FFF78EFE10BD000034
:1021300010B540F22551204800F0B1F8012839D1FE
:102140001D4800F067F91D4908701D48008898B9BE
:102150000846007823280BD11A48008840B901208E
:10216000184908801649088000201749088021E096
:102170000020144908801DE011480088012819D169
:102180000E48007824280BD100200D49088001203A
:102190000E49088000200E490B4A1288885409E035
:1021A00006480178084802880088401C064B1880C1
:1021B0000748815410BD000000380140A6000020EF
:1021C000AA000020AE000020AC000020A8000020E3
:1021D000A001002010B520211E4800F053F801286E
:1021E00036D11C4800F016F91B4908701B480088BE
:1021F00050B908460078FF282AD1012017490880E5
:1022000000201749088023E014480088012811D1D4
:1022100011480178124802880088401C104B188031
:102220001048815418460088012811DB02200B4910
:1022300008800DE009480088022809D10648007886
:10224000FE2805D1002005490880012006490880A4
:1022500010BD000000440040150000201A000020BE
:102260001C000020170000201800002021B18289E6
:1022700042F40052828104E082894DF6FF731A40D5
:102280008281704702460020B1F5007F00D100BF77
:1022900013880B400BB1012000E00020704770B59F
:1022A0000246002400230025002040F66A16B142B1
:1022B00000D100BFC1F3421501F01F03012606FA49
:1022C00003F3012D02D19689334006E0022D02D19D
:1022D000168A334001E0968A33400C12012606FA32
:1022E00004F41688344013B10CB1012000E0002042
:1022F00070BDF0B50346002400260025002040F6FE
:102300006A17B94200D100BF1846C1F3421401F068
:102310001F06012707FA06F5012C01D10C3004E055
:10232000022C01D1103000E014301AB107682F439D
:10233000076002E00768AF430760F0BD2DE9F04792
:1023400086B005460E460024A24600BFA1460027DF
:10235000B08900B100BF2F462C8A4CF6FF700440B4
:10236000F08804432C82AC894EF6F3100440B08808
:1023700031890843718908430443AC81AC8A4FF624
:10238000FF400440B0890443AC8201A8FFF7B4FACF
:102390001F48874202D1DDF810A001E0DDF80CA053
:1023A000A88900F4004040B10AEBCA0000EB0A1013
:1023B00031684900B0FBF1F807E00AEBCA0000EB16
:1023C0000A1031688900B0FBF1F86420B8FBF0F026
:1023D00004012009642101FB1089A88900F4004050
:1023E00040B1322000EBC900B0FBF1F000F0070073
:1023F000044308E0322000EB09106421B0FBF1F047
:1024000000F00F0004432C8106B0BDE8F087000007
:102410000038014001468888C0F308007047C1F3C6
:1024200008028280704700BFFEE7000010B5044636
:1024300021460548FFF7F3FF00BF80210248FFF760
:1024400021FF0028F9D010BD0038014070B50446C6
:10245000002504E0605DFFF7E9FF681C85B2605D60
:102460000028F7D170BD02E008C8121F08C1002A79
:10247000FAD170477047002001E001C1121F002A05
:10248000FBD17047FFF704FEFFF754F8FEF758FA48
:10249000FEF724FF8F2142F20F70FFF76FFC40F22E
:1024A000EE212348FFF793FD40F2FB212048FFF780
:1024B00090FD4FF4E13000F073F8FEF7C7FE35E011
:1024C000FFF72EF9FEF712FA00BF1A48006800283D
:1024D000FBD1FEF739FE01211748FFF749F900BF8C
:1024E000164800680028FBD1FEF7F8FC4FF4FA60AC
:1024F000FFF7FAFD00240DE0114B03EBC402114B72
:1025000003EBC40359680F4B53F834000123FEF763
:10251000F9FD641C042CEFDB06210948FFF728F9BC
:1025200000BF094800680028FBD100BFC8E70000D1
:10253000002C0140E800002060010020480000203D
:102540008001002020010020F00000200246501AE7
:10255000002801DD501A7047881AFCE730B50446A0
:102560000B46064801682046FFF7F0FF0546044881
:1025700001681846FFF7EAFF284430BD64000020D8
:102580006800002010B502460B4600242046214674
:1025900003E052F821402044491C9942F9DB10BD68
:1025A00010B586B00446012144F20400FFF794F907
:1025B0004FF40070ADF8140003208DF816001820B9
:1025C0008DF8170005A91D48FEF7EAFB4FF480605F
:1025D000ADF8140004208DF8170005A91748FEF780
:1025E000DFFB25208DF8000003208DF801008DF819
:1025F000020001208DF803006846FEF7C9FE019431
:102600000020ADF80800ADF80A00ADF80C00ADF8F8
:1026100010000C20ADF80E0001A90948FFF78EFE4E
:10262000012240F225510648FFF763FE01210448CC
:10263000FFF71CFEFEF7DCF906B010BD00080140F4
:10264000003801406426000800000020000100005E
:10265000662400086427000800010020A00500008F
:1026600076240008000000000102030401020304B4
:102670000607080902040608000000000000000028
:1026800000000000EE020000EE020000EE0200007A
:10269000EE020000EE020000EE020000FB0200006D
:1026A000FB020000FB020000FB0200000100000032
:1026B00068010000680100000A0000000A00000034
:1026C000C6020000C60200006801000068010000A8
:1026D000010000008FC2753D0AD7A33C0AD7233CF6
:1026E0008FC2753D0AD7A33C0AD7233C00000000E7
:1026F00000000000010000000000000000000000D9
:1027000000000000000000000000000000000000C9
:1027100000000000000000000000000000000000B9
:10272000AA000000AB000000010000008FC2F53CD1
:10273000000000006F12833A8FC2F53C00000000D9
:102740006F12833A0000000000000000010000004A
:102750000100000001000000000000000000000077
:042760000000000075
:04000005080000ED02
:00000001FF
