:020000040800F2
:1000000080050020110800083D0100083F0100089C
:1000100043010008470100084B01000800000000F0
:100020000000000000000000000000004F01000878
:1000300051010008000000005301000829080008D1
:100040002B0800082B0800082B0800082B080008C4
:100050002B0800082B0800082B0800082B080008B4
:100060002B0800082B0800082B0800082B080008A4
:100070002B0800082B0800082B0800082B08000894
:100080002B0800082B0800082B0800082B08000884
:100090002B0800082B0800082B0800082B08000874
:1000A0002B0800082B0800082B0800082B08000864
:1000B0002B0800082B0800082B0800082B08000854
:1000C0002B0800082B0800082B0800082B08000844
:1000D0002B080008C31500082B0800082B0800088F
:1000E0002B0800082B0800082B080008DFF80CD0AC
:1000F00001F03CFE00480047010100088005002097
:1001000001F08AF901F0F2F94FF4165001F00BFA00
:1001100001F0A5FA04A001F0C9FE03E000F011F916
:1001200000F084F9FAE7000057656C636F6D652095
:10013000746F20757365210D0A000000704700BFC1
:10014000FEE700BFFEE700BFFEE700BFFEE7704727
:10015000704770470CB50020019000906C48006813
:1001600040F480306A49086000BF6948006800F4C4
:10017000003000900198401C0190009818B9019837
:10018000B0F5A06FF1D16248006800F4003010B102
:100190000120009001E0002000900098012843D148
:1001A0005C48006840F010005A4908600846006842
:1001B00020F0030008600846006840F00200086074
:1001C00053484068524948600846406848600846BD
:1001D000406840F4806048600846406820F47C1025
:1001E00048600846406840F4E810486008460068E7
:1001F00040F08070086000BF4548006800F0007063
:100200000028F9D04248406820F003004049486087
:100210000846406840F00200486000BF3C48406823
:1002200000F00C000828F9D10CBD10B5FFF792FFC3
:1002300010BD10B53648006840F001003449086030
:10024000084640683449084031494860084600681B
:10025000324908402E4908600846006820F4802092
:1002600008600846406820F4FE0048604FF41F0014
:100270008860FFF7DAFF4FF000602949086010BD81
:1002800010B5002100200022214B5B6803F00C0117
:1002900021B1042906D0082928D107E0214B224C9E
:1002A000236027E01F4B204C236023E0184B5B6842
:1002B00003F47010164B5B6803F48032022303EBE7
:1002C000904022B9194B4343174C23600DE0104B6B
:1002D0005B6803F4003323B1144B4343124C236097
:1002E00003E0104B4343104C236003E00D4B0E4CD6
:1002F000236000BF00BF064B5B68C3F303130C4CC5
:10030000E15C094B1B68CB40074C236010BD00002B
:1003100000100240002002400000FFF8FFFFF6FE40
:1003200008ED00E000127A000000002000093D0006
:1003300004000020044603E02146FDA001F0B6FDC4
:10034000FAE7F8B50026FD4890F8500000286CD078
:100350000020FA4981F85000F9A001F0A7FDF74804
:1003600001F0A4FD00BF5EE046B9FAA1F34801F038
:10037000CBF9041E55D10120FFF7DCFF641CF5A169
:10038000204601F0C1F9051E48D0072E2ED2DFE825
:1003900006F02D040B11181F26002A1B2146E748E2
:1003A000523001F08DF922E02A1B2146684601F007
:1003B00087F91CE02A1B2146E0485D3001F080F9F6
:1003C00015E02A1B2146DD48683001F079F90EE07E
:1003D0002A1B2146D9486A3001F072F907E02A1B2E
:1003E0002146D648763001F06BF900E000BF00BF2F
:1003F0002C460120D14981F851009DF80000412888
:1004000003D1012081F87D0007E09DF80000562807
:1004100003D10020C94981F87D0002E00220FFF7E6
:1004200089FF701CC6B2062E9EDDF8BD2DE9F05F77
:10043000C24890F8510000287ED00020BF4981F8C2
:100440005100084690F87D00002876D0C2A001F047
:100450002DFDBA485D3001F029FDC5A001F026FD53
:10046000C4A001F023FDB548683001F01FFDC0A015
:1004700001F01CFDC4A001F019FDB0486A3001F084
:1004800015FDBBA001F012FDC5A001F00FFDAB48AA
:10049000763001F00BFDB6A001F008FD4FF0000A28
:1004A000002500242AE0A5485D30005D2E2800D1FB
:1004B00023E0012C0FDCA14991F85E1030399F4AEE
:1004C00092F85D20303A02EB820201EB420001F02B
:1004D000F5F9804610E099495D31095DA1F13000E0
:1004E00001F0ECF98346514601F020F98246B1490A
:1004F000504601F073F9824600BF641C8F485D309E
:10050000005D0028CFD1002505E0AA49504601F042
:1005100097F982466D1C052DF7DDA749504601F07D
:100520008FF98346414601F001F980460027404695
:1005300001F0CDF9074601E05AE155E10A2097FBA9
:10054000F0F030307D4981F85D000A2097FBF0F132
:1005500000FB11703030C1B2784880F85E102E2157
:1005600080F85F10384601F0A9F98346414601F052
:1005700032F98046032517E08E49404601F02EF9F6
:100580008046404601F0A3F9074607F13000C1B2AA
:100590006A485D304155384601F090F9834641463E
:1005A00001F019F980466D1C0A2DE5DB4FF0000AB9
:1005B000002432E061486A30005D2E2800D12BE033
:1005C000022C17DC5D4991F86B1030395B4A92F8C8
:1005D0006A20303A02EB820201EB420101EB810218
:1005E000564991F86C10303901EB420001F066F980
:1005F000814610E051496A31095DA1F1300001F0F6
:100600005DF98346514601F091F8824669495046AA
:1006100001F0E4F8824600BF641C48486A30005D7F
:100620000028C7D1002505E06249504601F008F9CD
:1006300082466D1C052DF7DD00265F49504601F00E
:10064000FFF88346494601F071F88146484601F0BB
:100650003EF90646642096FBF0F03030374981F8C9
:100660006A00642096FBF0F100FB11600A2190FB08
:10067000F1F03030C1B2314880F86B100A2096FB9F
:10068000F0F100FB11603030C1B22C4880F86C10E2
:100690002E2180F86D10304601F010F9834649464E
:1006A00001F099F88146042517E04249484601F0D7
:1006B00095F88146484601F00AF9064606F13000F1
:1006C000C1B21E486A304155304601F0F7F8834602
:1006D000494601F080F881466D1C0B2DE5DB37A003
:1006E00001F0E4FB15485D3001F0E0FB20A001F0D3
:1006F000DDFB35A001F0DAFB1048683001F0D6FBD5
:100700001BA001F0D3FB32A001F0D0FB0B486A30F4
:1007100001F0CCFB16A001F0C9FB31A001F0C6FB33
:100720000648763001F0C2FB11A001F0BFFB5EE08D
:100730004552524F5225640D0A0000003800002037
:100740002A2A2A2A2A2A2A2A2A2A2A2A2A2A0D0A46
:10075000000000002C000000536176655F44617466
:10076000612E6C61746974756465203D2000000021
:100770000D0A0000536176655F446174612E4E5F1F
:1007800053203D2000000000536176655F44617492
:10079000612E6C6F6E676974756465203D20000082
:1007A000536176655F446174612E455F57203D203B
:1007B0000000000000002041000070426C6174697C
:1007C00074756465203D20004E5F53203D2000007D
:1007D0006C6F6E676974756465203D2000000000D1
:1007E000455F57203D20000002A001F05FFB00BFE5
:1007F000BDE8F09F47505320444154412069732085
:100800006E6F742075736566756C6C210D0A00003F
:100810000648804706480047FEE7FEE7FEE7FEE79A
:10082000FEE7FEE7FEE7FEE7FEE7FEE7330200082D
:10083000ED00000831490143314A1160704770B53D
:10084000002100230F22C47804B32D4C246804F443
:10085000E064C4F5E064210AC1F10403CA404478AD
:1008600004FA03F18478144021430901254C0678E9
:10087000A155047804F01F050124AC4005786D11E2
:10088000AD0005F1E025C5F8004109E0047804F069
:100890001F050124AC401C4D0678761145F8264012
:1008A00070BD1A4A0A400243154B1B1F1A6070475D
:1008B00039B1134A121D12680243114B1B1D1A60F5
:1008C00006E00F4A121D126882430D4B1B1D1A6071
:1008D0007047042808D14FF0E021096941F0040174
:1008E0004FF0E022116107E04FF0E021096921F0AB
:1008F00004014FF0E0221161704700000000FA058A
:100900000CED00E000E400E080E100E080FFFF1F6C
:1009100010B50446CC48844208D10121042000F0DF
:100920002DFB0021042000F029FB46E0C74884424B
:1009300008D10121082000F021FB0021082000F04F
:100940001DFB3AE0C248844208D10121102000F08A
:1009500015FB0021102000F011FB2EE0BD48844261
:1009600008D10121202000F009FB0021202000F007
:1009700005FB22E0B848844208D10121402000F064
:10098000FDFA0021402000F0F9FA16E0B348844255
:1009900008D10121802000F0F1FA0021802000F030
:1009A000EDFA0AE0AE48844207D10121801500F03B
:1009B000E5FA0021A01500F0E1FA10BD10B5012103
:1009C000084600F0DBFA0021012000F0D7FA10BD44
:1009D0002DE9F041024600250026002000230024D6
:1009E000002791F803C00CF00F0591F803C00CF03C
:1009F000100CBCF1000F03D091F802C04CEA0505C1
:100A000091F800C0BCF1000F31D0146800202BE039
:100A10004FF0010C0CFA00F3B1F800C00CEA030629
:100A20009E4220D183004FF00F0C0CFA03F7BC4319
:100A300005FA03FC4CEA040491F803C0BCF1280F4A
:100A400006D14FF0010C0CFA00FCC2F814C00AE009
:100A500091F803C0BCF1480F05D14FF0010C0CFA1E
:100A600000FCC2F810C0401C0828D1D31460B1F8B3
:100A700000C0BCF1FF0F34DD546800202EE000F10F
:100A8000080C4FF0010808FA0CF3B1F800C00CEAAA
:100A900003069E4221D183004FF00F0C0CFA03F79E
:100AA000BC4305FA03FC4CEA040491F803C0BCF112
:100AB000280F05D100F1080C08FA0CF8C2F81480D0
:100AC00091F803C0BCF1480F07D100F1080C4FF0BA
:100AD000010808FA0CF8C2F81080401C0828CED390
:100AE0005460BDE8F0814FF6FF71018002218170F2
:100AF0000421C17070470246002093680B400BB17F
:100B0000012000E0002070470146886880B27047ED
:100B100002460020D3680B400BB1012000E000200A
:100B200070470146C86880B27047016170474161F3
:100B300070470AB1016100E041617047C1607047D0
:100B40004FF480320A4382618161826182698269E5
:100B5000704702460020434B18684FF680731840D8
:100B600040EA021008433F4B186070473E49C86195
:100B70007047F0B50A46002300240021002500F04C
:100B80000046B6F1004F02D1364EF16901E0354E14
:100B90007168C0F3034583B200F44016B6F5401FF8
:100BA00008D121F070612F4E766826F070662D4FC7
:100BB0007E6012E000F48016B6F5801F06D1032691
:100BC00006FA05F4A14341F0706106E0460D3601D6
:100BD00003FA06F6B14341F0706122B1460D3601C9
:100BE00003FA06F6314300F00046B6F1004F02D199
:100BF0001C4EF16101E01B4E7160F0BD30B500226A
:100C00008B071C0F0F2303FA04F2164B08338C10CA
:100C100053F824309343134C08348D1044F8253096
:100C200023468C1053F824308C07240F00FA04F468
:100C300023430C4C08348D1044F8253030BD0A494C
:100C4000DC3108607047000000080140000C0140E2
:100C5000001001400014014000180140001C014038
:100C6000002001400000014000002042DF480068F1
:100C700040F00100DD49086008464068DC49084052
:100C8000DA49486008460068DA490840D7490860F0
:100C90000846006820F4802008600846406820F478
:100CA000FE0048604FF41F0088607047CF49096814
:100CB00021F48031CD4A11601146096821F4802168
:100CC0001160B0F5803F03D0B0F5802F0ED106E063
:100CD000C649096841F48031C44A116007E0C3493C
:100CE000096841F4A021C14A116000E000BF00BFC3
:100CF000704710B501460022002300204A11012A46
:100D000002D1BA4C236806E0022A02D1B74C236A0A
:100D100001E0B64C636A01F01F02012494401C40BC
:100D20000CB1012000E0002010BD38B5002000907B
:100D30000024002500BF3120FFF7DBFF05460098A7
:100D4000401C00900098B0F5A06F01D0002DF2D0AB
:100D50003120FFF7CEFF08B1012400E00024204637
:100D600038BD01460020A14A106820F0F80040EA92
:100D7000C10010607047A04908607047024600201B
:100D80009A4B586820F47C1042EA01031843974BB1
:100D90005860704798490866704701460020934A9A
:100DA000506820F003000843506070478F48406847
:100DB00000F00C007047014600208C4A506820F07B
:100DC000F00008435060704701460020874A506891
:100DD00020F4E06008435060704701460020834AD9
:100DE000506820F4605040EAC1005060704729B15B
:100DF0007E4A527A02437D4B5A7204E07B4A527A11
:100E000082437A4B5A7270477B49D83108607047E9
:100E100001460020754A506820F440400843506065
:100E200070470021714A20321170704A82F82010F8
:100E3000012802D004280AD104E001216B4A2032A3
:100E4000117005E00521694A2032117000E000BFF1
:100E500000BF70476949086070476449096A0143E7
:100E6000624A11627047654944390860704730B57D
:100E700000210022002400235C4D6D6805F00C0168
:100E800021B1042905D0082923D105E05C4D056076
:100E900022E05B4D05601FE0544D6D6805F4701253
:100EA000524D6D6805F48034022505EB92421CB961
:100EB000544D554305600BE04C4D6D6805F400350D
:100EC0001DB1504D5543056002E04D4D5543056041
:100ED00002E04B4D056000BF00BF444D6D6805F05A
:100EE000F0010909484D6B5C0568DD4045603F4DE8
:100EF0006D6805F4E061090A434D6B5C4568DD40AF
:100F000085603A4D6D6805F46051C90A3E4D6B5CD1
:100F10004568DD40C560354D6D6805F44041890B7D
:100F20003A4D6B5CC568B5FBF3F5056130BD29B181
:100F30002E4A526902432D4B5A6104E02B4A5269F2
:100F400082432A4B5A61704729B1284A9269024369
:100F5000264B9A6104E0254A92698243234B9A61A9
:100F6000704729B1214AD2690243204BDA6104E07B
:100F70001E4AD26982431D4BDA61704729B11B4A70
:100F8000D2680243194BDA6004E0184AD2688243FF
:100F9000164BDA60704729B1144A12690243134BA9
:100FA0001A6104E0114A12698243104B1A617047BA
:100FB00012494039086070470F49C86470470B49AF
:100FC000C87170470948406A40F08070074948621C
:100FD000704701460020054A92680A400AB1012084
:100FE00000E00020704701498872704700100240FD
:100FF0000000FFF8FFFFF6FE00004242800442427C
:1010000000127A0000093D00140000202400002096
:1010100010B50446FB48844209D101218803FFF73B
:10102000ADFF00214FF48040FFF7A8FF32E0F64803
:10103000844209D101214804FFF7ADFF00214FF49C
:101040000030FFF7A8FF25E0F048844209D10121D4
:101050008804FFF7A0FF00214FF48020FFF79BFFDB
:1010600018E0EB48844209D10121C804FFF793FF3F
:1010700000214FF40020FFF78EFF0BE0E54884428B
:1010800008D101210805FFF786FF00214FF48010E9
:10109000FFF781FF10BD2DE9F04786B005460E46EB
:1010A0000024A24600BFA1460027B08900B100BFBE
:1010B0002F462C8A4CF6FF700440F08804432C82A3
:1010C000AC894EF6F3100440B08831890843718929
:1010D00008430443AC81AC8A4FF6FF400440B0891A
:1010E0000443AC8201A8FFF7C2FEC648874202D182
:1010F000DDF810A001E0DDF80CA0A88900F40040A4
:1011000040B10AEBCA0000EB0A1031684900B0FB9D
:10111000F1F807E00AEBCA0000EB0A103168890019
:10112000B0FBF1F86420B8FBF0F004012009642161
:1011300001FB1089A88900F4004040B1322000EB87
:10114000C900B0FBF1F000F00700044308E03220D2
:1011500000EB09106421B0FBF1F000F00F00044334
:101160002C8106B0BDE8F0874FF4165101600021D4
:101170008180C18001810C214181002181817047E2
:1011800010B502460020108A4FF2FF0318400B886A
:101190004C8823438C882343CC88234318431082F4
:1011A00010BD0021018041808180C180704721B144
:1011B000828942F40052828104E082894DF6FF73F5
:1011C0001A4082817047F0B50346002400260025AE
:1011D000002040F66A17B94200D100BF1846C1F39B
:1011E000421401F01F06012707FA06F5012C01D170
:1011F0000C3004E0022C01D1103000E014301AB1A0
:1012000007682F43076002E00768AF430760F0BD3F
:101210001AB1838A0B43838202E0838A8B438382E1
:101220007047028A4FF6F0731A400282028A0A431C
:101230000282704782894FF2FF731A40828182894D
:101240000A438281704721B1828942F00202828181
:1012500004E082894FF6FD731A4082817047028A4A
:101260004FF6DF731A400282028A0A4302827047F5
:1012700021B1028A42F48042028204E0028A4BF6E3
:10128000FF731A4002827047C1F3080282807047E0
:1012900001468888C0F308007047818941F0010148
:1012A00081817047028BD2B20283028B42EA012213
:1012B00002837047028B02F47F420283028B0A434F
:1012C0000283704721B1828A42F02002828204E0C8
:1012D000828A4FF6DF731A408282704721B1828A78
:1012E00042F01002828204E0828A4FF6EF731A40C5
:1012F0008282704721B1828A42F00802828204E031
:10130000828A4FF6F7731A408282704721B1828930
:1013100042F40042828103E08289C2F30E0282819C
:10132000704721B1828A42F40062828204E0828A9C
:101330004FF2FF731A4082827047828A4FF6FB7326
:101340001A408282828A0A438282704721B1828A4D
:1013500042F00202828204E0828A4FF6FD731A4054
:101360008282704702460020B1F5007F00D100BFA5
:1013700013880B400BB1012000E00020704701F4FE
:101380000072B2F5007F00D100BFCA4302807047EF
:1013900070B50246002400230025002040F66A169E
:1013A000B14200D100BFC1F3421501F01F03012675
:1013B00006FA03F3012D02D19689334006E0022D8F
:1013C00002D1168A334001E0968A33400C1201267E
:1013D00006FA04F41688344013B10CB1012000E081
:1013E000002070BD10B50022002340F66A14A1420F
:1013F00000D100BF0A1201249440A3B2DC43048050
:1014000010BD00000038014000440040004800408A
:10141000004C00400050004010B56FF00400FFF792
:1014200058FA2E4800682E49B0FBF1F02D4908709B
:101430000846007800EB4001C1EBC0104FF6FF7189
:1014400001EAC0002849088010BD0146254A1278EB
:101450004A434FF0E0235A6100229A611A4612690A
:1014600042F001021A6100BF4FF0E022106900F063
:1014700001021AB100F48032002AF5D04FF0E022C8
:10148000126922F001024FF0E0231A6100229A61F2
:1014900070470146144A12884A434FF0E0235A61CC
:1014A00000229A611A46126942F001021A6100BFD5
:1014B0004FF0E022106900F001021AB100F480320E
:1014C000002AF5D04FF0E022126922F001024FF01D
:1014D000E0231A6100229A6170470000000000209A
:1014E00000127A00280000202A00002010B54FF4D6
:1014F000A060FFF79FF910BD00BF704700BF6B4AA7
:10150000128802F04002002AF9D0C2B2674B1B1DBC
:101510001A80704710B5C821654800F0EAF800202D
:101520006449088010BD10B586B00446012144F21C
:101530000400FFF709FD4FF40070ADF8140003201C
:101540008DF8160018208DF8170005A95A48FFF7E6
:101550003FFA4FF48060ADF8140004208DF81700B6
:1015600005A95548FFF734FA25208DF8000003201F
:101570008DF801008DF8020001208DF80300684607
:10158000FFF75DF901940020ADF80800ADF80A00FE
:10159000ADF80C00ADF810000C20ADF80E0001A95C
:1015A0004248FFF778FD012240F225513F48FFF7FE
:1015B0000AFE01213D48FFF7FAFDFFF7ABFF06B039
:1015C00010BD10B540F225513848FFF7E1FE002864
:1015D00039D03648FFF75CFEC4B2242C02D100207B
:1015E00034490880334801880088401C314A108003
:1015F0002F484454007824281ED12D4800794D28C6
:101600001AD12B484079432816D10A2C14D15021E5
:101610002A4800F06EF8274802882549274800F03C
:101620004FF80120254981F8500000202149088009
:10163000C8211F4800F05DF81E480088C82802DB5A
:10164000C8201C49088010BD10B504462146184822
:1016500000F05AF808B1012010BD0020FCE710B5D9
:101660000020164981F8500081F8510081F87D0072
:101670005021124800F03DF810485230002101601E
:101680004160018181720B30016041600181817292
:101690005D38A0F868106A300160416081606A3886
:1016A000A0F87610816780F87C1010BD00380140EA
:1016B000B60000202E000020000801403800002065
:1016C00040EA01039B0703D009E008C9121F08C0C4
:1016D000042AFAD203E011F8013B00F8013B521E44
:1016E000F9D27047D2B201E000F8012B491EFBD2BB
:1016F00070470022F6E710B513460A46044619461D
:10170000FFF7F0FF204610BD30B505462A460B46D0
:1017100012F8010B13F8014B08B1A042F8D01CB12C
:10172000002802D06D1CF1E7284630BDF0B480EAF5
:101730000102D40F4200B2EB410F02D2024608462A
:1017400011464A0042D0C30DDDB2C1F3C752AD1AF3
:10175000202D35DAC1F3160141F4000204B15242E2
:10176000C5F1200602FA06F12A411044B3EBD05F1E
:1017700023D0C4B1012DA0EBC35009DCF0BC4FF065
:10178000004202EAC352DBB200F5000000F008B9E3
:10179000400000F1807000EBC350A0F1807040EA7F
:1017A000D170490009E0490841EAC071A0EBC3507B
:1017B00000F50000400800EBC350F0BC00F0E7B8B3
:1017C0006142012202EB4101001BF6E7F0BC7047C9
:1017D00081F00041AAE780F00040A7E780EA01021B
:1017E00010B502F00043400022D04A001FD0010E85
:1017F00001EB1261C0F35600C2F3560240F4000040
:1018000042F40002A0FB022000047F39140400D03F
:10181000401C50EA124001D44000491EC2B20C06DE
:1018200004EBD010401C4008802A02D003E00020C6
:1018300010BD20F00100002900DA0020184310BD7F
:1018400030B480EA010202F0004530F0004221F09D
:10185000004013D090B1C30DD40DC2F31601C0F3F4
:101860001600E41A41F4000140F400027D34914274
:1018700001D3641C00E04900002C02DA30BC0020D7
:1018800070474FF400000023914201D3891A0343AB
:1018900040084FEA4101F7D151B1914202D14FF0D6
:1018A000004105E002D24FF0010101E06FF00101BB
:1018B00003EBC450284430BC00F069B8C10F80EA83
:1018C000E0700844CA079623002100F069B800F0D0
:1018D000004220F00040C10DC0F3160040F40000AB
:1018E0007F2901DA00207047962903DCC1F19601B7
:1018F000C84001E096398840002AF4D04042704741
:1019000030B50B46014600202022012409E021FACF
:1019100002F59D4205D303FA02F5491B04FA02F5CC
:101920002844151EA2F10102F1DC30BD2DE9F05F63
:101930000546002092469B4688460646814640243E
:101940001BE0284641464746224600F030FA5346FF
:101950005A46C01A914110D311461846224600F04B
:1019600017FA2D1A67EB01084F4622460120002185
:1019700000F00EFA17EB00094E41201EA4F10104FD
:10198000DFDC484631462A464346BDE8F09F002941
:10199000A8BF7047401C490008BF20F001007047F5
:1019A00010B4B0FA80FC00FA0CF050EA010404BF55
:1019B00010BC704749B1CCF1200421FA04F411FAAB
:1019C0000CF118BF012121430843A3EB0C01CB1DEF
:1019D0004FEA00614FEA102042BF002010BC704760
:1019E00000EBC35010440029A4BF10BC7047401C3A
:1019F000490008BF20F0010010BC70472DE9FE4FE0
:101A0000804681EA0300C00F0C46009021F000419F
:101A100023F00045B8EB0200A94105D2404621461B
:101A200090461C460B46024623F00040104347D028
:101A3000270DC7F30A00C3F30A510290401A019020
:101A400040286BDAC3F3130040F4801B00989246E1
:101A500020B10023D2EB030A63EB0B0B019859462C
:101A6000C0F14002504600F093F906460D4650463C
:101A70005946019A00F0ABF910EB080061410024CF
:101A800087EA115284EAE7731A4340D0009A62B39E
:101A9000019A012A4FEA075215DC001B61EB020193
:101AA0004FF0004202EA0752CDE90042001C41F526
:101AB000801132462B4600F0ABF903B0BDE8F08F41
:101AC00040462146F9E7001B61EB0201001C41F58D
:101AD000801300185B412018A2F5001747EB0301A3
:101AE00040EAD570B6196D4111E06D084FEA36062F
:101AF00045EAC0754FEA0752001B61EB0201001C6A
:101B000041F5801149084FEA300000195141324631
:101B10002B4603B0BDE8F04F00F06BB900980122EE
:101B200040000023D0EB020263EBE07300982146F3
:101B30004FEAE074B8EB000061EB0401E9E783F0E1
:101B400000435BE781F0004158E72DE9FE4F81EA51
:101B5000030404F0004421F0004100944FF0000B16
:101B600023F0004350EA01045ED052EA03045BD044
:101B7000C3F30A54C1F30A552C44A4F2F33401947C
:101B8000A0FB0254C1F3130141F48011C3F313030A
:101B900043F4801301FB024400FB034E840A970ABE
:101BA00044EA815447EA8357A4FB076802958D0AEB
:101BB00005FB07854FEA932C04FB0C542705029D77
:101BC0004FEA065847EA1637B5EB08056EEB070CE7
:101BD000870E920E47EA811742EA8312A7FB0201A1
:101BE000B6EB0B0164EB00042B0D43EA0C335E18DB
:101BF00044EB1C50DA465146E7FB0201C5F31304DF
:101C00004FEA0B3343EA14534FEA0432019C43EA90
:101C10000603A4F10C040294009CCDE900B400F08A
:101C2000F7F803B0BDE8F08F00200146F9E72DE991
:101C3000F04D81EA030404F0004B21F00045144606
:101C40004FF0000A23F0004150EA050220D054EA88
:101C500001021DD0C5F30A570246C5F31303C1F3B1
:101C60001300C1F30A5640F4801543F48013A7EB28
:101C70000608101BD64608F2FD3873EB050002D3A8
:101C800008F1010801E092185B41B8F1000F03DA96
:101C900000200146BDE8F08D00204FF4801106467B
:101CA00084460EE0171B73EB050705D3121B63EB8D
:101CB000050306434CEA010C49084FEA300092182C
:101CC0005B4150EA0107EDD152EA030012D082EAEB
:101CD000040083EA0501084305D0101BAB4106D27E
:101CE0000122002306E000224FF0004302E06FF0E3
:101CF000010253101AEB06004CEB085110EB0A00DE
:101D000041EB0B01BDE8F04D00F073B8C1F30A528E
:101D1000C1F3130140F2FF3341F480119A4202DA19
:101D200000200146704740F233439A42A2F2334208
:101D300002DC524200F03BB800F02AB830B5041E75
:101D400071F1000404DB4FF00044404264EB0101F8
:101D5000141E73F1000405DB1C464FF00043524291
:101D600063EB0403994208BF904230BD064C074D17
:101D700006E0E06840F0010394E80700984710345B
:101D8000AC42F6D3FEF7B6F9A0270008C02700083A
:101D9000202A04DB203A00FA02F10020704791402B
:101DA000C2F1200320FA03F3194390407047202A20
:101DB00004DB203A21FA02F00021704721FA02F3F5
:101DC000D040C2F120029140084319467047202AB2
:101DD00006DBCB17203A41FA02F043EAE07306E053
:101DE00041FA02F3D040C2F1200291400843194663
:101DF000704710B5141E73F1000408DA401C41F15D
:101E0000000192185B411A4301D120F0010010BD7E
:101E10002DE9F04D92469B4611B1B1FA81F202E0F4
:101E2000B0FA80F220329046FFF7B2FF04460F4628
:101E300040EA0A0041EA0B0153465A46084313D0D0
:101E4000114653EA010019D0C8F140025046FFF78D
:101E5000AEFF05460E46504659464246FFF798FFEC
:101E6000084305D0012004E020463946BDE8F08D46
:101E70000020054346EAE0762C4337430A98630581
:101E8000E40AA0EB08000022FD0A44EA47540A30A5
:101E900002D500200146E9E7010510196941DDE995
:101EA000084500196941BDE8F04DA2E70FB4054BA4
:101EB00010B503A9044A029800F0DAF810BC5DF8E6
:101EC00014FB0000FD1400083000002002E008C8E8
:101ED000121F08C1002AFAD170477047002001E0A4
:101EE00001C1121F002AFBD1704700002DE9FF5FDE
:101EF00082B00021DDE90430020DDDF840B003437B
:101F000018D044F61050A2F2FF3242431514119833
:101F100001281FD0A5EB0B00401C5FEA000A4FF020
:101F200000064E4FDFF83891B046504615D5CAF13D
:101F3000000413E0119801244AA3012801D16FEA9B
:101F40000B010298119AC0E90031C0E9024206B0C3
:101F5000BDE8F09FCBF10000DFE704460021404AD6
:101F6000491842EB0450CDE9001012E0E00707D019
:101F700032463B4640464946FFF7E7FD80468946E4
:101F800032463B4610461946FFF7DFFD06460F4630
:101F90006410002CEAD1DDE90401DDE90023BAF187
:101FA000000F06DAFFF7D1FD42464B46FFF7CDFDA5
:101FB00005E0FFF73CFE42464B46FFF738FE04467D
:101FC0000E460022284BFFF7B9FE03D84FF0FF3032
:101FD000014607E00022254B20463146FFF70EFD63
:101FE000FFF794FE102409E0002C0ADB0A220023EC
:101FF000FFF79CFC039B30321A55641E50EA010225
:10200000F2D1641C039AC4F111031444119A012AF9
:1020100003D0012208430DD10AE0084304D0002078
:102020004FF0110B119072E7A3EB0B056D1E0DE045
:102030005B4504DD4FF0000205F1010504E003DA21
:102040004FF00002A5F10105002AECD00298119989
:10205000C0E90231C0E9004579E700000000144002
:102060000000F03F300000000000F0430000E03FBF
:102070002DE9FF4F95B09B468946064600250FE2A5
:10208000252877D100242746F84A0121059400E04D
:10209000044316F8013F203B01FA03F01042F7D148
:1020A00030782A2811D06FF02F033078A0F1300259
:1020B000092A16D8059A44F0020402EB820203EBC7
:1020C00042021044761C0590EFE759F8042B059264
:1020D000002A03DA504244F40054059044F002040C
:1020E000761C30782E2816D116F8010F44F004041F
:1020F0002A280DD06FF02F023078A0F13003092B81
:1021000009D807EB870302EB4303C718761CF3E7F4
:1021100059F8047B761C30786C280FD006DC4C28EC
:1021200017D068280DD06A2814D104E0742810D084
:102130007A280FD10DE044F400140AE044F480142E
:1021400001E044F440147278824202D104F5801414
:10215000761C761C307866280BD013DC582877D094
:1021600009DC002875D04528F6D04628F4D0472849
:102170001AD19DE118E0632835D0642879D065280C
:1021800012D195E1702873D008DC6728F1D0692856
:102190006FD06E280DD06F2806D1B5E073282CD0F3
:1021A000752875D0782874D05A46179990476D1CB9
:1021B00075E1C4F30250022809D003280DD0D9F8E4
:1021C000001004280DD00D6009F1040967E1D9F869
:1021D0000010EA17C1E90052F6E7D9F800100D80A7
:1021E000F2E70D70F0E719F8041B8DF800100020DD
:1021F0008DF80100EA46012003E059F804AB4FF0E6
:10220000FF3061074FF0000102D40DE008F1010139
:102210008846B9420FDA8045F8DB1AF80810002921
:10222000F4D108E008F1010188468142FADB1AF88E
:1022300008100029F6D105985B46A0EB0807214657
:102240003846179A00F094FA284400EB080507E096
:102250004DE029E10DE01AF8010B5A461799904715
:10226000B8F10108F7D25B4621463846179A13E1C8
:1022700042E00A220092C4F302524FF0000A022AFE
:1022800008D059F804CB032A4FEAEC710AD00DE0CC
:1022900029E02AE009F1070121F00702F2E802C172
:1022A000914609E00FFA8CFC4FEAEC71042A03D145
:1022B0004FFA8CFC4FEAEC71002907DA0A4600213C
:1022C000DCF1000C61EB02012D2202E0220504D5B5
:1022D0002B228DF80420012203E0E20701D0202206
:1022E000F7E7904659E00A2102E010220DE01021A4
:1022F0004FF0000A00910BE010224FF0000A44F06A
:1023000004040827009203E008224FF0000A00921C
:10231000C4F30252022A05D059F804CB0021032A43
:1023200008D009E009F1070121F00702F2E802C133
:10233000914605E01FFA8CFC042A01D10CF0FF0C39
:102340004FF00008220728D5702806D0009B83F0A4
:10235000100353EA0A0305D00EE040228DF8042052
:10236000012208E05CEA010206D030228DF8042048
:102370008DF8050002229046009B83F0080353EA83
:102380000A030AD15CEA010201D1620705D53022B5
:102390008DF804204FF001087F1E582804D034A087
:1023A00003900EA802900DE036A0F9E75346604670
:1023B000009AFFF7BBFA84460398825C0298401E9D
:1023C000029002705CEA0100F0D1029806A9081A96
:1023D00000F1200A600702D524F4803400E00127D0
:1023E000574502DDA7EB0A0000E0002000EB0A01E0
:1023F000009005984144401A0590E00306D45B46DE
:102400002146179A059800F0B3F90544002706E025
:1024100001A85A46C05D179990476D1C7F1C47451F
:10242000F6DBE0030CD55B462146179A059800F0D1
:102430009FF9054404E030205A46179990476D1CD7
:102440000099481E00900029F5DC08E002980299E6
:102450005A460078491C0291179990476D1CBAF1B1
:102460000001AAF1010AF1DC65E100000928010080
:1024700030313233343536373839616263646566FA
:1024800000000000303132333435363738394142BC
:10249000434445460000000000F058F90544761C0E
:1024A000307800287FF4ECAD19B02846BDE8F08FF5
:1024B000620700D4062709F1070222F0070CFCE8A6
:1024C0000223E14603F000485FEA080C02D00FF255
:1024D000702C0DE05FEA045C02D50FF2682C07E077
:1024E0005FEAC47C02D00FF2602C01E0AFF2700C06
:1024F0004FF0FF3823F00043CDF850C065280CD0D2
:1025000006DC452809D046281DD047283DD13DE0AE
:10251000662818D067287ED138E00021112F01DB12
:10252000112000E0781CCDE9000106A90EA8FFF7F4
:10253000DDFCDDE90F010E9A03910021009207F105
:10254000010A04914DE04FF000400097CDE90110E1
:1025500006A90EA8FFF7CAFCDDE90F0203920E9B45
:1025600011990022DDF80CA00093049211B9791C96
:1025700000EB010AB7EB0A0004D4C0F1FF3007F109
:10258000010A0490AAEB0700019044E0012F00DA51
:1025900001270021112F01DD112000E03846CDE98F
:1025A000000106A90EA8FFF7A1FCDDE90F010E9AB4
:1025B0000391002104910092BA4621070CD403999B
:1025C000514500DA8A46BAF1010F05DD009AAAF1F9
:1025D0000101515C302908D0B84202DA10F1040F31
:1025E00006DA0121CDE9011015E0AAF10101E9E7C0
:1025F000002805DC049901440491AAEB000102E0E3
:10260000411C514500DD8A460499401A401C019046
:102610004FF000400290200704D40198504501DBA0
:10262000CDF8048000208DF84F0002980DF14F077F
:10263000B0F1004F25D02B200E9002984FF00208E9
:1026400000280CDA404202902D200E9007E00A216B
:102650000298FFF755F93031029007F8011DB8F1E3
:102660000001A8F10108F2DC02980028EFD1791EE0
:102670000E980870307800F0200040F0450007F810
:10268000020D12A8C01B00F107081498007800B1D1
:10269000012000EB0A01019801EBE071059841442B
:1026A000401A401E0590E00306D45B462146179A67
:1026B000059800F05DF805441498007818B15A4662
:1026C000179990476D1CE00324D55B462146179A65
:1026D000059800F04DF805441CE00498002807DB3D
:1026E000DDE90301884203DD0098405C179901E0B1
:1026F000179930205A469047049805F10105401C6F
:1027000004900198401E019004D12E205A4617993A
:1027100090476D1CBAF10001AAF1010ADDDC05E069
:1027200017F8010B5A46179990476D1CB8F1000134
:10273000A8F10108F4DC5B462146179A0598ABE640
:102740002D0000002B000000200000002DE9F041CA
:10275000044600251E461746880404D405E0394681
:102760002020B0476D1C641EF9D52846BDE8F081D5
:102770002DE9F041044600251E469046C80301D5C8
:10278000302700E02027880404D505E0414638467C
:10279000B0476D1C641EF9D52846BDE8F0810000E5
:1027A000C02700080000002038000000CC1E0008F0
:1027B000F82700083800002048050000DC1E00084B
:1027C00000A24A040000000000000000010203040F
:1027D00006070809000000000102030401020304C7
:1027E00006070809020406080000000000000000B7
:0827F0000000000000000000E1
:04000005080000ED02
:00000001FF
